{
  "contractName": "LpMining",
  "abi": [
    {
      "inputs": [
        {
          "internalType": "contract IERC20",
          "name": "_cws",
          "type": "address"
        },
        {
          "internalType": "address",
          "name": "_nftFactory",
          "type": "address"
        }
      ],
      "stateMutability": "nonpayable",
      "type": "constructor"
    },
    {
      "anonymous": false,
      "inputs": [
        {
          "indexed": true,
          "internalType": "address",
          "name": "stakingToken",
          "type": "address"
        },
        {
          "indexed": true,
          "internalType": "address",
          "name": "owner",
          "type": "address"
        },
        {
          "indexed": false,
          "internalType": "uint256",
          "name": "sessionId",
          "type": "uint256"
        },
        {
          "indexed": false,
          "internalType": "uint256",
          "name": "amount",
          "type": "uint256"
        },
        {
          "indexed": false,
          "internalType": "uint256",
          "name": "claimedTime",
          "type": "uint256"
        }
      ],
      "name": "Claimed",
      "type": "event"
    },
    {
      "anonymous": false,
      "inputs": [
        {
          "indexed": true,
          "internalType": "address",
          "name": "stakingToken",
          "type": "address"
        },
        {
          "indexed": true,
          "internalType": "address",
          "name": "owner",
          "type": "address"
        },
        {
          "indexed": false,
          "internalType": "uint256",
          "name": "sessionId",
          "type": "uint256"
        },
        {
          "indexed": false,
          "internalType": "uint256",
          "name": "amount",
          "type": "uint256"
        },
        {
          "indexed": false,
          "internalType": "uint256",
          "name": "startTime",
          "type": "uint256"
        },
        {
          "indexed": false,
          "internalType": "uint256",
          "name": "totalStaked",
          "type": "uint256"
        }
      ],
      "name": "Deposited",
      "type": "event"
    },
    {
      "anonymous": false,
      "inputs": [
        {
          "indexed": true,
          "internalType": "address",
          "name": "factoryAddress",
          "type": "address"
        }
      ],
      "name": "FactorySet",
      "type": "event"
    },
    {
      "anonymous": false,
      "inputs": [
        {
          "indexed": true,
          "internalType": "address",
          "name": "previousOwner",
          "type": "address"
        },
        {
          "indexed": true,
          "internalType": "address",
          "name": "newOwner",
          "type": "address"
        }
      ],
      "name": "OwnershipTransferred",
      "type": "event"
    },
    {
      "anonymous": false,
      "inputs": [
        {
          "indexed": true,
          "internalType": "address",
          "name": "stakingToken",
          "type": "address"
        },
        {
          "indexed": false,
          "internalType": "uint256",
          "name": "sessionIdd",
          "type": "uint256"
        },
        {
          "indexed": false,
          "internalType": "uint256",
          "name": "reward",
          "type": "uint256"
        },
        {
          "indexed": false,
          "internalType": "uint256",
          "name": "startTime",
          "type": "uint256"
        },
        {
          "indexed": false,
          "internalType": "uint256",
          "name": "endTime",
          "type": "uint256"
        },
        {
          "indexed": false,
          "internalType": "uint256",
          "name": "generation",
          "type": "uint256"
        }
      ],
      "name": "SessionStarted",
      "type": "event"
    },
    {
      "anonymous": false,
      "inputs": [
        {
          "indexed": true,
          "internalType": "address",
          "name": "stakingToken",
          "type": "address"
        },
        {
          "indexed": true,
          "internalType": "address",
          "name": "owner",
          "type": "address"
        },
        {
          "indexed": false,
          "internalType": "uint256",
          "name": "sessionId",
          "type": "uint256"
        },
        {
          "indexed": false,
          "internalType": "uint256",
          "name": "amount",
          "type": "uint256"
        },
        {
          "indexed": false,
          "internalType": "uint256",
          "name": "startTime",
          "type": "uint256"
        },
        {
          "indexed": false,
          "internalType": "uint256",
          "name": "totalStaked",
          "type": "uint256"
        }
      ],
      "name": "Withdrawn",
      "type": "event"
    },
    {
      "inputs": [],
      "name": "CWS",
      "outputs": [
        {
          "internalType": "contract IERC20",
          "name": "",
          "type": "address"
        }
      ],
      "stateMutability": "view",
      "type": "function",
      "constant": true
    },
    {
      "inputs": [
        {
          "internalType": "uint256",
          "name": "",
          "type": "uint256"
        },
        {
          "internalType": "address",
          "name": "",
          "type": "address"
        }
      ],
      "name": "balances",
      "outputs": [
        {
          "internalType": "uint256",
          "name": "amount",
          "type": "uint256"
        },
        {
          "internalType": "uint256",
          "name": "claimed",
          "type": "uint256"
        },
        {
          "internalType": "uint256",
          "name": "claimedTime",
          "type": "uint256"
        },
        {
          "internalType": "bool",
          "name": "minted",
          "type": "bool"
        }
      ],
      "stateMutability": "view",
      "type": "function",
      "constant": true
    },
    {
      "inputs": [
        {
          "internalType": "uint256",
          "name": "",
          "type": "uint256"
        },
        {
          "internalType": "address",
          "name": "",
          "type": "address"
        }
      ],
      "name": "depositTimes",
      "outputs": [
        {
          "internalType": "uint256",
          "name": "",
          "type": "uint256"
        }
      ],
      "stateMutability": "view",
      "type": "function",
      "constant": true
    },
    {
      "inputs": [
        {
          "internalType": "address",
          "name": "",
          "type": "address"
        }
      ],
      "name": "lastSessionIds",
      "outputs": [
        {
          "internalType": "uint256",
          "name": "",
          "type": "uint256"
        }
      ],
      "stateMutability": "view",
      "type": "function",
      "constant": true
    },
    {
      "inputs": [],
      "name": "owner",
      "outputs": [
        {
          "internalType": "address",
          "name": "",
          "type": "address"
        }
      ],
      "stateMutability": "view",
      "type": "function",
      "constant": true
    },
    {
      "inputs": [],
      "name": "renounceOwnership",
      "outputs": [],
      "stateMutability": "nonpayable",
      "type": "function"
    },
    {
      "inputs": [
        {
          "internalType": "uint256",
          "name": "",
          "type": "uint256"
        }
      ],
      "name": "sessions",
      "outputs": [
        {
          "internalType": "address",
          "name": "stakingToken",
          "type": "address"
        },
        {
          "internalType": "uint256",
          "name": "totalReward",
          "type": "uint256"
        },
        {
          "internalType": "uint256",
          "name": "period",
          "type": "uint256"
        },
        {
          "internalType": "uint256",
          "name": "startTime",
          "type": "uint256"
        },
        {
          "internalType": "uint256",
          "name": "generation",
          "type": "uint256"
        },
        {
          "internalType": "uint256",
          "name": "claimed",
          "type": "uint256"
        },
        {
          "internalType": "uint256",
          "name": "amount",
          "type": "uint256"
        },
        {
          "internalType": "uint256",
          "name": "rewardUnit",
          "type": "uint256"
        }
      ],
      "stateMutability": "view",
      "type": "function",
      "constant": true
    },
    {
      "inputs": [
        {
          "internalType": "address",
          "name": "newOwner",
          "type": "address"
        }
      ],
      "name": "transferOwnership",
      "outputs": [],
      "stateMutability": "nonpayable",
      "type": "function"
    },
    {
      "inputs": [
        {
          "internalType": "address",
          "name": "_lpToken",
          "type": "address"
        },
        {
          "internalType": "uint256",
          "name": "_totalReward",
          "type": "uint256"
        },
        {
          "internalType": "uint256",
          "name": "_period",
          "type": "uint256"
        },
        {
          "internalType": "uint256",
          "name": "_startTime",
          "type": "uint256"
        },
        {
          "internalType": "uint256",
          "name": "_generation",
          "type": "uint256"
        }
      ],
      "name": "startSession",
      "outputs": [],
      "stateMutability": "nonpayable",
      "type": "function"
    },
    {
      "inputs": [
        {
          "internalType": "address",
          "name": "_address",
          "type": "address"
        }
      ],
      "name": "setNftFactory",
      "outputs": [],
      "stateMutability": "nonpayable",
      "type": "function"
    },
    {
      "inputs": [
        {
          "internalType": "uint256",
          "name": "_sessionId",
          "type": "uint256"
        },
        {
          "internalType": "uint256",
          "name": "_amount",
          "type": "uint256"
        }
      ],
      "name": "deposit",
      "outputs": [],
      "stateMutability": "nonpayable",
      "type": "function"
    },
    {
      "inputs": [
        {
          "internalType": "uint256",
          "name": "_sessionId",
          "type": "uint256"
        }
      ],
      "name": "claim",
      "outputs": [
        {
          "internalType": "bool",
          "name": "",
          "type": "bool"
        }
      ],
      "stateMutability": "nonpayable",
      "type": "function"
    },
    {
      "inputs": [
        {
          "internalType": "uint256",
          "name": "_sessionId",
          "type": "uint256"
        },
        {
          "internalType": "uint256",
          "name": "_amount",
          "type": "uint256"
        }
      ],
      "name": "withdraw",
      "outputs": [],
      "stateMutability": "nonpayable",
      "type": "function"
    },
    {
      "inputs": [
        {
          "internalType": "uint256",
          "name": "_sessionId",
          "type": "uint256"
        }
      ],
      "name": "claimNft",
      "outputs": [],
      "stateMutability": "nonpayable",
      "type": "function"
    },
    {
      "inputs": [
        {
          "internalType": "uint256",
          "name": "_sessionId",
          "type": "uint256"
        },
        {
          "internalType": "address",
          "name": "_owner",
          "type": "address"
        }
      ],
      "name": "stakedBalanceOf",
      "outputs": [
        {
          "internalType": "uint256",
          "name": "",
          "type": "uint256"
        }
      ],
      "stateMutability": "view",
      "type": "function",
      "constant": true
    },
    {
      "inputs": [
        {
          "internalType": "uint256",
          "name": "_sessionId",
          "type": "uint256"
        },
        {
          "internalType": "address",
          "name": "_owner",
          "type": "address"
        }
      ],
      "name": "earned",
      "outputs": [
        {
          "internalType": "uint256",
          "name": "",
          "type": "uint256"
        }
      ],
      "stateMutability": "view",
      "type": "function",
      "constant": true
    },
    {
      "inputs": [
        {
          "internalType": "uint256",
          "name": "_sessionId",
          "type": "uint256"
        },
        {
          "internalType": "address",
          "name": "_owner",
          "type": "address"
        }
      ],
      "name": "claimable",
      "outputs": [
        {
          "internalType": "uint256",
          "name": "",
          "type": "uint256"
        }
      ],
      "stateMutability": "view",
      "type": "function",
      "constant": true
    },
    {
      "inputs": [
        {
          "internalType": "uint256",
          "name": "_sessionId",
          "type": "uint256"
        }
      ],
      "name": "stakedBalance",
      "outputs": [
        {
          "internalType": "uint256",
          "name": "",
          "type": "uint256"
        }
      ],
      "stateMutability": "view",
      "type": "function",
      "constant": true
    }
  ],
  "bytecode": "0x60a060405260006003553480156200001657600080fd5b506040516200368238038062003682833981810160405260408110156200003c57600080fd5b8101908080519060200190929190805190602001909291905050506000620000696200019e60201b60201c565b9050806000806101000a81548173ffffffffffffffffffffffffffffffffffffffff021916908373ffffffffffffffffffffffffffffffffffffffff1602179055508073ffffffffffffffffffffffffffffffffffffffff16600073ffffffffffffffffffffffffffffffffffffffff167f8be0079c531659141344cd1fd0a4f28419497f9722a3daafe3b4186f6b6457e060405160405180910390a3508173ffffffffffffffffffffffffffffffffffffffff1660808173ffffffffffffffffffffffffffffffffffffffff1660601b81525050620001556002620001a660201b62002dee1760201c565b80600160006101000a81548173ffffffffffffffffffffffffffffffffffffffff021916908373ffffffffffffffffffffffffffffffffffffffff1602179055505050620001bc565b600033905090565b6001816000016000828254019250508190555050565b60805160601c61348f620001f360003980610d135280610ea452806112ac528061148552806118565280611d86525061348f6000f3fe608060405234801561001057600080fd5b50600436106101165760003560e01c80637d0c4d47116100a2578063d389838b11610071578063d389838b1461054b578063e2bbb158146105ad578063e39c08fc146105e5578063f256cad514610647578063f2fde38b1461068957610116565b80637d0c4d471461039457806383c4b7a3146104005780638da5cb5b1461049f578063a0c7f71c146104e957610116565b8063441a3e70116100e9578063441a3e701461024e578063541e33e01461028657806358c721fc146102de578063715018a6146103285780637bd208b21461033257610116565b80630dac99621461011b5780631f3203311461015f5780632ec09d39146101da578063379607f514610208575b600080fd5b61015d6004803603602081101561013157600080fd5b81019080803573ffffffffffffffffffffffffffffffffffffffff1690602001909291905050506106cd565b005b6101ab6004803603604081101561017557600080fd5b8101908080359060200190929190803573ffffffffffffffffffffffffffffffffffffffff1690602001909291905050506108a3565b604051808581526020018481526020018381526020018215151515815260200194505050505060405180910390f35b610206600480360360208110156101f057600080fd5b81019080803590602001909291905050506108ed565b005b6102346004803603602081101561021e57600080fd5b8101908080359060200190929190505050610c24565b604051808215151515815260200191505060405180910390f35b6102846004803603604081101561026457600080fd5b81019080803590602001909291908035906020019092919050505061107f565b005b6102c86004803603602081101561029c57600080fd5b81019080803573ffffffffffffffffffffffffffffffffffffffff16906020019092919050505061183c565b6040518082815260200191505060405180910390f35b6102e6611854565b604051808273ffffffffffffffffffffffffffffffffffffffff1673ffffffffffffffffffffffffffffffffffffffff16815260200191505060405180910390f35b610330611878565b005b61037e6004803603604081101561034857600080fd5b8101908080359060200190929190803573ffffffffffffffffffffffffffffffffffffffff169060200190929190505050611a00565b6040518082815260200191505060405180910390f35b6103fe600480360360a08110156103aa57600080fd5b81019080803573ffffffffffffffffffffffffffffffffffffffff16906020019092919080359060200190929190803590602001909291908035906020019092919080359060200190929190505050611a5e565b005b61042c6004803603602081101561041657600080fd5b810190808035906020019092919050505061209d565b604051808973ffffffffffffffffffffffffffffffffffffffff1673ffffffffffffffffffffffffffffffffffffffff1681526020018881526020018781526020018681526020018581526020018481526020018381526020018281526020019850505050505050505060405180910390f35b6104a7612105565b604051808273ffffffffffffffffffffffffffffffffffffffff1673ffffffffffffffffffffffffffffffffffffffff16815260200191505060405180910390f35b610535600480360360408110156104ff57600080fd5b8101908080359060200190929190803573ffffffffffffffffffffffffffffffffffffffff16906020019092919050505061212e565b6040518082815260200191505060405180910390f35b6105976004803603604081101561056157600080fd5b8101908080359060200190929190803573ffffffffffffffffffffffffffffffffffffffff169060200190929190505050612142565b6040518082815260200191505060405180910390f35b6105e3600480360360408110156105c357600080fd5b810190808035906020019092919080359060200190929190505050612167565b005b610631600480360360408110156105fb57600080fd5b8101908080359060200190929190803573ffffffffffffffffffffffffffffffffffffffff169060200190929190505050612822565b6040518082815260200191505060405180910390f35b6106736004803603602081101561065d57600080fd5b81019080803590602001909291905050506128a0565b6040518082815260200191505060405180910390f35b6106cb6004803603602081101561069f57600080fd5b81019080803573ffffffffffffffffffffffffffffffffffffffff1690602001909291905050506128c0565b005b6106d5612acd565b73ffffffffffffffffffffffffffffffffffffffff166000809054906101000a900473ffffffffffffffffffffffffffffffffffffffff1673ffffffffffffffffffffffffffffffffffffffff1614610796576040517f08c379a00000000000000000000000000000000000000000000000000000000081526004018080602001828103825260208152602001807f4f776e61626c653a2063616c6c6572206973206e6f7420746865206f776e657281525060200191505060405180910390fd5b600073ffffffffffffffffffffffffffffffffffffffff168173ffffffffffffffffffffffffffffffffffffffff16141561081c576040517f08c379a000000000000000000000000000000000000000000000000000000000815260040180806020018281038252603881526020018061308a6038913960400191505060405180910390fd5b80600160006101000a81548173ffffffffffffffffffffffffffffffffffffffff021916908373ffffffffffffffffffffffffffffffffffffffff1602179055508073ffffffffffffffffffffffffffffffffffffffff167f1edf3afd4ac789736e00d216cd88be164ddcef26a6eedcc30cdb0cb62f3741b160405160405180910390a250565b6006602052816000526040600020602052806000526040600020600091509150508060000154908060010154908060020154908060030160009054906101000a900460ff16905084565b60006006600083815260200190815260200160002060003373ffffffffffffffffffffffffffffffffffffffff1673ffffffffffffffffffffffffffffffffffffffff1681526020019081526020016000209050600061095e82600001548360010154612ad590919063ffffffff16565b116109d1576040517f08c379a000000000000000000000000000000000000000000000000000000000815260040180806020018281038252601f8152602001807f5365617363617065205374616b696e673a204465706f7369742066697273740081525060200191505060405180910390fd5b600015158160030160009054906101000a900460ff16151514610a5c576040517f08c379a00000000000000000000000000000000000000000000000000000000081526004018080602001828103825260208152602001807f5365617363617065205374616b696e673a20416c7265616479206d696e74656481525060200191505060405180910390fd5b6000600160009054906101000a900473ffffffffffffffffffffffffffffffffffffffff1673ffffffffffffffffffffffffffffffffffffffff166340c10f193360056000878152602001908152602001600020600401546040518363ffffffff1660e01b8152600401808373ffffffffffffffffffffffffffffffffffffffff1673ffffffffffffffffffffffffffffffffffffffff16815260200182815260200192505050602060405180830381600087803b158015610b1d57600080fd5b505af1158015610b31573d6000803e3d6000fd5b505050506040513d6020811015610b4757600080fd5b8101908080519060200190929190505050905060008111610bb3576040517f08c379a00000000000000000000000000000000000000000000000000000000081526004018080602001828103825260288152602001806133506028913960400191505060405180910390fd5b60016006600085815260200190815260200160002060003373ffffffffffffffffffffffffffffffffffffffff1673ffffffffffffffffffffffffffffffffffffffff16815260200190815260200160002060030160006101000a81548160ff021916908315150217905550505050565b60008060056000848152602001908152602001600020905060006006600085815260200190815260200160002060003373ffffffffffffffffffffffffffffffffffffffff1673ffffffffffffffffffffffffffffffffffffffff16815260200190815260200160002090506000816000015411610ced576040517f08c379a00000000000000000000000000000000000000000000000000000000081526004018080602001828103825260268152602001806131c76026913960400191505060405180910390fd5b6000610cf98533612b5d565b90506000811415610d10576000935050505061107a565b807f000000000000000000000000000000000000000000000000000000000000000073ffffffffffffffffffffffffffffffffffffffff166370a08231306040518263ffffffff1660e01b8152600401808273ffffffffffffffffffffffffffffffffffffffff1673ffffffffffffffffffffffffffffffffffffffff16815260200191505060206040518083038186803b158015610dae57600080fd5b505afa158015610dc2573d6000803e3d6000fd5b505050506040513d6020811015610dd857600080fd5b81019080805190602001909291905050501015610e40576040517f08c379a00000000000000000000000000000000000000000000000000000000081526004018080602001828103825260398152602001806130516039913960400191505060405180910390fd5b610e57818460050154612ad590919063ffffffff16565b8360050181905550610e76818360010154612ad590919063ffffffff16565b8260010181905550428260020181905550610e9c81600354612ceb90919063ffffffff16565b6003819055507f000000000000000000000000000000000000000000000000000000000000000073ffffffffffffffffffffffffffffffffffffffff1663a9059cbb33836040518363ffffffff1660e01b8152600401808373ffffffffffffffffffffffffffffffffffffffff1673ffffffffffffffffffffffffffffffffffffffff16815260200182815260200192505050602060405180830381600087803b158015610f4957600080fd5b505af1158015610f5d573d6000803e3d6000fd5b505050506040513d6020811015610f7357600080fd5b8101908080519060200190929190505050610fd9576040517f08c379a000000000000000000000000000000000000000000000000000000000815260040180806020018281038252603581526020018061329d6035913960400191505060405180910390fd5b3373ffffffffffffffffffffffffffffffffffffffff168360000160009054906101000a900473ffffffffffffffffffffffffffffffffffffffff1673ffffffffffffffffffffffffffffffffffffffff167fd795915374024be1f03204e052bd584b33bb85c9128ede9c54adbe0bbdc2209587844260405180848152602001838152602001828152602001935050505060405180910390a3600193505050505b919050565b600060056000848152602001908152602001600020905060006006600085815260200190815260200160002060003373ffffffffffffffffffffffffffffffffffffffff1673ffffffffffffffffffffffffffffffffffffffff16815260200190815260200160002090508281600001541015611147576040517f08c379a00000000000000000000000000000000000000000000000000000000081526004018080602001828103825260338152602001806131ed6033913960400191505060405180910390fd5b60006005600086815260200190815260200160002060000160009054906101000a900473ffffffffffffffffffffffffffffffffffffffff169050838173ffffffffffffffffffffffffffffffffffffffff166370a08231306040518263ffffffff1660e01b8152600401808273ffffffffffffffffffffffffffffffffffffffff1673ffffffffffffffffffffffffffffffffffffffff16815260200191505060206040518083038186803b15801561120057600080fd5b505afa158015611214573d6000803e3d6000fd5b505050506040513d602081101561122a57600080fd5b81019080805190602001909291905050501015611292576040517f08c379a00000000000000000000000000000000000000000000000000000000081526004018080602001828103825260378152602001806131906037913960400191505060405180910390fd5b600061129e8633612b5d565b905060008111156113da57807f000000000000000000000000000000000000000000000000000000000000000073ffffffffffffffffffffffffffffffffffffffff166370a08231306040518263ffffffff1660e01b8152600401808273ffffffffffffffffffffffffffffffffffffffff1673ffffffffffffffffffffffffffffffffffffffff16815260200191505060206040518083038186803b15801561134757600080fd5b505afa15801561135b573d6000803e3d6000fd5b505050506040513d602081101561137157600080fd5b810190808051906020019092919050505010156113d9576040517f08c379a00000000000000000000000000000000000000000000000000000000081526004018080602001828103825260398152602001806130516039913960400191505060405180910390fd5b5b6113f1858460000154612ceb90919063ffffffff16565b8360000181905550611410858560060154612ceb90919063ffffffff16565b8460060181905550600081111561165457611438818560050154612ad590919063ffffffff16565b8460050181905550611457818460010154612ad590919063ffffffff16565b836001018190555042836002018190555061147d81600354612ceb90919063ffffffff16565b6003819055507f000000000000000000000000000000000000000000000000000000000000000073ffffffffffffffffffffffffffffffffffffffff1663a9059cbb33836040518363ffffffff1660e01b8152600401808373ffffffffffffffffffffffffffffffffffffffff1673ffffffffffffffffffffffffffffffffffffffff16815260200182815260200192505050602060405180830381600087803b15801561152a57600080fd5b505af115801561153e573d6000803e3d6000fd5b505050506040513d602081101561155457600080fd5b81019080805190602001909291905050506115ba576040517f08c379a000000000000000000000000000000000000000000000000000000000815260040180806020018281038252603581526020018061329d6035913960400191505060405180910390fd5b3373ffffffffffffffffffffffffffffffffffffffff168460000160009054906101000a900473ffffffffffffffffffffffffffffffffffffffff1673ffffffffffffffffffffffffffffffffffffffff167fd795915374024be1f03204e052bd584b33bb85c9128ede9c54adbe0bbdc2209588844260405180848152602001838152602001828152602001935050505060405180910390a35b8173ffffffffffffffffffffffffffffffffffffffff1663a9059cbb33876040518363ffffffff1660e01b8152600401808373ffffffffffffffffffffffffffffffffffffffff1673ffffffffffffffffffffffffffffffffffffffff16815260200182815260200192505050602060405180830381600087803b1580156116db57600080fd5b505af11580156116ef573d6000803e3d6000fd5b505050506040513d602081101561170557600080fd5b810190808051906020019092919050505061176b576040517f08c379a00000000000000000000000000000000000000000000000000000000081526004018080602001828103825260408152602001806130116040913960400191505060405180910390fd5b3373ffffffffffffffffffffffffffffffffffffffff166005600088815260200190815260200160002060000160009054906101000a900473ffffffffffffffffffffffffffffffffffffffff1673ffffffffffffffffffffffffffffffffffffffff167ffabb9e7afa4ef595f60e1ae9041b2b311b4acb27aeaed4b11b6f2abf689af10a888842600560008d8152602001908152602001600020600601546040518085815260200184815260200183815260200182815260200194505050505060405180910390a3505050505050565b60046020528060005260406000206000915090505481565b7f000000000000000000000000000000000000000000000000000000000000000081565b611880612acd565b73ffffffffffffffffffffffffffffffffffffffff166000809054906101000a900473ffffffffffffffffffffffffffffffffffffffff1673ffffffffffffffffffffffffffffffffffffffff1614611941576040517f08c379a00000000000000000000000000000000000000000000000000000000081526004018080602001828103825260208152602001807f4f776e61626c653a2063616c6c6572206973206e6f7420746865206f776e657281525060200191505060405180910390fd5b600073ffffffffffffffffffffffffffffffffffffffff166000809054906101000a900473ffffffffffffffffffffffffffffffffffffffff1673ffffffffffffffffffffffffffffffffffffffff167f8be0079c531659141344cd1fd0a4f28419497f9722a3daafe3b4186f6b6457e060405160405180910390a360008060006101000a81548173ffffffffffffffffffffffffffffffffffffffff021916908373ffffffffffffffffffffffffffffffffffffffff160217905550565b60006006600084815260200190815260200160002060008373ffffffffffffffffffffffffffffffffffffffff1673ffffffffffffffffffffffffffffffffffffffff16815260200190815260200160002060000154905092915050565b611a66612acd565b73ffffffffffffffffffffffffffffffffffffffff166000809054906101000a900473ffffffffffffffffffffffffffffffffffffffff1673ffffffffffffffffffffffffffffffffffffffff1614611b27576040517f08c379a00000000000000000000000000000000000000000000000000000000081526004018080602001828103825260208152602001807f4f776e61626c653a2063616c6c6572206973206e6f7420746865206f776e657281525060200191505060405180910390fd5b600073ffffffffffffffffffffffffffffffffffffffff168573ffffffffffffffffffffffffffffffffffffffff161415611bad576040517f08c379a00000000000000000000000000000000000000000000000000000000081526004018080602001828103825260388152602001806133e66038913960400191505060405180910390fd5b428211611c05576040517f08c379a00000000000000000000000000000000000000000000000000000000081526004018080602001828103825260358152602001806133786035913960400191505060405180910390fd5b60008311611c5e576040517f08c379a000000000000000000000000000000000000000000000000000000000815260040180806020018281038252603b815260200180613119603b913960400191505060405180910390fd5b60008411611cb7576040517f08c379a000000000000000000000000000000000000000000000000000000000815260040180806020018281038252604181526020018061325c6041913960600191505060405180910390fd5b6000600460008773ffffffffffffffffffffffffffffffffffffffff1673ffffffffffffffffffffffffffffffffffffffff1681526020019081526020016000205490506000811115611d6a5760001515611d1182612d35565b151514611d69576040517f08c379a000000000000000000000000000000000000000000000000000000000815260040180806020018281038252603c815260200180613220603c913960400191505060405180910390fd5b5b6000611d8186600354612ad590919063ffffffff16565b9050807f000000000000000000000000000000000000000000000000000000000000000073ffffffffffffffffffffffffffffffffffffffff166370a08231306040518263ffffffff1660e01b8152600401808273ffffffffffffffffffffffffffffffffffffffff1673ffffffffffffffffffffffffffffffffffffffff16815260200191505060206040518083038186803b158015611e2157600080fd5b505afa158015611e35573d6000803e3d6000fd5b505050506040513d6020811015611e4b57600080fd5b81019080805190602001909291905050501015611eb3576040517f08c379a00000000000000000000000000000000000000000000000000000000081526004018080602001828103825260398152602001806133ad6039913960400191505060405180910390fd5b6000611ebf6002612d96565b90506000611ed68789612da490919063ffffffff16565b90506040518061010001604052808a73ffffffffffffffffffffffffffffffffffffffff1681526020018981526020018881526020018781526020018681526020016000815260200160008152602001828152506005600084815260200190815260200160002060008201518160000160006101000a81548173ffffffffffffffffffffffffffffffffffffffff021916908373ffffffffffffffffffffffffffffffffffffffff1602179055506020820151816001015560408201518160020155606082015181600301556080820151816004015560a0820151816005015560c0820151816006015560e08201518160070155905050611fd76002612dee565b8260038190555081600460008b73ffffffffffffffffffffffffffffffffffffffff1673ffffffffffffffffffffffffffffffffffffffff168152602001908152602001600020819055508873ffffffffffffffffffffffffffffffffffffffff167fe0188bd667283525a8aa585702d4b3d53ad854d4a61986c4344cf7e0e361799c838a898b8b018a604051808681526020018581526020018481526020018381526020018281526020019550505050505060405180910390a2505050505050505050565b60056020528060005260406000206000915090508060000160009054906101000a900473ffffffffffffffffffffffffffffffffffffffff16908060010154908060020154908060030154908060040154908060050154908060060154908060070154905088565b60008060009054906101000a900473ffffffffffffffffffffffffffffffffffffffff16905090565b600061213a8383612b5d565b905092915050565b6007602052816000526040600020602052806000526040600020600091509150505481565b600081116121c0576040517f08c379a000000000000000000000000000000000000000000000000000000000815260040180806020018281038252603c81526020018061341e603c913960400191505060405180910390fd5b60008211612219576040517f08c379a00000000000000000000000000000000000000000000000000000000081526004018080602001828103825260368152602001806132d26036913960400191505060405180910390fd5b61222282612d35565b612277576040517f08c379a00000000000000000000000000000000000000000000000000000000081526004018080602001828103825260278152602001806133296027913960400191505060405180910390fd5b60006005600084815260200190815260200160002060000160009054906101000a900473ffffffffffffffffffffffffffffffffffffffff169050818173ffffffffffffffffffffffffffffffffffffffff166370a08231336040518263ffffffff1660e01b8152600401808273ffffffffffffffffffffffffffffffffffffffff1673ffffffffffffffffffffffffffffffffffffffff16815260200191505060206040518083038186803b15801561233057600080fd5b505afa158015612344573d6000803e3d6000fd5b505050506040513d602081101561235a57600080fd5b810190808051906020019092919050505010156123c2576040517f08c379a00000000000000000000000000000000000000000000000000000000081526004018080602001828103825260318152602001806130e86031913960400191505060405180910390fd5b8073ffffffffffffffffffffffffffffffffffffffff166323b872dd3330856040518463ffffffff1660e01b8152600401808473ffffffffffffffffffffffffffffffffffffffff1673ffffffffffffffffffffffffffffffffffffffff1681526020018373ffffffffffffffffffffffffffffffffffffffff1673ffffffffffffffffffffffffffffffffffffffff1681526020018281526020019350505050602060405180830381600087803b15801561247d57600080fd5b505af1158015612491573d6000803e3d6000fd5b505050506040513d60208110156124a757600080fd5b810190808051906020019092919050505061250d576040517f08c379a000000000000000000000000000000000000000000000000000000000815260040180806020018281038252603c815260200180613154603c913960400191505060405180910390fd5b600060056000858152602001908152602001600020905060006006600086815260200190815260200160002060003373ffffffffffffffffffffffffffffffffffffffff1673ffffffffffffffffffffffffffffffffffffffff168152602001908152602001600020905060006007600087815260200190815260200160002060003373ffffffffffffffffffffffffffffffffffffffff1673ffffffffffffffffffffffffffffffffffffffff168152602001908152602001600020549050600080905083600301548211156125f3578260030160009054906101000a900460ff1690505b60008360000154111561264a5761260987610c24565b50612621836000015487612ad590919063ffffffff16565b8360000181905550808360030160006101000a81548160ff021916908315150217905550612700565b6040518060800160405280878152602001600081526020014281526020018215158152506006600089815260200190815260200160002060003373ffffffffffffffffffffffffffffffffffffffff1673ffffffffffffffffffffffffffffffffffffffff16815260200190815260200160002060008201518160000155602082015181600101556040820151816002015560608201518160030160006101000a81548160ff0219169083151502179055509050505b612717868560060154612ad590919063ffffffff16565b8460060181905550426007600089815260200190815260200160002060003373ffffffffffffffffffffffffffffffffffffffff1673ffffffffffffffffffffffffffffffffffffffff168152602001908152602001600020819055503373ffffffffffffffffffffffffffffffffffffffff168460000160009054906101000a900473ffffffffffffffffffffffffffffffffffffffff1673ffffffffffffffffffffffffffffffffffffffff167ff3b2a76575670b4eff5a4ad3639d40d32f7ca987adac169e6f9b89a3ab857d2789894289600601546040518085815260200184815260200183815260200182815260200194505050505060405180910390a350505050505050565b60008061282f8484612b5d565b9050612897816006600087815260200190815260200160002060008673ffffffffffffffffffffffffffffffffffffffff1673ffffffffffffffffffffffffffffffffffffffff16815260200190815260200160002060010154612ad590919063ffffffff16565b91505092915050565b600060056000838152602001908152602001600020600601549050919050565b6128c8612acd565b73ffffffffffffffffffffffffffffffffffffffff166000809054906101000a900473ffffffffffffffffffffffffffffffffffffffff1673ffffffffffffffffffffffffffffffffffffffff1614612989576040517f08c379a00000000000000000000000000000000000000000000000000000000081526004018080602001828103825260208152602001807f4f776e61626c653a2063616c6c6572206973206e6f7420746865206f776e657281525060200191505060405180910390fd5b600073ffffffffffffffffffffffffffffffffffffffff168173ffffffffffffffffffffffffffffffffffffffff161415612a0f576040517f08c379a00000000000000000000000000000000000000000000000000000000081526004018080602001828103825260268152602001806130c26026913960400191505060405180910390fd5b8073ffffffffffffffffffffffffffffffffffffffff166000809054906101000a900473ffffffffffffffffffffffffffffffffffffffff1673ffffffffffffffffffffffffffffffffffffffff167f8be0079c531659141344cd1fd0a4f28419497f9722a3daafe3b4186f6b6457e060405160405180910390a3806000806101000a81548173ffffffffffffffffffffffffffffffffffffffff021916908373ffffffffffffffffffffffffffffffffffffffff16021790555050565b600033905090565b600080828401905083811015612b53576040517f08c379a000000000000000000000000000000000000000000000000000000000815260040180806020018281038252601b8152602001807f536166654d6174683a206164646974696f6e206f766572666c6f77000000000081525060200191505060405180910390fd5b8091505092915050565b60008060056000858152602001908152602001600020905060006006600086815260200190815260200160002060008573ffffffffffffffffffffffffffffffffffffffff1673ffffffffffffffffffffffffffffffffffffffff1681526020019081526020016000209050600081600001541480612be0575060008260060154145b15612bf057600092505050612ce5565b600042905060001515612c0287612d35565b15151415612c4057612c2583600201548460030154612ad590919063ffffffff16565b90508082600201541115612c3f5760009350505050612ce5565b5b6000612c778460060154612c69670de0b6b3a76400008660000154612e0490919063ffffffff16565b612da490919063ffffffff16565b90506000612cac670de0b6b3a7640000612c9e848860070154612e0490919063ffffffff16565b612da490919063ffffffff16565b90506000612cc7856002015485612ceb90919063ffffffff16565b9050612cdc8183612e0490919063ffffffff16565b96505050505050505b92915050565b6000612d2d83836040518060400160405280601e81526020017f536166654d6174683a207375627472616374696f6e206f766572666c6f770000815250612e8a565b905092915050565b600080612d7760056000858152602001908152602001600020600201546005600086815260200190815260200160002060030154612ad590919063ffffffff16565b905080421115612d8b576000915050612d91565b60019150505b919050565b600081600001549050919050565b6000612de683836040518060400160405280601a81526020017f536166654d6174683a206469766973696f6e206279207a65726f000000000000815250612f4a565b905092915050565b6001816000016000828254019250508190555050565b600080831415612e175760009050612e84565b6000828402905082848281612e2857fe5b0414612e7f576040517f08c379a00000000000000000000000000000000000000000000000000000000081526004018080602001828103825260218152602001806133086021913960400191505060405180910390fd5b809150505b92915050565b6000838311158290612f37576040517f08c379a00000000000000000000000000000000000000000000000000000000081526004018080602001828103825283818151815260200191508051906020019080838360005b83811015612efc578082015181840152602081019050612ee1565b50505050905090810190601f168015612f295780820380516001836020036101000a031916815260200191505b509250505060405180910390fd5b5060008385039050809150509392505050565b60008083118290612ff6576040517f08c379a00000000000000000000000000000000000000000000000000000000081526004018080602001828103825283818151815260200191508051906020019080838360005b83811015612fbb578082015181840152602081019050612fa0565b50505050905090810190601f168015612fe85780820380516001836020036101000a031916815260200191505b509250505060405180910390fd5b50600083858161300257fe5b04905080915050939250505056fe5365617363617065205374616b696e673a204661696c656420746f207472616e7366657220746f6b656e2066726f6d20636f6e747261637420746f20757365725365617363617065205374616b696e673a204e6f7420656e6f7567682043575320696e2047616d6520436f6e74726163742062616c616e63655365617363617065205374616b696e673a204e667420466163746f727920616464726573732063616e206e6f74206265206265207a65726f4f776e61626c653a206e6577206f776e657220697320746865207a65726f20616464726573735365617363617065205374616b696e673a204e6f7420656e6f756768204c5020746f6b656e7320746f206465706f7369745365617363617065205374616b696e673a2053657373696f6e206475726174696f6e2073686f756c642062652067726561746572207468616e20305365617363617065205374616b696e673a204661696c656420746f207472616e73666572204c5020746f6b656e7320696e746f20636f6e74726163745365617363617065205374616b696e673a204e6f7420656e6f756768204c7020746f6b656e20696e20706c617965722062616c616e63655365617363617065205374616b696e673a204e6f206465706f7369742077617320666f756e645365617363617065205374616b696e673a2045786365656473207468652062616c616e636520746861742075736572206861735365617363617065205374616b696e673a2043616e2774207374617274207768656e2073657373696f6e20697320616c7265616479206163746976655365617363617065205374616b696e673a20546f74616c20726577617264206f6620746f6b656e732073686f756c642062652067726561746572207468616e20305365617363617065205374616b696e673a204661696c656420746f207472616e73666572207265776172642043575320746f6b656e5365617363617065205374616b696e673a2053657373696f6e2069642073686f756c642062652067726561746572207468616e203021536166654d6174683a206d756c7469706c69636174696f6e206f766572666c6f775365617363617065205374616b696e673a2053657373696f6e206973206e6f74206163746976655365617363617065205374616b696e673a206661696c656420746f206d696e74206120746f6b656e5365617363617065205374616b696e673a205365617373696f6e2073686f756c6420737461727420696e20746865206675747572655365617363617065205374616b696e673a204e6f7420656e6f7567682062616c616e6365206f662043726f776e7320666f72207265776172645365617363617065205374616b696e673a205374616b696e6720746f6b656e2073686f756c64206e6f7420626520657175616c20746f20305365617363617065205374616b696e673a20416d6f756e7420746f206465706f7369742073686f756c642062652067726561746572207468616e2030a2646970667358221220a32bc27bfda750c5cede0eb8e5791ebd0173cfbe5e400541c9f1ffbd65623dda64736f6c63430006070033",
  "immutableReferences": {
    "1293": [
      {
        "length": 32,
        "start": 3347
      },
      {
        "length": 32,
        "start": 3748
      },
      {
        "length": 32,
        "start": 4780
      },
      {
        "length": 32,
        "start": 5253
      },
      {
        "length": 32,
        "start": 6230
      },
      {
        "length": 32,
        "start": 7558
      }
    ]
  },
  "source": "pragma solidity 0.6.7;\r\n\r\nimport \"./../openzeppelin/contracts/token/ERC20/IERC20.sol\";\r\nimport \"./../openzeppelin/contracts/token/ERC20/SafeERC20.sol\";\r\nimport \"./../openzeppelin/contracts/access/Ownable.sol\";\r\nimport \"./../openzeppelin/contracts/math/SafeMath.sol\";\r\nimport \"./../openzeppelin/contracts/utils/Counters.sol\";\r\nimport \"./../seascape_nft/NftFactory.sol\";\r\n\r\n/// @title A Liquidity pool mining\r\n/// @author Medet Ahmetson <admin@blocklords.io>\r\n/// @notice Contract is attached to Seascape Nft Factory\r\ncontract LpMining is Ownable {\r\n    using SafeMath for uint256;\r\n    using SafeERC20 for IERC20;\r\n    using Counters for Counters.Counter;\r\n\r\n    uint256 private constant scaler = 10**18;\r\n\t\r\n    NftFactory nftFactory;\r\n  \r\n    IERC20 public immutable CWS;\r\n\r\n    Counters.Counter private sessionId;\r\n\r\n    /// @dev Total amount of Crowns stored for all sessions\r\n    uint256 rewardSupply = 0;\r\n\r\n    /// @notice game event struct. as event is a solidity keyword, we call them session instead.\r\n    struct Session {\r\n\taddress stakingToken;  // lp token, each session is attached to one lp token\r\n        uint256 totalReward;   // amount of CWS to airdrop\r\n\tuint256 period;        // session duration in seconds\r\n\tuint256 startTime;     // session start in unixtimestamp\r\n\tuint256 generation;    // Seascape Nft generation\r\n\tuint256 claimed;       // amount of distributed reward\r\n\tuint256 amount;        // amount of lp token deposited to the session by users\r\n\tuint256 rewardUnit;    // reward per second = totalReward/period\r\n    }\r\n\r\n    /// @notice balance of lp token that each player deposited to game session\r\n    struct Balance {\r\n\tuint256 amount;        // amount of deposited lp token\r\n\tuint256 claimed;       // amount of claimed CWS reward\r\n\tuint256 claimedTime;\r\n\tbool minted;           // Seascape Nft is claimed or not,\r\n\t                       // for every session, user can claim one nft only\r\n    }\r\n\r\n\r\n    mapping(address => uint256) public lastSessionIds;\r\n    mapping(uint256 => Session) public sessions;\r\n    mapping(uint256 => mapping(address => Balance)) public balances;\r\n    mapping(uint256 => mapping(address => uint)) public depositTimes;\r\n\r\n    event SessionStarted(address indexed stakingToken, uint256 sessionIdd, uint256 reward, uint256 startTime, uint256 endTime, uint256 generation);\r\n    event Deposited(address indexed stakingToken, address indexed owner, uint256 sessionId, uint256 amount, uint256 startTime, uint256 totalStaked);\r\n    event Claimed(address indexed stakingToken, address indexed owner, uint256 sessionId, uint256 amount, uint256 claimedTime);\r\n    event Withdrawn(address indexed stakingToken, address indexed owner, uint256 sessionId, uint256 amount, uint256 startTime, uint256 totalStaked);\r\n    event FactorySet(address indexed factoryAddress);\t\r\n\r\n\t\r\n    /// @dev CWS is not changable after contract deployment.\r\n    constructor(IERC20 _cws, address _nftFactory) public {\r\n\tCWS = _cws;\r\n\r\n\tsessionId.increment(); \t// starts at value 1\r\n\r\n\tnftFactory = NftFactory(_nftFactory);\r\n    }\r\n    \r\n    //--------------------------------------------------\r\n    // Only owner\r\n    //--------------------------------------------------\r\n\r\n    /// @notice Starts a staking session for a finit _period of\r\n    /// time, starting from _startTime. The _totalReward of\r\n    /// CWS tokens will be distributed in every second. It allows to claim a\r\n    /// a _generation Seascape NFT.\r\n    function startSession(address _lpToken,  uint256 _totalReward, uint256 _period,  uint256 _startTime, uint256 _generation) external onlyOwner {\r\n\trequire(_lpToken != address(0),\r\n\t\t\"Seascape Staking: Staking token should not be equal to 0\");\r\n\trequire(_startTime > block.timestamp,\r\n\t\t\"Seascape Staking: Seassion should start in the future\");\r\n\trequire(_period > 0,\r\n\t\t\"Seascape Staking: Session duration should be greater than 0\");\r\n\trequire(_totalReward > 0,\r\n\t\t\"Seascape Staking: Total reward of tokens should be greater than 0\");\r\n\r\n\t// game session for the lp token was already created, then:\r\n\tuint256 _lastId = lastSessionIds[_lpToken];\r\n\tif (_lastId > 0) {\r\n\t    require(isActive(_lastId)==false,     \"Seascape Staking: Can't start when session is already active\");\r\n\t}\r\n\r\n\t// required CWS balance of this contract\r\n\tuint256 newSupply = rewardSupply.add(_totalReward);\r\n\trequire(CWS.balanceOf(address(this)) >= newSupply, \"Seascape Staking: Not enough balance of Crowns for reward\");\r\n\r\n\t//--------------------------------------------------------------------\r\n\t// creating the session\r\n\t//--------------------------------------------------------------------\r\n\tuint256 _sessionId = sessionId.current();\r\n\tuint256 _rewardUnit = _totalReward.div(_period);\t\r\n\tsessions[_sessionId] = Session(_lpToken, _totalReward, _period, _startTime, _generation, 0, 0, _rewardUnit);\r\n\r\n\t//--------------------------------------------------------------------\r\n        // updating rest of session related data\r\n\t//--------------------------------------------------------------------\r\n\tsessionId.increment();\r\n\trewardSupply = newSupply;\r\n\tlastSessionIds[_lpToken] = _sessionId;\r\n\r\n\temit SessionStarted(_lpToken, _sessionId, _totalReward, _startTime, _startTime + _period, _generation);\r\n    }\r\n     \r\n    /// @dev sets an nft factory, a smartcontract that mints tokens.\r\n    /// the nft factory should give a permission on it's own side to this contract too.\r\n    function setNftFactory(address _address) external onlyOwner {\r\n\trequire(_address != address(0), \"Seascape Staking: Nft Factory address can not be be zero\");\r\n\tnftFactory = NftFactory(_address);\r\n\r\n\temit FactorySet(_address);\t    \r\n    }\r\n\r\n\r\n    //--------------------------------------------------\r\n    // Only game users\r\n    //--------------------------------------------------\r\n\r\n    /// @notice deposits _amount of LP token\r\n    function deposit(uint256 _sessionId, uint256 _amount) external {\r\n\trequire(_amount > 0,              \"Seascape Staking: Amount to deposit should be greater than 0\");\r\n\trequire(_sessionId > 0,           \"Seascape Staking: Session id should be greater than 0!\");\r\n\trequire(isActive(_sessionId), \"Seascape Staking: Session is not active\");\r\n\r\n\tIERC20 _token = IERC20(sessions[_sessionId].stakingToken);\r\n\t\r\n\trequire(_token.balanceOf(msg.sender) >= _amount,                         \"Seascape Staking: Not enough LP tokens to deposit\");\r\n\trequire(_token.transferFrom(msg.sender, address(this), _amount), \"Seascape Staking: Failed to transfer LP tokens into contract\");\r\n\r\n\tSession storage _session  = sessions[_sessionId];\r\n\tBalance storage _balance  = balances[_sessionId][msg.sender];\r\n\tuint _depositTime = depositTimes[_sessionId][msg.sender];\r\n\r\n\tbool _minted             = false;\r\n\tif (_depositTime > _session.startTime) {\r\n\t    _minted = _balance.minted;\r\n\t}\r\n\t\t\r\n\tif (_balance.amount > 0) {\r\n\t    claim(_sessionId);\r\n\t    _balance.amount = _amount.add(_balance.amount);\r\n\t    _balance.minted = _minted;\r\n\r\n\t} else {\r\n\t    // If user withdrew all LP tokens, but deposited before for the session\r\n\t    // Means, that player still can't mint more token anymore.\r\n            balances[_sessionId][msg.sender] = Balance(_amount, 0, block.timestamp, _minted);\r\n\t}\r\n\t\r\n\t_session.amount                        = _session.amount.add(_amount);\r\n\tdepositTimes[_sessionId][msg.sender]    = block.timestamp;\r\n       \r\n        emit Deposited(_session.stakingToken, msg.sender, _sessionId, _amount, block.timestamp, _session.amount);\r\n    }\r\n\r\n\r\n    function claim(uint256 _sessionId) public returns(bool) {\r\n\tSession storage _session = sessions[_sessionId];\r\n\tBalance storage _balance = balances[_sessionId][msg.sender];\r\n\r\n\trequire(_balance.amount > 0, \"Seascape Staking: No deposit was found\");\r\n\t\r\n\tuint256 _interest = calculateInterest(_sessionId, msg.sender);\r\n\tif (_interest == 0) {\r\n\t    return false;\r\n\t}\r\n\trequire(CWS.balanceOf(address(this)) >= _interest, \"Seascape Staking: Not enough CWS in Game Contract balance\");\r\n\t\t\r\n\t_session.claimed     = _session.claimed.add(_interest);\r\n\t_balance.claimed     = _balance.claimed.add(_interest);\r\n\t_balance.claimedTime = block.timestamp;\r\n\trewardSupply         = rewardSupply.sub(_interest);\r\n\r\n\trequire(CWS.transfer(msg.sender, _interest), \"Seascape Staking: Failed to transfer reward CWS token\");\r\n\t\t\r\n\temit Claimed(_session.stakingToken, msg.sender, _sessionId, _interest, block.timestamp);\r\n\treturn true;\r\n    }\r\n\r\n\r\n    /// @notice Withdraws _amount of LP token\r\n    /// of type _token out of Staking contract.\r\n    function withdraw(uint256 _sessionId, uint256 _amount) external {\r\n\tSession storage _session = sessions[_sessionId];\r\n\tBalance storage _balance  = balances[_sessionId][msg.sender];\r\n\r\n\trequire(_balance.amount >= _amount, \"Seascape Staking: Exceeds the balance that user has\");\r\n\r\n\tIERC20 _token = IERC20(sessions[_sessionId].stakingToken);\r\n\t\t\r\n\trequire(_token.balanceOf(address(this)) >= _amount, \"Seascape Staking: Not enough Lp token in player balance\");\r\n\tuint256 _interest = calculateInterest(_sessionId, msg.sender);\r\n\tif (_interest > 0) {\r\n\t    require(CWS.balanceOf(address(this)) >= _interest, \"Seascape Staking: Not enough CWS in Game Contract balance\");\r\n\t}\r\n\r\n\t\r\n\t_balance.amount = _balance.amount.sub(_amount);\r\n        _session.amount = _session.amount.sub(_amount);\r\n\r\n\t/// CWS claims as in claim method\r\n\tif (_interest > 0) {\r\n\t    _session.claimed     = _session.claimed.add(_interest);\t\r\n\t    _balance.claimed     = _balance.claimed.add(_interest);\r\n\t    _balance.claimedTime = block.timestamp;\r\n\t    rewardSupply         = rewardSupply.sub(_interest);\r\n\r\n\t    require(CWS.transfer(msg.sender, _interest), \"Seascape Staking: Failed to transfer reward CWS token\");\r\n\t    emit Claimed(_session.stakingToken, msg.sender, _sessionId, _interest, block.timestamp);\t\r\n\t}\r\n\trequire(_token.transfer(msg.sender, _amount), \"Seascape Staking: Failed to transfer token from contract to user\");\r\n\r\n\r\n\temit Withdrawn(sessions[_sessionId].stakingToken, msg.sender, _sessionId, _amount, block.timestamp, sessions[_sessionId].amount);\r\n    }\r\n\r\n    /// @notice Mints an NFT for staker. One NFT per session, per token. and should be a deposit\r\n    function claimNft(uint256 _sessionId) external {\r\n\t// it also indicates that session exists\r\n\tBalance storage _balance = balances[_sessionId][msg.sender];\r\n\trequire(_balance.claimed.add(_balance.amount) > 0, \"Seascape Staking: Deposit first\");\r\n\r\n\t// uncomment in a production mode:\r\n\trequire(_balance.minted == false, \"Seascape Staking: Already minted\");\r\n\r\n\tuint256 _tokenId = nftFactory.mint(msg.sender, sessions[_sessionId].generation);\r\n\trequire(_tokenId > 0,                              \"Seascape Staking: failed to mint a token\");\r\n\t\r\n\tbalances[_sessionId][msg.sender].minted = true;\r\n    }\r\n\r\n\r\n    //--------------------------------------------------\r\n    // Public methods\r\n    //--------------------------------------------------\r\n\r\n    /// @notice Returns amount of Token staked by _owner\r\n    function stakedBalanceOf(uint256 _sessionId, address _owner) external view returns(uint256) {\r\n\treturn balances[_sessionId][_owner].amount;\r\n    }\r\n\r\n    /// @notice Returns amount of CWS Tokens earned by _address\r\n    function earned(uint256 _sessionId, address _owner) external view returns(uint256) {\r\n\tuint256 _interest = calculateInterest(_sessionId, _owner);\r\n\treturn balances[_sessionId][_owner].claimed.add(_interest);\r\n    }\r\n\r\n    /// @notice Returns amount of CWS Tokens that _address could claim.\r\n    function claimable(uint256 _sessionId, address _owner) external view returns(uint256) {\r\n\treturn calculateInterest(_sessionId, _owner);\r\n    }\r\n\r\n    /// @notice Returns total amount of Staked LP Tokens\r\n    function stakedBalance(uint256 _sessionId) external view returns(uint256) {\r\n\treturn sessions[_sessionId].amount;\r\n    }\r\n\r\n    //---------------------------------------------------\r\n    // Internal methods\r\n    //---------------------------------------------------\r\n\r\n    /// @dev check whether the session is active or not\r\n    function isActive(uint256 _sessionId) internal view returns(bool) {\r\n\tuint256 _endTime = sessions[_sessionId].startTime.add(sessions[_sessionId].period);\r\n\r\n\t// _endTime will be 0 if session never started.\r\n\tif (now > _endTime) {\r\n\t    return false;\r\n\t}\r\n\r\n\treturn true;\r\n    }\r\n\r\n    function calculateInterest(uint256 _sessionId, address _owner) internal view returns(uint256) {\t    \r\n\tSession storage _session = sessions[_sessionId];\r\n\tBalance storage _balance = balances[_sessionId][_owner];\r\n\r\n\t// How much of total deposit is belong to player as a floating number\r\n\tif (_balance.amount == 0 || _session.amount == 0) {\r\n\t    return 0;\r\n\t}\r\n\r\n\tuint256 _sessionCap = block.timestamp;\r\n\tif (isActive(_sessionId) == false) {\r\n\t    _sessionCap = _session.startTime.add(_session.period);\r\n\r\n\t    // claimed after session expire, means no any claimables\r\n\t    if (_balance.claimedTime > _sessionCap) {\r\n                return 0;\r\n\t    }\r\n\t}\r\n\r\n\tuint256 _portion = _balance.amount.mul(scaler).div(_session.amount);\r\n\t\r\n       \tuint256 _interest = _session.rewardUnit.mul(_portion).div(scaler);\r\n\r\n\t// _balance.startTime is misleading.\r\n\t// Because, it's updated in every deposit time or claim time.\r\n\tuint256 _earnPeriod = _sessionCap.sub(_balance.claimedTime);\r\n\t\r\n\treturn _interest.mul(_earnPeriod);\r\n    }\r\n}\r\n\r\n\r\n",
  "sourcePath": "/home/node/app/contracts/game_1/LpMining.sol",
  "compiler": {
    "name": "solc",
    "version": "0.6.7+commit.b8d736ae.Emscripten.clang"
  },
  "schemaVersion": "3.3.1",
  "updatedAt": "2021-02-03T13:42:01.791Z",
  "networkType": "ethereum",
  "devdoc": {
    "author": "Medet Ahmetson <admin@blocklords.io>",
    "methods": {
      "constructor": {
        "details": "CWS is not changable after contract deployment."
      },
      "owner()": {
        "details": "Returns the address of the current owner."
      },
      "renounceOwnership()": {
        "details": "Leaves the contract without owner. It will not be possible to call `onlyOwner` functions anymore. Can only be called by the current owner.     * NOTE: Renouncing ownership will leave the contract without an owner, thereby removing any functionality that is only available to the owner."
      },
      "setNftFactory(address)": {
        "details": "sets an nft factory, a smartcontract that mints tokens. the nft factory should give a permission on it's own side to this contract too."
      },
      "transferOwnership(address)": {
        "details": "Transfers ownership of the contract to a new account (`newOwner`). Can only be called by the current owner."
      }
    },
    "title": "A Liquidity pool mining"
  },
  "userdoc": {
    "methods": {
      "claimNft(uint256)": {
        "notice": "Mints an NFT for staker. One NFT per session, per token. and should be a deposit"
      },
      "claimable(uint256,address)": {
        "notice": "Returns amount of CWS Tokens that _address could claim."
      },
      "deposit(uint256,uint256)": {
        "notice": "deposits _amount of LP token"
      },
      "earned(uint256,address)": {
        "notice": "Returns amount of CWS Tokens earned by _address"
      },
      "stakedBalance(uint256)": {
        "notice": "Returns total amount of Staked LP Tokens"
      },
      "stakedBalanceOf(uint256,address)": {
        "notice": "Returns amount of Token staked by _owner"
      },
      "startSession(address,uint256,uint256,uint256,uint256)": {
        "notice": "Starts a staking session for a finit _period of time, starting from _startTime. The _totalReward of CWS tokens will be distributed in every second. It allows to claim a a _generation Seascape NFT."
      },
      "withdraw(uint256,uint256)": {
        "notice": "Withdraws _amount of LP token of type _token out of Staking contract."
      }
    },
    "notice": "Contract is attached to Seascape Nft Factory"
  }
}