{
  "contractName": "NftRush",
  "abi": [
    {
      "inputs": [
        {
          "internalType": "address",
          "name": "_crowns",
          "type": "address"
        },
        {
          "internalType": "address",
          "name": "_factory",
          "type": "address"
        },
        {
          "internalType": "uint256",
          "name": "_minSpend",
          "type": "uint256"
        }
      ],
      "stateMutability": "nonpayable",
      "type": "constructor"
    },
    {
      "anonymous": false,
      "inputs": [
        {
          "indexed": true,
          "internalType": "address",
          "name": "owner",
          "type": "address"
        },
        {
          "indexed": false,
          "internalType": "uint256",
          "name": "sessionId",
          "type": "uint256"
        },
        {
          "indexed": false,
          "internalType": "uint256",
          "name": "nftId",
          "type": "uint256"
        }
      ],
      "name": "Minted",
      "type": "event"
    },
    {
      "anonymous": false,
      "inputs": [
        {
          "indexed": true,
          "internalType": "address",
          "name": "previousOwner",
          "type": "address"
        },
        {
          "indexed": true,
          "internalType": "address",
          "name": "newOwner",
          "type": "address"
        }
      ],
      "name": "OwnershipTransferred",
      "type": "event"
    },
    {
      "anonymous": false,
      "inputs": [
        {
          "indexed": true,
          "internalType": "address",
          "name": "owner",
          "type": "address"
        },
        {
          "indexed": false,
          "internalType": "string",
          "name": "rewardType",
          "type": "string"
        },
        {
          "indexed": false,
          "internalType": "uint256",
          "name": "amount",
          "type": "uint256"
        }
      ],
      "name": "Rewarded",
      "type": "event"
    },
    {
      "anonymous": false,
      "inputs": [
        {
          "indexed": false,
          "internalType": "uint256",
          "name": "id",
          "type": "uint256"
        },
        {
          "indexed": false,
          "internalType": "uint256",
          "name": "startTime",
          "type": "uint256"
        },
        {
          "indexed": false,
          "internalType": "uint256",
          "name": "endTime",
          "type": "uint256"
        },
        {
          "indexed": false,
          "internalType": "uint256",
          "name": "generation",
          "type": "uint256"
        }
      ],
      "name": "SessionStarted",
      "type": "event"
    },
    {
      "anonymous": false,
      "inputs": [
        {
          "indexed": true,
          "internalType": "address",
          "name": "owner",
          "type": "address"
        },
        {
          "indexed": false,
          "internalType": "uint256",
          "name": "sessionId",
          "type": "uint256"
        },
        {
          "indexed": false,
          "internalType": "uint256",
          "name": "balanceAmount",
          "type": "uint256"
        },
        {
          "indexed": false,
          "internalType": "uint256",
          "name": "prevMintedTime",
          "type": "uint256"
        },
        {
          "indexed": false,
          "internalType": "uint256",
          "name": "amount",
          "type": "uint256"
        }
      ],
      "name": "Spent",
      "type": "event"
    },
    {
      "inputs": [
        {
          "internalType": "uint256",
          "name": "_sessionId",
          "type": "uint256"
        },
        {
          "internalType": "address[10]",
          "name": "_spentWinners",
          "type": "address[10]"
        },
        {
          "internalType": "uint8",
          "name": "_spentWinnersAmount",
          "type": "uint8"
        },
        {
          "internalType": "address[10]",
          "name": "_mintedWinners",
          "type": "address[10]"
        },
        {
          "internalType": "uint8",
          "name": "_mintedWinnersAmount",
          "type": "uint8"
        }
      ],
      "name": "announceAllTimeWinners",
      "outputs": [],
      "stateMutability": "nonpayable",
      "type": "function"
    },
    {
      "inputs": [
        {
          "internalType": "uint256",
          "name": "_sessionId",
          "type": "uint256"
        },
        {
          "internalType": "address[10]",
          "name": "_spentWinners",
          "type": "address[10]"
        },
        {
          "internalType": "uint8",
          "name": "_spentWinnersAmount",
          "type": "uint8"
        },
        {
          "internalType": "address[10]",
          "name": "_mintedWinners",
          "type": "address[10]"
        },
        {
          "internalType": "uint8",
          "name": "_mintedWinnersAmount",
          "type": "uint8"
        }
      ],
      "name": "announceDailyWinners",
      "outputs": [],
      "stateMutability": "nonpayable",
      "type": "function"
    },
    {
      "inputs": [
        {
          "internalType": "uint256",
          "name": "",
          "type": "uint256"
        }
      ],
      "name": "announcement",
      "outputs": [
        {
          "internalType": "bool",
          "name": "spent",
          "type": "bool"
        },
        {
          "internalType": "bool",
          "name": "minted",
          "type": "bool"
        },
        {
          "internalType": "uint256",
          "name": "dailySpentTime",
          "type": "uint256"
        },
        {
          "internalType": "uint256",
          "name": "dailyMintedTime",
          "type": "uint256"
        }
      ],
      "stateMutability": "view",
      "type": "function",
      "constant": true
    },
    {
      "inputs": [
        {
          "internalType": "uint256",
          "name": "",
          "type": "uint256"
        },
        {
          "internalType": "address",
          "name": "",
          "type": "address"
        }
      ],
      "name": "balances",
      "outputs": [
        {
          "internalType": "uint256",
          "name": "amount",
          "type": "uint256"
        },
        {
          "internalType": "uint256",
          "name": "mintedTime",
          "type": "uint256"
        }
      ],
      "stateMutability": "view",
      "type": "function",
      "constant": true
    },
    {
      "inputs": [],
      "name": "claimAllTimeMinted",
      "outputs": [],
      "stateMutability": "nonpayable",
      "type": "function"
    },
    {
      "inputs": [],
      "name": "claimAllTimeSpent",
      "outputs": [],
      "stateMutability": "nonpayable",
      "type": "function"
    },
    {
      "inputs": [],
      "name": "claimDailyMinted",
      "outputs": [],
      "stateMutability": "nonpayable",
      "type": "function"
    },
    {
      "inputs": [],
      "name": "claimDailySpent",
      "outputs": [],
      "stateMutability": "nonpayable",
      "type": "function"
    },
    {
      "inputs": [],
      "name": "crowns",
      "outputs": [
        {
          "internalType": "contract CrownsToken",
          "name": "",
          "type": "address"
        }
      ],
      "stateMutability": "view",
      "type": "function",
      "constant": true
    },
    {
      "inputs": [
        {
          "internalType": "uint256",
          "name": "_sessionId",
          "type": "uint256"
        }
      ],
      "name": "isActive",
      "outputs": [
        {
          "internalType": "bool",
          "name": "",
          "type": "bool"
        }
      ],
      "stateMutability": "view",
      "type": "function",
      "constant": true
    },
    {
      "inputs": [],
      "name": "lastSessionId",
      "outputs": [
        {
          "internalType": "uint256",
          "name": "",
          "type": "uint256"
        }
      ],
      "stateMutability": "view",
      "type": "function",
      "constant": true
    },
    {
      "inputs": [],
      "name": "minSpend",
      "outputs": [
        {
          "internalType": "uint256",
          "name": "",
          "type": "uint256"
        }
      ],
      "stateMutability": "view",
      "type": "function",
      "constant": true
    },
    {
      "inputs": [
        {
          "internalType": "address",
          "name": "",
          "type": "address"
        }
      ],
      "name": "mintedAllTimeClaimables",
      "outputs": [
        {
          "internalType": "uint256",
          "name": "",
          "type": "uint256"
        }
      ],
      "stateMutability": "view",
      "type": "function",
      "constant": true
    },
    {
      "inputs": [
        {
          "internalType": "uint256",
          "name": "",
          "type": "uint256"
        }
      ],
      "name": "mintedAllTimePrizes",
      "outputs": [
        {
          "internalType": "uint256",
          "name": "",
          "type": "uint256"
        }
      ],
      "stateMutability": "view",
      "type": "function",
      "constant": true
    },
    {
      "inputs": [
        {
          "internalType": "address",
          "name": "",
          "type": "address"
        }
      ],
      "name": "mintedDailyClaimables",
      "outputs": [
        {
          "internalType": "uint256",
          "name": "",
          "type": "uint256"
        }
      ],
      "stateMutability": "view",
      "type": "function",
      "constant": true
    },
    {
      "inputs": [
        {
          "internalType": "uint256",
          "name": "",
          "type": "uint256"
        }
      ],
      "name": "mintedDailyPrizes",
      "outputs": [
        {
          "internalType": "uint256",
          "name": "",
          "type": "uint256"
        }
      ],
      "stateMutability": "view",
      "type": "function",
      "constant": true
    },
    {
      "inputs": [],
      "name": "owner",
      "outputs": [
        {
          "internalType": "address",
          "name": "",
          "type": "address"
        }
      ],
      "stateMutability": "view",
      "type": "function",
      "constant": true
    },
    {
      "inputs": [],
      "name": "renounceOwnership",
      "outputs": [],
      "stateMutability": "nonpayable",
      "type": "function"
    },
    {
      "inputs": [
        {
          "internalType": "uint256",
          "name": "",
          "type": "uint256"
        }
      ],
      "name": "sessions",
      "outputs": [
        {
          "internalType": "uint256",
          "name": "interval",
          "type": "uint256"
        },
        {
          "internalType": "uint256",
          "name": "period",
          "type": "uint256"
        },
        {
          "internalType": "uint256",
          "name": "startTime",
          "type": "uint256"
        },
        {
          "internalType": "uint256",
          "name": "generation",
          "type": "uint256"
        }
      ],
      "stateMutability": "view",
      "type": "function",
      "constant": true
    },
    {
      "inputs": [
        {
          "internalType": "uint256[10]",
          "name": "_spentDaily",
          "type": "uint256[10]"
        },
        {
          "internalType": "uint256[10]",
          "name": "_spentAllTime",
          "type": "uint256[10]"
        },
        {
          "internalType": "uint256[10]",
          "name": "_mintedDaily",
          "type": "uint256[10]"
        },
        {
          "internalType": "uint256[10]",
          "name": "_mintedAllTime",
          "type": "uint256[10]"
        }
      ],
      "name": "setPrizes",
      "outputs": [],
      "stateMutability": "nonpayable",
      "type": "function"
    },
    {
      "inputs": [
        {
          "internalType": "address",
          "name": "",
          "type": "address"
        }
      ],
      "name": "spentAllTimeClaimables",
      "outputs": [
        {
          "internalType": "uint256",
          "name": "",
          "type": "uint256"
        }
      ],
      "stateMutability": "view",
      "type": "function",
      "constant": true
    },
    {
      "inputs": [
        {
          "internalType": "uint256",
          "name": "",
          "type": "uint256"
        }
      ],
      "name": "spentAllTimePrizes",
      "outputs": [
        {
          "internalType": "uint256",
          "name": "",
          "type": "uint256"
        }
      ],
      "stateMutability": "view",
      "type": "function",
      "constant": true
    },
    {
      "inputs": [
        {
          "internalType": "address",
          "name": "",
          "type": "address"
        }
      ],
      "name": "spentDailyClaimables",
      "outputs": [
        {
          "internalType": "uint256",
          "name": "",
          "type": "uint256"
        }
      ],
      "stateMutability": "view",
      "type": "function",
      "constant": true
    },
    {
      "inputs": [
        {
          "internalType": "uint256",
          "name": "",
          "type": "uint256"
        }
      ],
      "name": "spentDailyPrizes",
      "outputs": [
        {
          "internalType": "uint256",
          "name": "",
          "type": "uint256"
        }
      ],
      "stateMutability": "view",
      "type": "function",
      "constant": true
    },
    {
      "inputs": [
        {
          "internalType": "address",
          "name": "newOwner",
          "type": "address"
        }
      ],
      "name": "transferOwnership",
      "outputs": [],
      "stateMutability": "nonpayable",
      "type": "function"
    },
    {
      "inputs": [
        {
          "internalType": "uint256",
          "name": "_interval",
          "type": "uint256"
        },
        {
          "internalType": "uint256",
          "name": "_period",
          "type": "uint256"
        },
        {
          "internalType": "uint256",
          "name": "_startTime",
          "type": "uint256"
        },
        {
          "internalType": "uint256",
          "name": "_generation",
          "type": "uint256"
        }
      ],
      "name": "startSession",
      "outputs": [],
      "stateMutability": "nonpayable",
      "type": "function"
    },
    {
      "inputs": [
        {
          "internalType": "address",
          "name": "_address",
          "type": "address"
        }
      ],
      "name": "setNftFactory",
      "outputs": [],
      "stateMutability": "nonpayable",
      "type": "function"
    },
    {
      "inputs": [
        {
          "internalType": "uint256",
          "name": "_amount",
          "type": "uint256"
        }
      ],
      "name": "setMinSpendAmount",
      "outputs": [],
      "stateMutability": "nonpayable",
      "type": "function"
    },
    {
      "inputs": [
        {
          "internalType": "uint256",
          "name": "_sessionId",
          "type": "uint256"
        },
        {
          "internalType": "uint256",
          "name": "_amount",
          "type": "uint256"
        }
      ],
      "name": "spend",
      "outputs": [],
      "stateMutability": "nonpayable",
      "type": "function"
    },
    {
      "inputs": [
        {
          "internalType": "uint256",
          "name": "_sessionId",
          "type": "uint256"
        },
        {
          "internalType": "uint8",
          "name": "_v",
          "type": "uint8"
        },
        {
          "internalType": "bytes32",
          "name": "_r",
          "type": "bytes32"
        },
        {
          "internalType": "bytes32",
          "name": "_s",
          "type": "bytes32"
        },
        {
          "internalType": "uint8",
          "name": "_quality",
          "type": "uint8"
        }
      ],
      "name": "mint",
      "outputs": [],
      "stateMutability": "nonpayable",
      "type": "function"
    }
  ],
  "bytecode": "0x60806040523480156200001157600080fd5b506040516200475c3803806200475c833981810160405260608110156200003757600080fd5b8101908080519060200190929190805190602001909291908051906020019092919050505060006200006e6200016e60201b60201c565b9050806000806101000a81548173ffffffffffffffffffffffffffffffffffffffff021916908373ffffffffffffffffffffffffffffffffffffffff1602179055508073ffffffffffffffffffffffffffffffffffffffff16600073ffffffffffffffffffffffffffffffffffffffff167f8be0079c531659141344cd1fd0a4f28419497f9722a3daafe3b4186f6b6457e060405160405180910390a35081603160006101000a81548173ffffffffffffffffffffffffffffffffffffffff021916908373ffffffffffffffffffffffffffffffffffffffff1602179055506200015e836200017660201b60201c565b80603281905550505050620001ba565b600033905090565b80600360006101000a81548173ffffffffffffffffffffffffffffffffffffffff021916908373ffffffffffffffffffffffffffffffffffffffff16021790555050565b61459280620001ca6000396000f3fe608060405234801561001057600080fd5b50600436106101da5760003560e01c80638da5cb5b11610104578063b3a49eae116100a2578063cf9f2c2411610071578063cf9f2c2414610a31578063da8d09e714610a3b578063ea5ed05d14610a7d578063f2fde38b14610ac7576101da565b8063b3a49eae14610907578063bc3d82581461093f578063bcabb37314610997578063c02d6f0c146109d9576101da565b806398525b15116100de57806398525b151461089d5780639da0ac1d146108a75780639e5abe5d146108f35780639ea24844146108fd576101da565b80638da5cb5b146107cd57806390b13ca114610817578063976976e51461086f576101da565b8063355d080c1161017c578063672644f61161014b578063672644f6146106ca578063715018a61461072657806382afd23b1461073057806383c4b7a314610776576101da565b8063355d080c146105625780633f05fdfa146105c1578063421653f71461068e57806348dddca8146106ac576101da565b80631f320331116101b85780631f320331146103485780631f7a7fe3146103b15780632e67dfb5146104de5780633184524c14610520576101da565b80630dac9962146101df5780631a2f32dc146102235780631b1e305c146102f0575b600080fd5b610221600480360360208110156101f557600080fd5b81019080803573ffffffffffffffffffffffffffffffffffffffff169060200190929190505050610b0b565b005b6102ee60048036036102e081101561023a57600080fd5b8101908080359060200190929190806101400190600a806020026040519081016040528092919082600a60200280828437600081840152601f19601f8201169050808301925050505050509192919290803560ff169060200190929190806101400190600a806020026040519081016040528092919082600a60200280828437600081840152601f19601f8201169050808301925050505050509192919290803560ff169060200190929190505050610c18565b005b6103326004803603602081101561030657600080fd5b81019080803573ffffffffffffffffffffffffffffffffffffffff169060200190929190505050610cfe565b6040518082815260200191505060405180910390f35b6103946004803603604081101561035e57600080fd5b8101908080359060200190929190803573ffffffffffffffffffffffffffffffffffffffff169060200190929190505050610d16565b604051808381526020018281526020019250505060405180910390f35b6104dc60048036036105008110156103c857600080fd5b81019080806101400190600a806020026040519081016040528092919082600a60200280828437600081840152601f19601f8201169050808301925050505050509192919290806101400190600a806020026040519081016040528092919082600a60200280828437600081840152601f19601f8201169050808301925050505050509192919290806101400190600a806020026040519081016040528092919082600a60200280828437600081840152601f19601f8201169050808301925050505050509192919290806101400190600a806020026040519081016040528092919082600a60200280828437600081840152601f19601f8201169050808301925050505050509192919290505050610d47565b005b61050a600480360360208110156104f457600080fd5b8101908080359060200190929190505050610e5e565b6040518082815260200191505060405180910390f35b61054c6004803603602081101561053657600080fd5b8101908080359060200190929190505050610e76565b6040518082815260200191505060405180910390f35b61058e6004803603602081101561057857600080fd5b8101908080359060200190929190505050610e8e565b60405180851515151581526020018415151515815260200183815260200182815260200194505050505060405180910390f35b61068c60048036036102e08110156105d857600080fd5b8101908080359060200190929190806101400190600a806020026040519081016040528092919082600a60200280828437600081840152601f19601f8201169050808301925050505050509192919290803560ff169060200190929190806101400190600a806020026040519081016040528092919082600a60200280828437600081840152601f19601f8201169050808301925050505050509192919290803560ff169060200190929190505050610ed8565b005b610696610fbe565b6040518082815260200191505060405180910390f35b6106b4610fcf565b6040518082815260200191505060405180910390f35b610724600480360360a08110156106e057600080fd5b8101908080359060200190929190803560ff1690602001909291908035906020019092919080359060200190929190803560ff169060200190929190505050610fd5565b005b61072e611553565b005b61075c6004803603602081101561074657600080fd5b81019080803590602001909291905050506116db565b604051808215151515815260200191505060405180910390f35b6107a26004803603602081101561078c57600080fd5b8101908080359060200190929190505050611726565b6040518085815260200184815260200183815260200182815260200194505050505060405180910390f35b6107d5611756565b604051808273ffffffffffffffffffffffffffffffffffffffff1673ffffffffffffffffffffffffffffffffffffffff16815260200191505060405180910390f35b6108596004803603602081101561082d57600080fd5b81019080803573ffffffffffffffffffffffffffffffffffffffff16906020019092919050505061177f565b6040518082815260200191505060405180910390f35b61089b6004803603602081101561088557600080fd5b8101908080359060200190929190505050611797565b005b6108a561186a565b005b6108f1600480360360808110156108bd57600080fd5b8101908080359060200190929190803590602001909291908035906020019092919080359060200190929190505050611b78565b005b6108fb611cdf565b005b610905611fed565b005b61093d6004803603604081101561091d57600080fd5b8101908080359060200190929190803590602001909291905050506122fb565b005b6109816004803603602081101561095557600080fd5b81019080803573ffffffffffffffffffffffffffffffffffffffff16906020019092919050505061279f565b6040518082815260200191505060405180910390f35b6109c3600480360360208110156109ad57600080fd5b81019080803590602001909291905050506127b7565b6040518082815260200191505060405180910390f35b610a1b600480360360208110156109ef57600080fd5b81019080803573ffffffffffffffffffffffffffffffffffffffff1690602001909291905050506127cf565b6040518082815260200191505060405180910390f35b610a396127e7565b005b610a6760048036036020811015610a5157600080fd5b8101908080359060200190929190505050612af5565b6040518082815260200191505060405180910390f35b610a85612b0d565b604051808273ffffffffffffffffffffffffffffffffffffffff1673ffffffffffffffffffffffffffffffffffffffff16815260200191505060405180910390f35b610b0960048036036020811015610add57600080fd5b81019080803573ffffffffffffffffffffffffffffffffffffffff169060200190929190505050612b33565b005b610b13612d40565b73ffffffffffffffffffffffffffffffffffffffff166000809054906101000a900473ffffffffffffffffffffffffffffffffffffffff1673ffffffffffffffffffffffffffffffffffffffff1614610bd4576040517f08c379a00000000000000000000000000000000000000000000000000000000081526004018080602001828103825260208152602001807f4f776e61626c653a2063616c6c6572206973206e6f7420746865206f776e657281525060200191505060405180910390fd5b80603160006101000a81548173ffffffffffffffffffffffffffffffffffffffff021916908373ffffffffffffffffffffffffffffffffffffffff16021790555050565b610c20612d40565b73ffffffffffffffffffffffffffffffffffffffff166000809054906101000a900473ffffffffffffffffffffffffffffffffffffffff1673ffffffffffffffffffffffffffffffffffffffff1614610ce1576040517f08c379a00000000000000000000000000000000000000000000000000000000081526004018080602001828103825260208152602001807f4f776e61626c653a2063616c6c6572206973206e6f7420746865206f776e657281525060200191505060405180910390fd5b610cec858585612d48565b610cf78583836130ef565b5050505050565b60306020528060005260406000206000915090505481565b6033602052816000526040600020602052806000526040600020600091509150508060000154908060010154905082565b610d4f612d40565b73ffffffffffffffffffffffffffffffffffffffff166000809054906101000a900473ffffffffffffffffffffffffffffffffffffffff1673ffffffffffffffffffffffffffffffffffffffff1614610e10576040517f08c379a00000000000000000000000000000000000000000000000000000000081526004018080602001828103825260208152602001807f4f776e61626c653a2063616c6c6572206973206e6f7420746865206f776e657281525060200191505060405180910390fd5b83600590600a610e21929190614273565b5082600f90600a610e33929190614273565b5081601990600a610e45929190614273565b5080602390600a610e57929190614273565b5050505050565b601981600a8110610e6b57fe5b016000915090505481565b602381600a8110610e8357fe5b016000915090505481565b60046020528060005260406000206000915090508060000160009054906101000a900460ff16908060000160019054906101000a900460ff16908060010154908060020154905084565b610ee0612d40565b73ffffffffffffffffffffffffffffffffffffffff166000809054906101000a900473ffffffffffffffffffffffffffffffffffffffff1673ffffffffffffffffffffffffffffffffffffffff1614610fa1576040517f08c379a00000000000000000000000000000000000000000000000000000000081526004018080602001828103825260208152602001807f4f776e61626c653a2063616c6c6572206973206e6f7420746865206f776e657281525060200191505060405180910390fd5b610fac858585613518565b610fb7858383613924565b5050505050565b6000610fca6001613d4d565b905090565b60325481565b600060026000878152602001908152602001600020905060006033600088815260200190815260200160002060003373ffffffffffffffffffffffffffffffffffffffff1673ffffffffffffffffffffffffffffffffffffffff168152602001908152602001600020905060008160000154116110ba576040517f08c379a000000000000000000000000000000000000000000000000000000000815260040180806020018281038252601e8152602001807f4e465420527573683a204e6f206465706f7369742077617320666f756e64000081525060200191505060405180910390fd5b60606040518060400160405280601c81526020017f19457468657265756d205369676e6564204d6573736167653a0a33320000000081525090506000338360000154846001015487604051602001808573ffffffffffffffffffffffffffffffffffffffff1673ffffffffffffffffffffffffffffffffffffffff1660601b81526014018481526020018381526020018260ff1660ff1660f81b8152600101945050505050604051602081830303815290604052805190602001209050600082826040516020018083805190602001908083835b602083106111b1578051825260208201915060208101905060208303925061118e565b6001836020036101000a0380198251168184511680821785525050505050509050018281526020019250505060405160208183030381529060405280519060200120905060006001828b8b8b60405160008152602001604052604051808581526020018460ff1660ff1681526020018381526020018281526020019450505050506020604051602081039080840390855afa158015611254573d6000803e3d6000fd5b505050602060405103519050611268611756565b73ffffffffffffffffffffffffffffffffffffffff168173ffffffffffffffffffffffffffffffffffffffff16146112eb576040517f08c379a00000000000000000000000000000000000000000000000000000000081526004018080602001828103825260258152602001806144786025913960400191505060405180910390fd5b60008560010154148061131757504261131587600001548760010154613d5b90919063ffffffff16565b105b61136c576040517f08c379a000000000000000000000000000000000000000000000000000000000815260040180806020018281038252604981526020018061449d6049913960600191505060405180910390fd5b6000603160009054906101000a900473ffffffffffffffffffffffffffffffffffffffff1673ffffffffffffffffffffffffffffffffffffffff16635642c51f3389600301548b6040518463ffffffff1660e01b8152600401808473ffffffffffffffffffffffffffffffffffffffff1673ffffffffffffffffffffffffffffffffffffffff1681526020018381526020018260ff1660ff1681526020019350505050602060405180830381600087803b15801561142957600080fd5b505af115801561143d573d6000803e3d6000fd5b505050506040513d602081101561145357600080fd5b81019080805190602001909291905050509050600081116114dc576040517f08c379a00000000000000000000000000000000000000000000000000000000081526004018080602001828103825260208152602001807f4e465420527573683a206661696c656420746f206d696e74206120746f6b656e81525060200191505060405180910390fd5b428660010181905550600086600001819055503373ffffffffffffffffffffffffffffffffffffffff167f25b428dfde728ccfaddad7e29e4ac23c24ed7fd1a6e3e3f91894a9a073f5dfff8d83604051808381526020018281526020019250505060405180910390a2505050505050505050505050565b61155b612d40565b73ffffffffffffffffffffffffffffffffffffffff166000809054906101000a900473ffffffffffffffffffffffffffffffffffffffff1673ffffffffffffffffffffffffffffffffffffffff161461161c576040517f08c379a00000000000000000000000000000000000000000000000000000000081526004018080602001828103825260208152602001807f4f776e61626c653a2063616c6c6572206973206e6f7420746865206f776e657281525060200191505060405180910390fd5b600073ffffffffffffffffffffffffffffffffffffffff166000809054906101000a900473ffffffffffffffffffffffffffffffffffffffff1673ffffffffffffffffffffffffffffffffffffffff167f8be0079c531659141344cd1fd0a4f28419497f9722a3daafe3b4186f6b6457e060405160405180910390a360008060006101000a81548173ffffffffffffffffffffffffffffffffffffffff021916908373ffffffffffffffffffffffffffffffffffffffff160217905550565b6000600260008381526020019081526020016000206001015460026000848152602001908152602001600020600201540142111561171c5760009050611721565b600190505b919050565b60026020528060005260406000206000915090508060000154908060010154908060020154908060030154905084565b60008060009054906101000a900473ffffffffffffffffffffffffffffffffffffffff16905090565b602d6020528060005260406000206000915090505481565b61179f612d40565b73ffffffffffffffffffffffffffffffffffffffff166000809054906101000a900473ffffffffffffffffffffffffffffffffffffffff1673ffffffffffffffffffffffffffffffffffffffff1614611860576040517f08c379a00000000000000000000000000000000000000000000000000000000081526004018080602001828103825260208152602001807f4f776e61626c653a2063616c6c6572206973206e6f7420746865206f776e657281525060200191505060405180910390fd5b8060328190555050565b6000602f6000611878612d40565b73ffffffffffffffffffffffffffffffffffffffff1673ffffffffffffffffffffffffffffffffffffffff1681526020019081526020016000205411611909576040517f08c379a000000000000000000000000000000000000000000000000000000000815260040180806020018281038252602a8152602001806143b1602a913960400191505060405180910390fd5b6000602f6000611917612d40565b73ffffffffffffffffffffffffffffffffffffffff1673ffffffffffffffffffffffffffffffffffffffff16815260200190815260200160002054905060011515600360009054906101000a900473ffffffffffffffffffffffffffffffffffffffff1673ffffffffffffffffffffffffffffffffffffffff1663a9059cbb61199e612d40565b846040518363ffffffff1660e01b8152600401808373ffffffffffffffffffffffffffffffffffffffff1673ffffffffffffffffffffffffffffffffffffffff16815260200182815260200192505050602060405180830381600087803b158015611a0857600080fd5b505af1158015611a1c573d6000803e3d6000fd5b505050506040513d6020811015611a3257600080fd5b8101908080519060200190929190505050151514611a9b576040517f08c379a000000000000000000000000000000000000000000000000000000000815260040180806020018281038252602a815260200180614365602a913960400191505060405180910390fd5b6000602f6000611aa9612d40565b73ffffffffffffffffffffffffffffffffffffffff1673ffffffffffffffffffffffffffffffffffffffff16815260200190815260200160002081905550611aef612d40565b73ffffffffffffffffffffffffffffffffffffffff167f3357c8ce10f059670fd7cfc8aa95ea294bbc03367622f135052807bfc3c7968f8260405180806020018381526020018281038252600c8152602001807f4441494c595f4d494e54454400000000000000000000000000000000000000008152506020019250505060405180910390a250565b611b80612d40565b73ffffffffffffffffffffffffffffffffffffffff166000809054906101000a900473ffffffffffffffffffffffffffffffffffffffff1673ffffffffffffffffffffffffffffffffffffffff1614611c41576040517f08c379a00000000000000000000000000000000000000000000000000000000081526004018080602001828103825260208152602001807f4f776e61626c653a2063616c6c6572206973206e6f7420746865206f776e657281525060200191505060405180910390fd5b6000611c4b610fbe565b1115611cbe5760001515611c65611c60610fbe565b6116db565b151514611cbd576040517f08c379a000000000000000000000000000000000000000000000000000000000815260040180806020018281038252602c815260200180614531602c913960400191505060405180910390fd5b5b6000611ccc85858585613de3565b9050611cd88184613f92565b5050505050565b600060306000611ced612d40565b73ffffffffffffffffffffffffffffffffffffffff1673ffffffffffffffffffffffffffffffffffffffff1681526020019081526020016000205411611d7e576040517f08c379a000000000000000000000000000000000000000000000000000000000815260040180806020018281038252602a8152602001806143b1602a913960400191505060405180910390fd5b600060306000611d8c612d40565b73ffffffffffffffffffffffffffffffffffffffff1673ffffffffffffffffffffffffffffffffffffffff16815260200190815260200160002054905060011515600360009054906101000a900473ffffffffffffffffffffffffffffffffffffffff1673ffffffffffffffffffffffffffffffffffffffff1663a9059cbb611e13612d40565b846040518363ffffffff1660e01b8152600401808373ffffffffffffffffffffffffffffffffffffffff1673ffffffffffffffffffffffffffffffffffffffff16815260200182815260200192505050602060405180830381600087803b158015611e7d57600080fd5b505af1158015611e91573d6000803e3d6000fd5b505050506040513d6020811015611ea757600080fd5b8101908080519060200190929190505050151514611f10576040517f08c379a000000000000000000000000000000000000000000000000000000000815260040180806020018281038252602a815260200180614365602a913960400191505060405180910390fd5b600060306000611f1e612d40565b73ffffffffffffffffffffffffffffffffffffffff1673ffffffffffffffffffffffffffffffffffffffff16815260200190815260200160002081905550611f64612d40565b73ffffffffffffffffffffffffffffffffffffffff167f3357c8ce10f059670fd7cfc8aa95ea294bbc03367622f135052807bfc3c7968f8260405180806020018381526020018281038252600f8152602001807f414c4c5f54494d455f4d494e54454400000000000000000000000000000000008152506020019250505060405180910390a250565b6000602d6000611ffb612d40565b73ffffffffffffffffffffffffffffffffffffffff1673ffffffffffffffffffffffffffffffffffffffff168152602001908152602001600020541161208c576040517f08c379a000000000000000000000000000000000000000000000000000000000815260040180806020018281038252602a8152602001806143b1602a913960400191505060405180910390fd5b6000602d600061209a612d40565b73ffffffffffffffffffffffffffffffffffffffff1673ffffffffffffffffffffffffffffffffffffffff16815260200190815260200160002054905060011515600360009054906101000a900473ffffffffffffffffffffffffffffffffffffffff1673ffffffffffffffffffffffffffffffffffffffff1663a9059cbb612121612d40565b846040518363ffffffff1660e01b8152600401808373ffffffffffffffffffffffffffffffffffffffff1673ffffffffffffffffffffffffffffffffffffffff16815260200182815260200192505050602060405180830381600087803b15801561218b57600080fd5b505af115801561219f573d6000803e3d6000fd5b505050506040513d60208110156121b557600080fd5b810190808051906020019092919050505015151461221e576040517f08c379a000000000000000000000000000000000000000000000000000000000815260040180806020018281038252602a815260200180614365602a913960400191505060405180910390fd5b6000602d600061222c612d40565b73ffffffffffffffffffffffffffffffffffffffff1673ffffffffffffffffffffffffffffffffffffffff16815260200190815260200160002081905550612272612d40565b73ffffffffffffffffffffffffffffffffffffffff167f3357c8ce10f059670fd7cfc8aa95ea294bbc03367622f135052807bfc3c7968f8260405180806020018381526020018281038252600b8152602001807f4441494c595f5350454e540000000000000000000000000000000000000000008152506020019250505060405180910390a250565b603254811015612356576040517f08c379a00000000000000000000000000000000000000000000000000000000081526004018080602001828103825260438152602001806143db6043913960600191505060405180910390fd5b600082116123af576040517f08c379a000000000000000000000000000000000000000000000000000000000815260040180806020018281038252602581526020018061450c6025913960400191505060405180910390fd5b6123b8826116db565b61242a576040517f08c379a000000000000000000000000000000000000000000000000000000000815260040180806020018281038252601d8152602001807f4e465420527573683a2053657373696f6e2069732066696e697368656400000081525060200191505060405180910390fd5b80600360009054906101000a900473ffffffffffffffffffffffffffffffffffffffff1673ffffffffffffffffffffffffffffffffffffffff166370a08231336040518263ffffffff1660e01b8152600401808273ffffffffffffffffffffffffffffffffffffffff1673ffffffffffffffffffffffffffffffffffffffff16815260200191505060206040518083038186803b1580156124ca57600080fd5b505afa1580156124de573d6000803e3d6000fd5b505050506040513d60208110156124f457600080fd5b8101908080519060200190929190505050101561255c576040517f08c379a000000000000000000000000000000000000000000000000000000000815260040180806020018281038252602d81526020018061441e602d913960400191505060405180910390fd5b60011515600360009054906101000a900473ffffffffffffffffffffffffffffffffffffffff1673ffffffffffffffffffffffffffffffffffffffff16636aade28833846040518363ffffffff1660e01b8152600401808373ffffffffffffffffffffffffffffffffffffffff1673ffffffffffffffffffffffffffffffffffffffff16815260200182815260200192505050602060405180830381600087803b15801561260957600080fd5b505af115801561261d573d6000803e3d6000fd5b505050506040513d602081101561263357600080fd5b81019080805190602001909291905050501515146126b9576040517f08c379a000000000000000000000000000000000000000000000000000000000815260040180806020018281038252601d8152602001807f4e465420527573683a204661696c656420746f207370656e642043575300000081525060200191505060405180910390fd5b60006033600084815260200190815260200160002060003373ffffffffffffffffffffffffffffffffffffffff1673ffffffffffffffffffffffffffffffffffffffff1681526020019081526020016000209050612724828260000154613d5b90919063ffffffff16565b81600001819055503373ffffffffffffffffffffffffffffffffffffffff167fe8591e9373e8c4801ffc5bb031277889e3e771aee8c55961028bfc65728c9ba98483600001548460010154866040518085815260200184815260200183815260200182815260200194505050505060405180910390a2505050565b602f6020528060005260406000206000915090505481565b600581600a81106127c457fe5b016000915090505481565b602e6020528060005260406000206000915090505481565b6000602e60006127f5612d40565b73ffffffffffffffffffffffffffffffffffffffff1673ffffffffffffffffffffffffffffffffffffffff1681526020019081526020016000205411612886576040517f08c379a000000000000000000000000000000000000000000000000000000000815260040180806020018281038252602a8152602001806143b1602a913960400191505060405180910390fd5b6000602e6000612894612d40565b73ffffffffffffffffffffffffffffffffffffffff1673ffffffffffffffffffffffffffffffffffffffff16815260200190815260200160002054905060011515600360009054906101000a900473ffffffffffffffffffffffffffffffffffffffff1673ffffffffffffffffffffffffffffffffffffffff1663a9059cbb61291b612d40565b846040518363ffffffff1660e01b8152600401808373ffffffffffffffffffffffffffffffffffffffff1673ffffffffffffffffffffffffffffffffffffffff16815260200182815260200192505050602060405180830381600087803b15801561298557600080fd5b505af1158015612999573d6000803e3d6000fd5b505050506040513d60208110156129af57600080fd5b8101908080519060200190929190505050151514612a18576040517f08c379a000000000000000000000000000000000000000000000000000000000815260040180806020018281038252602a815260200180614365602a913960400191505060405180910390fd5b6000602e6000612a26612d40565b73ffffffffffffffffffffffffffffffffffffffff1673ffffffffffffffffffffffffffffffffffffffff16815260200190815260200160002081905550612a6c612d40565b73ffffffffffffffffffffffffffffffffffffffff167f3357c8ce10f059670fd7cfc8aa95ea294bbc03367622f135052807bfc3c7968f8260405180806020018381526020018281038252600e8152602001807f414c4c5f54494d455f5350454e540000000000000000000000000000000000008152506020019250505060405180910390a250565b600f81600a8110612b0257fe5b016000915090505481565b600360009054906101000a900473ffffffffffffffffffffffffffffffffffffffff1681565b612b3b612d40565b73ffffffffffffffffffffffffffffffffffffffff166000809054906101000a900473ffffffffffffffffffffffffffffffffffffffff1673ffffffffffffffffffffffffffffffffffffffff1614612bfc576040517f08c379a00000000000000000000000000000000000000000000000000000000081526004018080602001828103825260208152602001807f4f776e61626c653a2063616c6c6572206973206e6f7420746865206f776e657281525060200191505060405180910390fd5b600073ffffffffffffffffffffffffffffffffffffffff168173ffffffffffffffffffffffffffffffffffffffff161415612c82576040517f08c379a00000000000000000000000000000000000000000000000000000000081526004018080602001828103825260268152602001806143136026913960400191505060405180910390fd5b8073ffffffffffffffffffffffffffffffffffffffff166000809054906101000a900473ffffffffffffffffffffffffffffffffffffffff1673ffffffffffffffffffffffffffffffffffffffff167f8be0079c531659141344cd1fd0a4f28419497f9722a3daafe3b4186f6b6457e060405160405180910390a3806000806101000a81548173ffffffffffffffffffffffffffffffffffffffff021916908373ffffffffffffffffffffffffffffffffffffffff16021790555050565b600033905090565b612d50612d40565b73ffffffffffffffffffffffffffffffffffffffff166000809054906101000a900473ffffffffffffffffffffffffffffffffffffffff1673ffffffffffffffffffffffffffffffffffffffff1614612e11576040517f08c379a00000000000000000000000000000000000000000000000000000000081526004018080602001828103825260208152602001807f4f776e61626c653a2063616c6c6572206973206e6f7420746865206f776e657281525060200191505060405180910390fd5b600a8160ff161115612e6e576040517f08c379a000000000000000000000000000000000000000000000000000000000815260040180806020018281038252602d81526020018061444b602d913960400191505060405180910390fd5b60008160ff1611156130e1576000612e8a60058360ff16614027565b905060011515600360009054906101000a900473ffffffffffffffffffffffffffffffffffffffff1673ffffffffffffffffffffffffffffffffffffffff166323b872dd612ed6611756565b30856040518463ffffffff1660e01b8152600401808473ffffffffffffffffffffffffffffffffffffffff1673ffffffffffffffffffffffffffffffffffffffff1681526020018373ffffffffffffffffffffffffffffffffffffffff1673ffffffffffffffffffffffffffffffffffffffff1681526020018281526020019350505050602060405180830381600087803b158015612f7457600080fd5b505af1158015612f88573d6000803e3d6000fd5b505050506040513d6020811015612f9e57600080fd5b8101908080519060200190929190505050151514613007576040517f08c379a000000000000000000000000000000000000000000000000000000000815260040180806020018281038252602c815260200180614339602c913960400191505060405180910390fd5b60008090505b8260ff168110156130de5760008482600a811061302657fe5b6020020151905061308d600583600a811061303d57fe5b0154602d60008473ffffffffffffffffffffffffffffffffffffffff1673ffffffffffffffffffffffffffffffffffffffff16815260200190815260200160002054613d5b90919063ffffffff16565b602d60008373ffffffffffffffffffffffffffffffffffffffff1673ffffffffffffffffffffffffffffffffffffffff1681526020019081526020016000208190555050808060010191505061300d565b50505b6130ea83614076565b505050565b6130f7612d40565b73ffffffffffffffffffffffffffffffffffffffff166000809054906101000a900473ffffffffffffffffffffffffffffffffffffffff1673ffffffffffffffffffffffffffffffffffffffff16146131b8576040517f08c379a00000000000000000000000000000000000000000000000000000000081526004018080602001828103825260208152602001807f4f776e61626c653a2063616c6c6572206973206e6f7420746865206f776e657281525060200191505060405180910390fd5b600115156131c5846140a9565b15151461321d576040517f08c379a000000000000000000000000000000000000000000000000000000000815260040180806020018281038252602281526020018061438f6022913960400191505060405180910390fd5b600a8160ff161115613297576040517f08c379a000000000000000000000000000000000000000000000000000000000815260040180806020018281038252601a8152602001807f4e465420527573683a20746f6f206d616e792077696e6e65727300000000000081525060200191505060405180910390fd5b60008160ff16111561350a5760006132b360198360ff16614027565b905060011515600360009054906101000a900473ffffffffffffffffffffffffffffffffffffffff1673ffffffffffffffffffffffffffffffffffffffff166323b872dd6132ff611756565b30856040518463ffffffff1660e01b8152600401808473ffffffffffffffffffffffffffffffffffffffff1673ffffffffffffffffffffffffffffffffffffffff1681526020018373ffffffffffffffffffffffffffffffffffffffff1673ffffffffffffffffffffffffffffffffffffffff1681526020018281526020019350505050602060405180830381600087803b15801561339d57600080fd5b505af11580156133b1573d6000803e3d6000fd5b505050506040513d60208110156133c757600080fd5b8101908080519060200190929190505050151514613430576040517f08c379a000000000000000000000000000000000000000000000000000000000815260040180806020018281038252602c815260200180614339602c913960400191505060405180910390fd5b60008090505b8260ff168110156135075760008482600a811061344f57fe5b602002015190506134b6601983600a811061346657fe5b0154602f60008473ffffffffffffffffffffffffffffffffffffffff1673ffffffffffffffffffffffffffffffffffffffff16815260200190815260200160002054613d5b90919063ffffffff16565b602f60008373ffffffffffffffffffffffffffffffffffffffff1673ffffffffffffffffffffffffffffffffffffffff16815260200190815260200160002081905550508080600101915050613436565b50505b613513836140e0565b505050565b613520612d40565b73ffffffffffffffffffffffffffffffffffffffff166000809054906101000a900473ffffffffffffffffffffffffffffffffffffffff1673ffffffffffffffffffffffffffffffffffffffff16146135e1576040517f08c379a00000000000000000000000000000000000000000000000000000000081526004018080602001828103825260208152602001807f4f776e61626c653a2063616c6c6572206973206e6f7420746865206f776e657281525060200191505060405180910390fd5b600115156135ee84614113565b151514613646576040517f08c379a000000000000000000000000000000000000000000000000000000000815260040180806020018281038252603a8152602001806142d9603a913960400191505060405180910390fd5b600a8160ff1611156136a3576040517f08c379a000000000000000000000000000000000000000000000000000000000815260040180806020018281038252602d81526020018061444b602d913960400191505060405180910390fd5b60008160ff1611156139165760006136bf600f8360ff16614027565b905060011515600360009054906101000a900473ffffffffffffffffffffffffffffffffffffffff1673ffffffffffffffffffffffffffffffffffffffff166323b872dd61370b611756565b30856040518463ffffffff1660e01b8152600401808473ffffffffffffffffffffffffffffffffffffffff1673ffffffffffffffffffffffffffffffffffffffff1681526020018373ffffffffffffffffffffffffffffffffffffffff1673ffffffffffffffffffffffffffffffffffffffff1681526020018281526020019350505050602060405180830381600087803b1580156137a957600080fd5b505af11580156137bd573d6000803e3d6000fd5b505050506040513d60208110156137d357600080fd5b810190808051906020019092919050505015151461383c576040517f08c379a000000000000000000000000000000000000000000000000000000000815260040180806020018281038252602c815260200180614339602c913960400191505060405180910390fd5b60008090505b8260ff168110156139135760008482600a811061385b57fe5b602002015190506138c2600f83600a811061387257fe5b0154602e60008473ffffffffffffffffffffffffffffffffffffffff1673ffffffffffffffffffffffffffffffffffffffff16815260200190815260200160002054613d5b90919063ffffffff16565b602e60008373ffffffffffffffffffffffffffffffffffffffff1673ffffffffffffffffffffffffffffffffffffffff16815260200190815260200160002081905550508080600101915050613842565b50505b61391f83614186565b505050565b61392c612d40565b73ffffffffffffffffffffffffffffffffffffffff166000809054906101000a900473ffffffffffffffffffffffffffffffffffffffff1673ffffffffffffffffffffffffffffffffffffffff16146139ed576040517f08c379a00000000000000000000000000000000000000000000000000000000081526004018080602001828103825260208152602001807f4f776e61626c653a2063616c6c6572206973206e6f7420746865206f776e657281525060200191505060405180910390fd5b600015156139fa846141b8565b151514613a52576040517f08c379a00000000000000000000000000000000000000000000000000000000081526004018080602001828103825260268152602001806144e66026913960400191505060405180910390fd5b600a8160ff161115613acc576040517f08c379a000000000000000000000000000000000000000000000000000000000815260040180806020018281038252601a8152602001807f4e465420527573683a20746f6f206d616e792077696e6e65727300000000000081525060200191505060405180910390fd5b60008160ff161115613d3f576000613ae860238360ff16614027565b905060011515600360009054906101000a900473ffffffffffffffffffffffffffffffffffffffff1673ffffffffffffffffffffffffffffffffffffffff166323b872dd613b34611756565b30856040518463ffffffff1660e01b8152600401808473ffffffffffffffffffffffffffffffffffffffff1673ffffffffffffffffffffffffffffffffffffffff1681526020018373ffffffffffffffffffffffffffffffffffffffff1673ffffffffffffffffffffffffffffffffffffffff1681526020018281526020019350505050602060405180830381600087803b158015613bd257600080fd5b505af1158015613be6573d6000803e3d6000fd5b505050506040513d6020811015613bfc57600080fd5b8101908080519060200190929190505050151514613c65576040517f08c379a000000000000000000000000000000000000000000000000000000000815260040180806020018281038252602c815260200180614339602c913960400191505060405180910390fd5b60008090505b8260ff16811015613d3c5760008482600a8110613c8457fe5b60200201519050613ceb602383600a8110613c9b57fe5b0154603060008473ffffffffffffffffffffffffffffffffffffffff1673ffffffffffffffffffffffffffffffffffffffff16815260200190815260200160002054613d5b90919063ffffffff16565b603060008373ffffffffffffffffffffffffffffffffffffffff1673ffffffffffffffffffffffffffffffffffffffff16815260200190815260200160002081905550508080600101915050613c6b565b50505b613d488361422b565b505050565b600081600001549050919050565b600080828401905083811015613dd9576040517f08c379a000000000000000000000000000000000000000000000000000000000815260040180806020018281038252601b8152602001807f536166654d6174683a206164646974696f6e206f766572666c6f77000000000081525060200191505060405180910390fd5b8091505092915050565b6000613ded612d40565b73ffffffffffffffffffffffffffffffffffffffff166000809054906101000a900473ffffffffffffffffffffffffffffffffffffffff1673ffffffffffffffffffffffffffffffffffffffff1614613eae576040517f08c379a00000000000000000000000000000000000000000000000000000000081526004018080602001828103825260208152602001807f4f776e61626c653a2063616c6c6572206973206e6f7420746865206f776e657281525060200191505060405180910390fd5b613eb8600161425d565b6000613ec46001613d4d565b905060405180608001604052808781526020018681526020018581526020018481525060026000838152602001908152602001600020600082015181600001556020820151816001015560408201518160020155606082015181600301559050507f5dc1f72d9d4fb1e826e6f5c291a6eb1942b9825fe2802bb9ec05563c01aad8868185613f5b8888613d5b90919063ffffffff16565b866040518085815260200184815260200183815260200182815260200194505050505060405180910390a180915050949350505050565b6040518060800160405280600015158152602001600015158152602001828152602001828152506004600084815260200190815260200160002060008201518160000160006101000a81548160ff02191690831515021790555060208201518160000160016101000a81548160ff02191690831515021790555060408201518160010155606082015181600201559050505050565b6000806000905060008090505b8381101561406b5761405c8582600a811061404b57fe5b015483613d5b90919063ffffffff16565b91508080600101915050614034565b508091505092915050565b61408c6201518042613d5b90919063ffffffff16565b600460008381526020019081526020016000206001018190555050565b60006140d7620151806004600085815260200190815260200160002060020154613d5b90919063ffffffff16565b42109050919050565b6140f66201518042613d5b90919063ffffffff16565b600460008381526020019081526020016000206002018190555050565b60008060026000848152602001908152602001600020905060001515614138846116db565b151514801561414b575060008160020154115b801561417e5750600015156004600085815260200190815260200160002060000160009054906101000a900460ff161515145b915050919050565b60016004600083815260200190815260200160002060000160006101000a81548160ff02191690831515021790555050565b600080600260008481526020019081526020016000209050600015156141dd846116db565b15151480156141f0575060008160020154115b80156142235750600015156004600085815260200190815260200160002060000160019054906101000a900460ff161515145b915050919050565b60016004600083815260200190815260200160002060000160016101000a81548160ff02191690831515021790555050565b6001816000016000828254019250508190555050565b82600a81019282156142a2579160200282015b828111156142a1578251825591602001919060010190614286565b5b5090506142af91906142b3565b5090565b6142d591905b808211156142d15760008160009055506001016142b9565b5090565b9056fe4e465420527573683a20616c6c2074696d652077696e6e6572732073657420616c7265616479206f7220746f6f206561726c7920746f207365744f776e61626c653a206e6577206f776e657220697320746865207a65726f20616464726573734e465420527573683a206e6f7420656e6f7567682043575320746f20676976652061732061207265776172644e465420527573683a206661696c656420746f207472616e736665722043575320746f2077696e6e65724e465420527573683a20616c726561647920736574206f7220746f6f206561726c794e465420527573683a206e6f20636c61696d61626c652043575320666f72206c6561646572626f6172644e465420527573683a20416d6f756e74206f662043575320746f207370656e642073686f756c642062652067726561746572207468616e206d696e206465706f7369744e465420527573683a204e6f7420656e6f7567682043575320746f207370656e6420696e207468652067616d654e465420527573683a20657863656564656420706f737369626c6520616d6f756e74206f662077696e6e6572734e465420527573683a205175616c69747920766572696669636174696f6e206661696c65644e465420527573683a20546865206c6f636b696e6720696e74657276616c2077657265206e6f74207061737365642073696e636520746865206c617374206d696e7465642074696d654e465420527573683a20616c6c2074696d652077696e6e6572732073657420616c72656164794e465420527573683a2053657373696f6e206973206e6f74207374617274656420796574214e465420527573683a2043616e2774207374617274207768656e2073657373696f6e20697320616374697665a2646970667358221220caf548791ca81217dba9030e3d43f03421a653c33f9e5491b012d9534d0e976264736f6c63430006070033",
  "immutableReferences": {},
  "source": "pragma solidity 0.6.7;\r\n\r\nimport \"./../openzeppelin/contracts/access/Ownable.sol\";\r\nimport \"./../openzeppelin/contracts/math/SafeMath.sol\";\r\nimport \"./../openzeppelin/contracts/utils/Counters.sol\";\r\nimport \"./../seascape_nft/NftTypes.sol\";\r\nimport \"./../seascape_nft/NftFactory.sol\";\r\nimport \"./Crowns.sol\";\r\nimport \"./Leaderboard.sol\";\r\nimport \"./GameSession.sol\";\r\n\r\n/// @title Nft Rush a game on seascape platform allowing to earn Nft by spending crowns\r\n/// @notice Game comes with Leaderboard located on it's on Solidity file.\r\n/// @author Medet Ahmetson\r\ncontract NftRush is Ownable, GameSession, Crowns, Leaderboard {\r\n    using SafeMath for uint256;\r\n    using Counters for Counters.Counter;\r\n    using NftTypes for NftTypes;\r\n\r\n    /// @notice to mint nft, using nft factory\r\n    NftFactory nftFactory;    \r\n\r\n    /// @notice minimum CWS amount to spend in game.\r\n    /// @dev in WEI format.\r\n    uint256 public minSpend;\r\n    \r\n    struct Balance {\r\n\tuint256 amount;\r\n\tuint256 mintedTime;\r\n    }\r\n\r\n    /// @notice Tracking player balance within game session.\r\n    /// @dev session id -> wallet address -> Balance struct\r\n    mapping(uint256 => mapping(address => Balance)) public balances;\r\n\r\n    event Spent(address indexed owner, uint256 sessionId,\r\n\t\tuint256 balanceAmount, uint256 prevMintedTime, uint256 amount);\r\n    event Minted(address indexed owner, uint256 sessionId, uint256 nftId);\r\n\r\n\r\n    constructor(address _crowns, address _factory, uint256 _minSpend) public {\r\n\tnftFactory = NftFactory(_factory);\r\n\r\n\t/// @dev set crowns is defined in Crowns.sol\r\n\tsetCrowns(_crowns);\t\t\r\n\r\n\tminSpend = _minSpend;\r\n    }\r\n\r\n    \r\n    //--------------------------------------------------\r\n    // Only owner\r\n    //--------------------------------------------------\r\n\r\n    /** \r\n     *  @notice Starts a staking session for a finite period of time.\r\n     *  And activated in certain period.\r\n     *\r\n     *  @param _interval duration between claims of Nft\r\n     *  @param _period session duration\r\n     *  @param _startTime session start time in unix timestamp\r\n     *  @param _generation Seascape Nft generation that is given as a reward\r\n     *\r\n     *  Emits an {SessionStarted} event.  \r\n     *\r\n     *  Requirements:\r\n     *\r\n     *  - if some other session was launched before, that session should be ended.\r\n     */\r\n    function startSession(uint256 _interval, uint256 _period,\r\n\t\t\t  uint256 _startTime, uint256 _generation) external onlyOwner {\r\n\tif (lastSessionId() > 0) {\r\n\t    require(isActive(lastSessionId())==false,\r\n\t\t    \"NFT Rush: Can't start when session is active\");\r\n\t}\r\n\r\n\tuint256 _sessionId = _startSession(_interval, _period, _startTime, _generation);\r\n\t\r\n\tannounceLeaderboard(_sessionId, _startTime);\r\n    }\r\n\r\n    \r\n    /** \r\n     *  @notice Sets NFT factory that will mint a token for stakers\r\n     *\r\n     *  @param _address a new Address of Nft Factory\r\n     */\r\n    function setNftFactory(address _address) external onlyOwner {\r\n\tnftFactory = NftFactory(_address);\r\n    }\r\n\r\n    /**\r\n     *  @notice minimum amount of Crowns that players could spend\r\n     *\r\n     *  @param _amount a new minimal spending amount in WEI\r\n     */\r\n    function setMinSpendAmount(uint256 _amount) external onlyOwner {\r\n\tminSpend = _amount;\r\n    }\r\n\r\n    //--------------------------------------------------\r\n    // Only game user\r\n    //--------------------------------------------------\r\n\r\n    /**\r\n     *  @notice Spend some crowns through game contract\r\n     *  The more player spends, the higher the chance of getting high quality NFT.\r\n     *\r\n     *  Emits a {Spent} event.\r\n     *\r\n     *  @param _sessionId a session id\r\n     *  @param _amount amount of CWS to spend\r\n     *\r\n     *  Requirements:\r\n     *\r\n     *  - `_amount` must be atleast equal to `minSpend`\r\n     *  - `_sessionId` must be greater than 0\r\n     *  - session of `_sessionId` must be active\r\n     *  - The spender should have `amount` of Crowns\r\n     *  - Spending of Crowns must be successfull. Fails, if not granted a permission\r\n     */\r\n    function spend(uint256 _sessionId, uint256 _amount) external {\r\n\trequire(_amount >= minSpend,\r\n\t\t\"NFT Rush: Amount of CWS to spend should be greater than min deposit\");\r\n\trequire(_sessionId > 0,\r\n\t\t\"NFT Rush: Session is not started yet!\");\r\n\trequire(isActive(_sessionId),\r\n\t\t\"NFT Rush: Session is finished\");\r\n\trequire(crowns.balanceOf(msg.sender) >= _amount,\r\n\t\t\"NFT Rush: Not enough CWS to spend in the game\");\r\n\trequire(crowns.spendFrom(msg.sender, _amount) == true,\r\n\t\t\"NFT Rush: Failed to spend CWS\");\r\n\r\n\tBalance storage _balance  = balances[_sessionId][msg.sender];\r\n\r\n\t_balance.amount = _balance.amount.add(_amount);\r\n\t\r\n        emit Spent(msg.sender, _sessionId, _balance.amount, _balance.mintedTime, _amount);\r\n    }\r\n\r\n\r\n    /**\r\n     *  @notice mints Nft of {_quality}.\r\n     *  @dev The Quality of Nft is determined by centralized server. \r\n     *  As a proof centrlized server returns a signature\r\n     *  to validate the quality\r\n     *\r\n     *  Emits a {Minted} event.\r\n     *\r\n     *  @param _sessionId a game session\r\n     *  @param _v part of signature of message\r\n     *  @param _r part of signature of message\r\n     *  @param _s part of signature of message\r\n     *  @param _quality a quality of minted token\r\n     *\r\n     *  Requirements:\r\n     *\r\n     *  - `balances[_sessionId][msg.sender].amount` must ge greater than 0.\r\n     *  - Quality signer's address should match to this contract' owner's address\r\n     *  - Player should mint it first time, or if not, then locking interval should be passed\r\n     *  - Nft Factory should return Nft id of successfully minted token\r\n     */\r\n    function mint(uint256 _sessionId,\r\n\t\t  uint8 _v, bytes32 _r, bytes32 _s, uint8 _quality) public {\r\n\tSession storage _session = sessions[_sessionId];\r\n\tBalance storage _balance = balances[_sessionId][msg.sender];\r\n\r\n\trequire(_balance.amount > 0,\r\n\t\t\"NFT Rush: No deposit was found\");\r\n\r\n\t/// Validation of quality\r\n\t/// message is generated as owner + amount + last time stamp + quality\r\n\r\n\tbytes memory _prefix = \"\\x19Ethereum Signed Message:\\n32\";\r\n\tbytes32 _messageNoPrefix =\r\n\t    keccak256(abi.encodePacked(msg.sender,\r\n\t\t\t\t       _balance.amount,\r\n\t\t\t\t       _balance.mintedTime,\r\n\t\t\t\t       _quality)\r\n\t\t      );\r\n\tbytes32 _message = keccak256(abi.encodePacked(_prefix, _messageNoPrefix));\r\n\taddress _recover = ecrecover(_message, _v, _r, _s);\r\n\r\n\trequire(_recover == owner(),\r\n\t\t\"NFT Rush: Quality verification failed\");\r\n\r\n\trequire(_balance.mintedTime == 0 ||\r\n\t\t(_balance.mintedTime.add(_session.interval) < block.timestamp),\r\n\t\t\"NFT Rush: The locking interval were not passed since the last minted time\");\r\n\t\r\n        uint256 _tokenId = nftFactory.mintQuality(msg.sender, _session.generation, _quality);\r\n\trequire(_tokenId > 0,\r\n\t\t\"NFT Rush: failed to mint a token\");\r\n\t\r\n\t_balance.mintedTime = block.timestamp;\r\n\t_balance.amount = 0;\r\n\r\n\temit Minted(msg.sender, _sessionId, _tokenId);\r\n    }\r\n}\r\n",
  "sourcePath": "/home/node/app/contracts/game_2/NftRush.sol",
  "compiler": {
    "name": "solc",
    "version": "0.6.7+commit.b8d736ae.Emscripten.clang"
  },
  "schemaVersion": "3.3.1",
  "updatedAt": "2021-02-03T05:18:07.532Z",
  "networkType": "ethereum",
  "devdoc": {
    "author": "Medet Ahmetson",
    "methods": {
      "mint(uint256,uint8,bytes32,bytes32,uint8)": {
        "details": "The Quality of Nft is determined by centralized server.  As a proof centrlized server returns a signature to validate the quality      *  Emits a {Minted} event. ",
        "params": {
          "_quality": "a quality of minted token      *  Requirements:      *  - `balances[_sessionId][msg.sender].amount` must ge greater than 0. - Quality signer's address should match to this contract' owner's address - Player should mint it first time, or if not, then locking interval should be passed - Nft Factory should return Nft id of successfully minted token",
          "_r": "part of signature of message",
          "_s": "part of signature of message",
          "_sessionId": "a game session",
          "_v": "part of signature of message"
        }
      },
      "owner()": {
        "details": "Returns the address of the current owner."
      },
      "renounceOwnership()": {
        "details": "Leaves the contract without owner. It will not be possible to call `onlyOwner` functions anymore. Can only be called by the current owner.     * NOTE: Renouncing ownership will leave the contract without an owner, thereby removing any functionality that is only available to the owner."
      },
      "setMinSpendAmount(uint256)": {
        "params": {
          "_amount": "a new minimal spending amount in WEI"
        }
      },
      "setNftFactory(address)": {
        "params": {
          "_address": "a new Address of Nft Factory"
        }
      },
      "setPrizes(uint256[10],uint256[10],uint256[10],uint256[10])": {
        "params": {
          "_mintedAllTime": "list of prizes for all time top minters",
          "_mintedDaily": "list of prizes for daily top minters",
          "_spentAllTime": "list of prizes for all time top spenders",
          "_spentDaily": "list of prizes for daily top spenders"
        }
      },
      "spend(uint256,uint256)": {
        "params": {
          "_amount": "amount of CWS to spend      *  Requirements:      *  - `_amount` must be atleast equal to `minSpend` - `_sessionId` must be greater than 0 - session of `_sessionId` must be active - The spender should have `amount` of Crowns - Spending of Crowns must be successfull. Fails, if not granted a permission",
          "_sessionId": "a session id"
        }
      },
      "startSession(uint256,uint256,uint256,uint256)": {
        "params": {
          "_generation": "Seascape Nft generation that is given as a reward      *  Emits an {SessionStarted} event.        *  Requirements:      *  - if some other session was launched before, that session should be ended.",
          "_interval": "duration between claims of Nft",
          "_period": "session duration",
          "_startTime": "session start time in unix timestamp"
        }
      },
      "transferOwnership(address)": {
        "details": "Transfers ownership of the contract to a new account (`newOwner`). Can only be called by the current owner."
      }
    },
    "title": "Nft Rush a game on seascape platform allowing to earn Nft by spending crowns"
  },
  "userdoc": {
    "methods": {
      "claimAllTimeMinted()": {
        "notice": "Player can claim leaderboard rewards.      *  Emits a {Rewarded} event.      *  Requirements: \r - `mintedAllTimeClaimables` for player should be greater than 0 - transfer of Crowns from contract balance to player must be successful."
      },
      "claimAllTimeSpent()": {
        "notice": "Player can claim leaderboard rewards.      *  Emits a {Rewarded} event.      *  Requirements: \r - `spentAllTimeClaimables` for player should be greater than 0 - transfer of Crowns from contract balance to player must be successful."
      },
      "claimDailyMinted()": {
        "notice": "Player can claim leaderboard rewards.      *  Emits a {Rewarded} event.      *  Requirements: \r - `mintedDailyClaimables` for player should be greater than 0 - transfer of Crowns from contract balance to player must be successful."
      },
      "claimDailySpent()": {
        "notice": "Player can claim leaderboard rewards.      *  Emits a {Rewarded} event.      *  Requirements: \r - `spentDailyClaimables` for player should be greater than 0 - transfer of Crowns from contract balance to player must be successful."
      },
      "isActive(uint256)": {
        "notice": "Whether the given session is active or not"
      },
      "lastSessionId()": {
        "notice": "The last created session's id      * NOTE!!! It returns 0, if no session was started yet."
      },
      "mint(uint256,uint8,bytes32,bytes32,uint8)": {
        "notice": "mints Nft of {_quality}."
      },
      "setMinSpendAmount(uint256)": {
        "notice": "minimum amount of Crowns that players could spend "
      },
      "setNftFactory(address)": {
        "notice": "Sets NFT factory that will mint a token for stakers "
      },
      "setPrizes(uint256[10],uint256[10],uint256[10],uint256[10])": {
        "notice": "Sets all leaderboard winners prizes at once. "
      },
      "spend(uint256,uint256)": {
        "notice": "Spend some crowns through game contract The more player spends, the higher the chance of getting high quality NFT.      *  Emits a {Spent} event. "
      },
      "startSession(uint256,uint256,uint256,uint256)": {
        "notice": "Starts a staking session for a finite period of time. And activated in certain period. "
      }
    },
    "notice": "Game comes with Leaderboard located on it's on Solidity file."
  }
}