{
  "contractName": "NftRush",
  "abi": [
    {
      "inputs": [
        {
          "internalType": "address",
          "name": "_crowns",
          "type": "address"
        },
        {
          "internalType": "address",
          "name": "_factory",
          "type": "address"
        },
        {
          "internalType": "uint256",
          "name": "_minDeposit",
          "type": "uint256"
        }
      ],
      "stateMutability": "nonpayable",
      "type": "constructor"
    },
    {
      "anonymous": false,
      "inputs": [
        {
          "indexed": true,
          "internalType": "address",
          "name": "owner",
          "type": "address"
        },
        {
          "indexed": false,
          "internalType": "uint256",
          "name": "sessionId",
          "type": "uint256"
        },
        {
          "indexed": false,
          "internalType": "uint256",
          "name": "nftId",
          "type": "uint256"
        }
      ],
      "name": "Minted",
      "type": "event"
    },
    {
      "anonymous": false,
      "inputs": [
        {
          "indexed": true,
          "internalType": "address",
          "name": "previousOwner",
          "type": "address"
        },
        {
          "indexed": true,
          "internalType": "address",
          "name": "newOwner",
          "type": "address"
        }
      ],
      "name": "OwnershipTransferred",
      "type": "event"
    },
    {
      "anonymous": false,
      "inputs": [
        {
          "indexed": true,
          "internalType": "address",
          "name": "owner",
          "type": "address"
        },
        {
          "indexed": false,
          "internalType": "uint256",
          "name": "sessionId",
          "type": "uint256"
        },
        {
          "indexed": false,
          "internalType": "string",
          "name": "rewardType",
          "type": "string"
        },
        {
          "indexed": false,
          "internalType": "uint256",
          "name": "amount",
          "type": "uint256"
        }
      ],
      "name": "Rewarded",
      "type": "event"
    },
    {
      "anonymous": false,
      "inputs": [
        {
          "indexed": false,
          "internalType": "uint256",
          "name": "id",
          "type": "uint256"
        },
        {
          "indexed": false,
          "internalType": "uint256",
          "name": "startTime",
          "type": "uint256"
        },
        {
          "indexed": false,
          "internalType": "uint256",
          "name": "endTime",
          "type": "uint256"
        },
        {
          "indexed": false,
          "internalType": "uint256",
          "name": "generation",
          "type": "uint256"
        }
      ],
      "name": "SessionStarted",
      "type": "event"
    },
    {
      "anonymous": false,
      "inputs": [
        {
          "indexed": true,
          "internalType": "address",
          "name": "owner",
          "type": "address"
        },
        {
          "indexed": false,
          "internalType": "uint256",
          "name": "sessionId",
          "type": "uint256"
        },
        {
          "indexed": false,
          "internalType": "uint256",
          "name": "balanceAmount",
          "type": "uint256"
        },
        {
          "indexed": false,
          "internalType": "uint256",
          "name": "prevMintedTime",
          "type": "uint256"
        },
        {
          "indexed": false,
          "internalType": "uint256",
          "name": "amount",
          "type": "uint256"
        }
      ],
      "name": "Spent",
      "type": "event"
    },
    {
      "inputs": [
        {
          "internalType": "uint256",
          "name": "",
          "type": "uint256"
        },
        {
          "internalType": "address",
          "name": "",
          "type": "address"
        }
      ],
      "name": "balances",
      "outputs": [
        {
          "internalType": "uint256",
          "name": "amount",
          "type": "uint256"
        },
        {
          "internalType": "uint256",
          "name": "mintedTime",
          "type": "uint256"
        }
      ],
      "stateMutability": "view",
      "type": "function",
      "constant": true
    },
    {
      "inputs": [
        {
          "internalType": "uint256",
          "name": "",
          "type": "uint256"
        },
        {
          "internalType": "address",
          "name": "",
          "type": "address"
        }
      ],
      "name": "depositTime",
      "outputs": [
        {
          "internalType": "uint256",
          "name": "",
          "type": "uint256"
        }
      ],
      "stateMutability": "view",
      "type": "function",
      "constant": true
    },
    {
      "inputs": [],
      "name": "lastSessionId",
      "outputs": [
        {
          "internalType": "uint256",
          "name": "",
          "type": "uint256"
        }
      ],
      "stateMutability": "view",
      "type": "function",
      "constant": true
    },
    {
      "inputs": [
        {
          "internalType": "uint256",
          "name": "",
          "type": "uint256"
        }
      ],
      "name": "mintedAllTimeAmounts",
      "outputs": [
        {
          "internalType": "uint256",
          "name": "",
          "type": "uint256"
        }
      ],
      "stateMutability": "view",
      "type": "function",
      "constant": true
    },
    {
      "inputs": [
        {
          "internalType": "address",
          "name": "",
          "type": "address"
        }
      ],
      "name": "mintedAllTimeClaimables",
      "outputs": [
        {
          "internalType": "uint256",
          "name": "",
          "type": "uint256"
        }
      ],
      "stateMutability": "view",
      "type": "function",
      "constant": true
    },
    {
      "inputs": [
        {
          "internalType": "address",
          "name": "",
          "type": "address"
        },
        {
          "internalType": "uint256",
          "name": "",
          "type": "uint256"
        }
      ],
      "name": "mintedAllTimeRewards",
      "outputs": [
        {
          "internalType": "uint256",
          "name": "sessionId",
          "type": "uint256"
        },
        {
          "internalType": "uint256",
          "name": "cws",
          "type": "uint256"
        }
      ],
      "stateMutability": "view",
      "type": "function",
      "constant": true
    },
    {
      "inputs": [
        {
          "internalType": "uint256",
          "name": "",
          "type": "uint256"
        }
      ],
      "name": "mintedDailyAmounts",
      "outputs": [
        {
          "internalType": "uint256",
          "name": "",
          "type": "uint256"
        }
      ],
      "stateMutability": "view",
      "type": "function",
      "constant": true
    },
    {
      "inputs": [
        {
          "internalType": "address",
          "name": "",
          "type": "address"
        }
      ],
      "name": "mintedDailyClaimables",
      "outputs": [
        {
          "internalType": "uint256",
          "name": "",
          "type": "uint256"
        }
      ],
      "stateMutability": "view",
      "type": "function",
      "constant": true
    },
    {
      "inputs": [
        {
          "internalType": "address",
          "name": "",
          "type": "address"
        },
        {
          "internalType": "uint256",
          "name": "",
          "type": "uint256"
        }
      ],
      "name": "mintedDailyRewards",
      "outputs": [
        {
          "internalType": "uint256",
          "name": "sessionId",
          "type": "uint256"
        },
        {
          "internalType": "uint256",
          "name": "cws",
          "type": "uint256"
        }
      ],
      "stateMutability": "view",
      "type": "function",
      "constant": true
    },
    {
      "inputs": [
        {
          "internalType": "uint256",
          "name": "",
          "type": "uint256"
        }
      ],
      "name": "mintedDailyWinnersTime",
      "outputs": [
        {
          "internalType": "uint256",
          "name": "",
          "type": "uint256"
        }
      ],
      "stateMutability": "view",
      "type": "function",
      "constant": true
    },
    {
      "inputs": [],
      "name": "owner",
      "outputs": [
        {
          "internalType": "address",
          "name": "",
          "type": "address"
        }
      ],
      "stateMutability": "view",
      "type": "function",
      "constant": true
    },
    {
      "inputs": [],
      "name": "renounceOwnership",
      "outputs": [],
      "stateMutability": "nonpayable",
      "type": "function"
    },
    {
      "inputs": [
        {
          "internalType": "uint256",
          "name": "",
          "type": "uint256"
        }
      ],
      "name": "sessions",
      "outputs": [
        {
          "internalType": "uint256",
          "name": "interval",
          "type": "uint256"
        },
        {
          "internalType": "uint256",
          "name": "period",
          "type": "uint256"
        },
        {
          "internalType": "uint256",
          "name": "startTime",
          "type": "uint256"
        },
        {
          "internalType": "uint256",
          "name": "generation",
          "type": "uint256"
        },
        {
          "internalType": "bool",
          "name": "spentWinnersSet",
          "type": "bool"
        },
        {
          "internalType": "bool",
          "name": "mintedWinnersSet",
          "type": "bool"
        }
      ],
      "stateMutability": "view",
      "type": "function",
      "constant": true
    },
    {
      "inputs": [
        {
          "internalType": "uint256",
          "name": "",
          "type": "uint256"
        }
      ],
      "name": "spentAllTimeAmounts",
      "outputs": [
        {
          "internalType": "uint256",
          "name": "",
          "type": "uint256"
        }
      ],
      "stateMutability": "view",
      "type": "function",
      "constant": true
    },
    {
      "inputs": [
        {
          "internalType": "address",
          "name": "",
          "type": "address"
        }
      ],
      "name": "spentAllTimeClaimables",
      "outputs": [
        {
          "internalType": "uint256",
          "name": "",
          "type": "uint256"
        }
      ],
      "stateMutability": "view",
      "type": "function",
      "constant": true
    },
    {
      "inputs": [
        {
          "internalType": "address",
          "name": "",
          "type": "address"
        },
        {
          "internalType": "uint256",
          "name": "",
          "type": "uint256"
        }
      ],
      "name": "spentAllTimeRewards",
      "outputs": [
        {
          "internalType": "uint256",
          "name": "sessionId",
          "type": "uint256"
        },
        {
          "internalType": "uint256",
          "name": "cws",
          "type": "uint256"
        }
      ],
      "stateMutability": "view",
      "type": "function",
      "constant": true
    },
    {
      "inputs": [
        {
          "internalType": "uint256",
          "name": "",
          "type": "uint256"
        }
      ],
      "name": "spentDailyAmounts",
      "outputs": [
        {
          "internalType": "uint256",
          "name": "",
          "type": "uint256"
        }
      ],
      "stateMutability": "view",
      "type": "function",
      "constant": true
    },
    {
      "inputs": [
        {
          "internalType": "address",
          "name": "",
          "type": "address"
        }
      ],
      "name": "spentDailyClaimables",
      "outputs": [
        {
          "internalType": "uint256",
          "name": "",
          "type": "uint256"
        }
      ],
      "stateMutability": "view",
      "type": "function",
      "constant": true
    },
    {
      "inputs": [
        {
          "internalType": "address",
          "name": "",
          "type": "address"
        },
        {
          "internalType": "uint256",
          "name": "",
          "type": "uint256"
        }
      ],
      "name": "spentDailyRewards",
      "outputs": [
        {
          "internalType": "uint256",
          "name": "sessionId",
          "type": "uint256"
        },
        {
          "internalType": "uint256",
          "name": "cws",
          "type": "uint256"
        }
      ],
      "stateMutability": "view",
      "type": "function",
      "constant": true
    },
    {
      "inputs": [
        {
          "internalType": "uint256",
          "name": "",
          "type": "uint256"
        }
      ],
      "name": "spentDailyWinnersTime",
      "outputs": [
        {
          "internalType": "uint256",
          "name": "",
          "type": "uint256"
        }
      ],
      "stateMutability": "view",
      "type": "function",
      "constant": true
    },
    {
      "inputs": [
        {
          "internalType": "address",
          "name": "newOwner",
          "type": "address"
        }
      ],
      "name": "transferOwnership",
      "outputs": [],
      "stateMutability": "nonpayable",
      "type": "function"
    },
    {
      "inputs": [
        {
          "internalType": "uint256",
          "name": "_interval",
          "type": "uint256"
        },
        {
          "internalType": "uint256",
          "name": "_period",
          "type": "uint256"
        },
        {
          "internalType": "uint256",
          "name": "_startTime",
          "type": "uint256"
        },
        {
          "internalType": "uint256",
          "name": "_generation",
          "type": "uint256"
        }
      ],
      "name": "startSession",
      "outputs": [],
      "stateMutability": "nonpayable",
      "type": "function"
    },
    {
      "inputs": [
        {
          "internalType": "address",
          "name": "_address",
          "type": "address"
        }
      ],
      "name": "setNftFactory",
      "outputs": [],
      "stateMutability": "nonpayable",
      "type": "function"
    },
    {
      "inputs": [
        {
          "internalType": "uint256",
          "name": "_deposit",
          "type": "uint256"
        }
      ],
      "name": "setMinDeposit",
      "outputs": [],
      "stateMutability": "nonpayable",
      "type": "function"
    },
    {
      "inputs": [
        {
          "internalType": "uint256[10]",
          "name": "_spentDaily",
          "type": "uint256[10]"
        },
        {
          "internalType": "uint256[10]",
          "name": "_spentAllTime",
          "type": "uint256[10]"
        },
        {
          "internalType": "uint256[10]",
          "name": "_mintedDaily",
          "type": "uint256[10]"
        },
        {
          "internalType": "uint256[10]",
          "name": "_mintedAllTime",
          "type": "uint256[10]"
        }
      ],
      "name": "setAllRewards",
      "outputs": [],
      "stateMutability": "nonpayable",
      "type": "function"
    },
    {
      "inputs": [
        {
          "internalType": "uint256[10]",
          "name": "_daily",
          "type": "uint256[10]"
        },
        {
          "internalType": "uint256[10]",
          "name": "_allTime",
          "type": "uint256[10]"
        }
      ],
      "name": "setAllSpents",
      "outputs": [],
      "stateMutability": "nonpayable",
      "type": "function"
    },
    {
      "inputs": [
        {
          "internalType": "uint256[10]",
          "name": "_daily",
          "type": "uint256[10]"
        },
        {
          "internalType": "uint256[10]",
          "name": "_allTime",
          "type": "uint256[10]"
        }
      ],
      "name": "setAllMinted",
      "outputs": [],
      "stateMutability": "nonpayable",
      "type": "function"
    },
    {
      "inputs": [
        {
          "internalType": "uint256[10]",
          "name": "_rewards",
          "type": "uint256[10]"
        }
      ],
      "name": "setDailySpents",
      "outputs": [],
      "stateMutability": "nonpayable",
      "type": "function"
    },
    {
      "inputs": [
        {
          "internalType": "uint256[10]",
          "name": "_rewards",
          "type": "uint256[10]"
        }
      ],
      "name": "setAllTimeSpents",
      "outputs": [],
      "stateMutability": "nonpayable",
      "type": "function"
    },
    {
      "inputs": [
        {
          "internalType": "uint256[10]",
          "name": "_rewards",
          "type": "uint256[10]"
        }
      ],
      "name": "setDailyMinted",
      "outputs": [],
      "stateMutability": "nonpayable",
      "type": "function"
    },
    {
      "inputs": [
        {
          "internalType": "uint256[10]",
          "name": "_rewards",
          "type": "uint256[10]"
        }
      ],
      "name": "setAllTimeMinted",
      "outputs": [],
      "stateMutability": "nonpayable",
      "type": "function"
    },
    {
      "inputs": [
        {
          "internalType": "uint256",
          "name": "_sessionId",
          "type": "uint256"
        },
        {
          "internalType": "address[10]",
          "name": "_winners",
          "type": "address[10]"
        },
        {
          "internalType": "uint8",
          "name": "_amount",
          "type": "uint8"
        }
      ],
      "name": "addDailySpentWinners",
      "outputs": [],
      "stateMutability": "nonpayable",
      "type": "function"
    },
    {
      "inputs": [
        {
          "internalType": "uint256",
          "name": "_sessionId",
          "type": "uint256"
        },
        {
          "internalType": "address[10]",
          "name": "_winners",
          "type": "address[10]"
        },
        {
          "internalType": "uint8",
          "name": "_amount",
          "type": "uint8"
        }
      ],
      "name": "addAllTimeSpentWinners",
      "outputs": [],
      "stateMutability": "nonpayable",
      "type": "function"
    },
    {
      "inputs": [
        {
          "internalType": "uint256",
          "name": "_sessionId",
          "type": "uint256"
        },
        {
          "internalType": "address[10]",
          "name": "_winners",
          "type": "address[10]"
        },
        {
          "internalType": "uint8",
          "name": "_amount",
          "type": "uint8"
        }
      ],
      "name": "addDailyMintedWinners",
      "outputs": [],
      "stateMutability": "nonpayable",
      "type": "function"
    },
    {
      "inputs": [
        {
          "internalType": "uint256",
          "name": "_sessionId",
          "type": "uint256"
        },
        {
          "internalType": "address[10]",
          "name": "_winners",
          "type": "address[10]"
        },
        {
          "internalType": "uint8",
          "name": "_amount",
          "type": "uint8"
        }
      ],
      "name": "addAllTimeMintedWinners",
      "outputs": [],
      "stateMutability": "nonpayable",
      "type": "function"
    },
    {
      "inputs": [
        {
          "internalType": "uint256",
          "name": "_sessionId",
          "type": "uint256"
        },
        {
          "internalType": "uint256",
          "name": "_amount",
          "type": "uint256"
        }
      ],
      "name": "spend",
      "outputs": [],
      "stateMutability": "nonpayable",
      "type": "function"
    },
    {
      "inputs": [
        {
          "internalType": "uint256",
          "name": "_sessionId",
          "type": "uint256"
        },
        {
          "internalType": "uint8",
          "name": "_v",
          "type": "uint8"
        },
        {
          "internalType": "bytes32",
          "name": "_r",
          "type": "bytes32"
        },
        {
          "internalType": "bytes32",
          "name": "_s",
          "type": "bytes32"
        },
        {
          "internalType": "uint8",
          "name": "_quality",
          "type": "uint8"
        }
      ],
      "name": "mint",
      "outputs": [],
      "stateMutability": "nonpayable",
      "type": "function"
    },
    {
      "inputs": [],
      "name": "claimDailySpent",
      "outputs": [],
      "stateMutability": "nonpayable",
      "type": "function"
    },
    {
      "inputs": [],
      "name": "claimAllTimeSpent",
      "outputs": [],
      "stateMutability": "nonpayable",
      "type": "function"
    },
    {
      "inputs": [],
      "name": "claimDailyMinted",
      "outputs": [],
      "stateMutability": "nonpayable",
      "type": "function"
    },
    {
      "inputs": [],
      "name": "claimAllTimeMinted",
      "outputs": [],
      "stateMutability": "nonpayable",
      "type": "function"
    }
  ],
  "bytecode": "0x60806040523480156200001157600080fd5b506040516200584538038062005845833981810160405260608110156200003757600080fd5b8101908080519060200190929190805190602001909291908051906020019092919050505060006200006e620001b560201b60201c565b9050806000806101000a81548173ffffffffffffffffffffffffffffffffffffffff021916908373ffffffffffffffffffffffffffffffffffffffff1602179055508073ffffffffffffffffffffffffffffffffffffffff16600073ffffffffffffffffffffffffffffffffffffffff167f8be0079c531659141344cd1fd0a4f28419497f9722a3daafe3b4186f6b6457e060405160405180910390a350620001236002620001bd60201b620052dc1760201c565b81600160006101000a81548173ffffffffffffffffffffffffffffffffffffffff021916908373ffffffffffffffffffffffffffffffffffffffff16021790555082600360006101000a81548173ffffffffffffffffffffffffffffffffffffffff021916908373ffffffffffffffffffffffffffffffffffffffff16021790555080600481905550505050620001d3565b600033905090565b6001816000016000828254019250508190555050565b61566280620001e36000396000f3fe608060405234801561001057600080fd5b50600436106102535760003560e01c80639bbfbb6411610146578063bca9ef66116100c3578063d6614f6911610087578063d6614f6914610e47578063e0c44dd914610ef0578063e2ba955114610f32578063edc5154514610f74578063f2fde38b14610fdd578063fc858e4d1461102157610253565b8063bca9ef6614610cd5578063c02d6f0c14610d3c578063c8b1f44e14610d94578063cab3869514610dd6578063cf9f2c2414610e3d57610253565b8063a9de7c601161010a578063a9de7c6014610aca578063ab73746514610b73578063b0523b8514610bdc578063b3a49eae14610c45578063bc3d825814610c7d57610253565b80639bbfbb64146108bf5780639da0ac1d1461093d5780639e5abe5d146109895780639ea2484414610993578063a3c0b3da1461099d57610253565b80634f8809d4116101d45780638da5cb5b116101985780638da5cb5b146107675780638fcc9cfb146107b157806390b13ca1146107df578063928aae111461083757806398525b15146108b557610253565b80634f8809d4146105d4578063672644f614610616578063715018a61461067257806375021d8c1461067c57806383c4b7a3146106fa57610253565b8063322717471161021b578063322717471461040657806337ca45841461046d5780633a64f5a0146104cf578063421653f714610538578063449b7cb61461055657610253565b80630357a6b1146102585780630dac9962146102bf5780631b1e305c146103035780631f3203311461035b578063273ba1ab146103c4575b600080fd5b6102bd600480360361014081101561026f57600080fd5b81019080806101400190600a806020026040519081016040528092919082600a60200280828437600081840152601f19601f8201169050808301925050505050509192919290505050611063565b005b610301600480360360208110156102d557600080fd5b81019080803573ffffffffffffffffffffffffffffffffffffffff169060200190929190505050611141565b005b6103456004803603602081101561031957600080fd5b81019080803573ffffffffffffffffffffffffffffffffffffffff16906020019092919050505061124e565b6040518082815260200191505060405180910390f35b6103a76004803603604081101561037157600080fd5b8101908080359060200190929190803573ffffffffffffffffffffffffffffffffffffffff169060200190929190505050611266565b604051808381526020018281526020019250505060405180910390f35b6103f0600480360360208110156103da57600080fd5b8101908080359060200190929190505050611297565b6040518082815260200191505060405180910390f35b61046b600480360361014081101561041d57600080fd5b81019080806101400190600a806020026040519081016040528092919082600a60200280828437600081840152601f19601f82011690508083019250505050505091929192905050506112af565b005b6104b96004803603604081101561048357600080fd5b8101908080359060200190929190803573ffffffffffffffffffffffffffffffffffffffff16906020019092919050505061138d565b6040518082815260200191505060405180910390f35b61051b600480360360408110156104e557600080fd5b81019080803573ffffffffffffffffffffffffffffffffffffffff169060200190929190803590602001909291905050506113b2565b604051808381526020018281526020019250505060405180910390f35b6105406113f0565b6040518082815260200191505060405180910390f35b6105d2600480360361018081101561056d57600080fd5b8101908080359060200190929190806101400190600a806020026040519081016040528092919082600a60200280828437600081840152601f19601f8201169050808301925050505050509192919290803560ff1690602001909291905050506113f6565b005b610600600480360360208110156105ea57600080fd5b8101908080359060200190929190505050611915565b6040518082815260200191505060405180910390f35b610670600480360360a081101561062c57600080fd5b8101908080359060200190929190803560ff1690602001909291908035906020019092919080359060200190929190803560ff16906020019092919050505061192d565b005b61067a611e9b565b005b6106f8600480360361018081101561069357600080fd5b8101908080359060200190929190806101400190600a806020026040519081016040528092919082600a60200280828437600081840152601f19601f8201169050808301925050505050509192919290803560ff169060200190929190505050612023565b005b6107266004803603602081101561071057600080fd5b8101908080359060200190929190505050612542565b604051808781526020018681526020018581526020018481526020018315151515815260200182151515158152602001965050505050505060405180910390f35b61076f612598565b604051808273ffffffffffffffffffffffffffffffffffffffff1673ffffffffffffffffffffffffffffffffffffffff16815260200191505060405180910390f35b6107dd600480360360208110156107c757600080fd5b81019080803590602001909291905050506125c1565b005b610821600480360360208110156107f557600080fd5b81019080803573ffffffffffffffffffffffffffffffffffffffff169060200190929190505050612694565b6040518082815260200191505060405180910390f35b6108b3600480360361018081101561084e57600080fd5b8101908080359060200190929190806101400190600a806020026040519081016040528092919082600a60200280828437600081840152601f19601f8201169050808301925050505050509192919290803560ff1690602001909291905050506126ac565b005b6108bd612bcb565b005b61093b60048036036101808110156108d657600080fd5b8101908080359060200190929190806101400190600a806020026040519081016040528092919082600a60200280828437600081840152601f19601f8201169050808301925050505050509192919290803560ff169060200190929190505050612fd0565b005b6109876004803603608081101561095357600080fd5b810190808035906020019092919080359060200190929190803590602001909291908035906020019092919050505061348a565b005b61099161371e565b005b61099b613b23565b005b610ac860048036036105008110156109b457600080fd5b81019080806101400190600a806020026040519081016040528092919082600a60200280828437600081840152601f19601f8201169050808301925050505050509192919290806101400190600a806020026040519081016040528092919082600a60200280828437600081840152601f19601f8201169050808301925050505050509192919290806101400190600a806020026040519081016040528092919082600a60200280828437600081840152601f19601f8201169050808301925050505050509192919290806101400190600a806020026040519081016040528092919082600a60200280828437600081840152601f19601f8201169050808301925050505050509192919290505050613f28565b005b610b716004803603610280811015610ae157600080fd5b81019080806101400190600a806020026040519081016040528092919082600a60200280828437600081840152601f19601f8201169050808301925050505050509192919290806101400190600a806020026040519081016040528092919082600a60200280828437600081840152601f19601f820116905080830192505050505050919291929050505061401b565b005b610bbf60048036036040811015610b8957600080fd5b81019080803573ffffffffffffffffffffffffffffffffffffffff169060200190929190803590602001909291905050506140fa565b604051808381526020018281526020019250505060405180910390f35b610c2860048036036040811015610bf257600080fd5b81019080803573ffffffffffffffffffffffffffffffffffffffff16906020019092919080359060200190929190505050614138565b604051808381526020018281526020019250505060405180910390f35b610c7b60048036036040811015610c5b57600080fd5b810190808035906020019092919080359060200190929190505050614176565b005b610cbf60048036036020811015610c9357600080fd5b81019080803573ffffffffffffffffffffffffffffffffffffffff169060200190929190505050614652565b6040518082815260200191505060405180910390f35b610d3a6004803603610140811015610cec57600080fd5b81019080806101400190600a806020026040519081016040528092919082600a60200280828437600081840152601f19601f820116905080830192505050505050919291929050505061466a565b005b610d7e60048036036020811015610d5257600080fd5b81019080803573ffffffffffffffffffffffffffffffffffffffff169060200190929190505050614748565b6040518082815260200191505060405180910390f35b610dc060048036036020811015610daa57600080fd5b8101908080359060200190929190505050614760565b6040518082815260200191505060405180910390f35b610e3b6004803603610140811015610ded57600080fd5b81019080806101400190600a806020026040519081016040528092919082600a60200280828437600081840152601f19601f8201169050808301925050505050509192919290505050614778565b005b610e45614856565b005b610eee6004803603610280811015610e5e57600080fd5b81019080806101400190600a806020026040519081016040528092919082600a60200280828437600081840152601f19601f8201169050808301925050505050509192919290806101400190600a806020026040519081016040528092919082600a60200280828437600081840152601f19601f8201169050808301925050505050509192919290505050614c5b565b005b610f1c60048036036020811015610f0657600080fd5b8101908080359060200190929190505050614d3a565b6040518082815260200191505060405180910390f35b610f5e60048036036020811015610f4857600080fd5b8101908080359060200190929190505050614d52565b6040518082815260200191505060405180910390f35b610fc060048036036040811015610f8a57600080fd5b81019080803573ffffffffffffffffffffffffffffffffffffffff16906020019092919080359060200190929190505050614d6a565b604051808381526020018281526020019250505060405180910390f35b61101f60048036036020811015610ff357600080fd5b81019080803573ffffffffffffffffffffffffffffffffffffffff169060200190929190505050614da8565b005b61104d6004803603602081101561103757600080fd5b8101908080359060200190929190505050614fb5565b6040518082815260200191505060405180910390f35b61106b614fcd565b73ffffffffffffffffffffffffffffffffffffffff166000809054906101000a900473ffffffffffffffffffffffffffffffffffffffff1673ffffffffffffffffffffffffffffffffffffffff161461112c576040517f08c379a00000000000000000000000000000000000000000000000000000000081526004018080602001828103825260208152602001807f4f776e61626c653a2063616c6c6572206973206e6f7420746865206f776e657281525060200191505060405180910390fd5b80601390600a61113d9291906153b2565b5050565b611149614fcd565b73ffffffffffffffffffffffffffffffffffffffff166000809054906101000a900473ffffffffffffffffffffffffffffffffffffffff1673ffffffffffffffffffffffffffffffffffffffff161461120a576040517f08c379a00000000000000000000000000000000000000000000000000000000081526004018080602001828103825260208152602001807f4f776e61626c653a2063616c6c6572206973206e6f7420746865206f776e657281525060200191505060405180910390fd5b80600160006101000a81548173ffffffffffffffffffffffffffffffffffffffff021916908373ffffffffffffffffffffffffffffffffffffffff16021790555050565b60396020528060005260406000206000915090505481565b6007602052816000526040600020602052806000526040600020600091509150508060000154908060010154905082565b601d81600a81106112a457fe5b016000915090505481565b6112b7614fcd565b73ffffffffffffffffffffffffffffffffffffffff166000809054906101000a900473ffffffffffffffffffffffffffffffffffffffff1673ffffffffffffffffffffffffffffffffffffffff1614611378576040517f08c379a00000000000000000000000000000000000000000000000000000000081526004018080602001828103825260208152602001807f4f776e61626c653a2063616c6c6572206973206e6f7420746865206f776e657281525060200191505060405180910390fd5b80601d90600a6113899291906153b2565b5050565b6008602052816000526040600020602052806000526040600020600091509150505481565b603360205281600052604060002081815481106113cb57fe5b9060005260206000209060020201600091509150508060000154908060010154905082565b60055481565b6113fe614fcd565b73ffffffffffffffffffffffffffffffffffffffff166000809054906101000a900473ffffffffffffffffffffffffffffffffffffffff1673ffffffffffffffffffffffffffffffffffffffff16146114bf576040517f08c379a00000000000000000000000000000000000000000000000000000000081526004018080602001828103825260208152602001807f4f776e61626c653a2063616c6c6572206973206e6f7420746865206f776e657281525060200191505060405180910390fd5b600015156114cc84614fd5565b151514611524576040517f08c379a00000000000000000000000000000000000000000000000000000000081526004018080602001828103825260228152602001806154f06022913960400191505060405180910390fd5b600a8160ff16111561159e576040517f08c379a000000000000000000000000000000000000000000000000000000000815260040180806020018281038252601a8152602001807f4e465420527573683a20746f6f206d616e792077696e6e65727300000000000081525060200191505060405180910390fd5b60008160ff1611156119075760006115f6601d600a806020026040519081016040528092919082600a80156115e8576020028201915b8154815260200190600101908083116115d4575b50505050508360ff16614ff9565b905060011515600360009054906101000a900473ffffffffffffffffffffffffffffffffffffffff1673ffffffffffffffffffffffffffffffffffffffff166323b872dd611642612598565b30856040518463ffffffff1660e01b8152600401808473ffffffffffffffffffffffffffffffffffffffff1673ffffffffffffffffffffffffffffffffffffffff1681526020018373ffffffffffffffffffffffffffffffffffffffff1673ffffffffffffffffffffffffffffffffffffffff1681526020018281526020019350505050602060405180830381600087803b1580156116e057600080fd5b505af11580156116f4573d6000803e3d6000fd5b505050506040513d602081101561170a57600080fd5b8101908080519060200190929190505050151514611773576040517f08c379a000000000000000000000000000000000000000000000000000000000815260040180806020018281038252602c815260200180615496602c913960400191505060405180910390fd5b60008090505b8260ff168110156119045761178c6153f2565b6040518060400160405280878152602001601d84600a81106117aa57fe5b01548152509050603860008684600a81106117c157fe5b602002015173ffffffffffffffffffffffffffffffffffffffff1673ffffffffffffffffffffffffffffffffffffffff168152602001908152602001600020819080600181540180825580915050600190039060005260206000209060020201600090919091909150600082015181600001556020820151816001015550506118a36001603760008886600a811061185557fe5b602002015173ffffffffffffffffffffffffffffffffffffffff1673ffffffffffffffffffffffffffffffffffffffff1681526020019081526020016000205461504b90919063ffffffff16565b603760008785600a81106118b357fe5b602002015173ffffffffffffffffffffffffffffffffffffffff1673ffffffffffffffffffffffffffffffffffffffff16815260200190815260200160002081905550508080600101915050611779565b50505b611910836150d3565b505050565b600981600a811061192257fe5b016000915090505481565b600060066000878152602001908152602001600020905060006007600088815260200190815260200160002060003373ffffffffffffffffffffffffffffffffffffffff1673ffffffffffffffffffffffffffffffffffffffff16815260200190815260200160002090506000816000015411611a12576040517f08c379a000000000000000000000000000000000000000000000000000000000815260040180806020018281038252601e8152602001807f4e465420527573683a204e6f206465706f7369742077617320666f756e64000081525060200191505060405180910390fd5b60606040518060400160405280601c81526020017f19457468657265756d205369676e6564204d6573736167653a0a33320000000081525090506000338360000154846001015487604051602001808573ffffffffffffffffffffffffffffffffffffffff1673ffffffffffffffffffffffffffffffffffffffff1660601b81526014018481526020018381526020018260ff1660ff1660f81b8152600101945050505050604051602081830303815290604052805190602001209050600082826040516020018083805190602001908083835b60208310611b095780518252602082019150602081019050602083039250611ae6565b6001836020036101000a0380198251168184511680821785525050505050509050018281526020019250505060405160208183030381529060405280519060200120905060006001828b8b8b60405160008152602001604052604051808581526020018460ff1660ff1681526020018381526020018281526020019450505050506020604051602081039080840390855afa158015611bac573d6000803e3d6000fd5b505050602060405103519050611bc0612598565b73ffffffffffffffffffffffffffffffffffffffff168173ffffffffffffffffffffffffffffffffffffffff1614611c43576040517f08c379a000000000000000000000000000000000000000000000000000000000815260040180806020018281038252602581526020018061555d6025913960400191505060405180910390fd5b600085600101541480611c5f5750428660000154866001015401105b611cb4576040517f08c379a00000000000000000000000000000000000000000000000000000000081526004018080602001828103825260348152602001806155826034913960400191505060405180910390fd5b6000600160009054906101000a900473ffffffffffffffffffffffffffffffffffffffff1673ffffffffffffffffffffffffffffffffffffffff16635642c51f3389600301548b6040518463ffffffff1660e01b8152600401808473ffffffffffffffffffffffffffffffffffffffff1673ffffffffffffffffffffffffffffffffffffffff1681526020018381526020018260ff1660ff1681526020019350505050602060405180830381600087803b158015611d7157600080fd5b505af1158015611d85573d6000803e3d6000fd5b505050506040513d6020811015611d9b57600080fd5b8101908080519060200190929190505050905060008111611e24576040517f08c379a00000000000000000000000000000000000000000000000000000000081526004018080602001828103825260208152602001807f4e465420527573683a206661696c656420746f206d696e74206120746f6b656e81525060200191505060405180910390fd5b428660010181905550600086600001819055503373ffffffffffffffffffffffffffffffffffffffff167f25b428dfde728ccfaddad7e29e4ac23c24ed7fd1a6e3e3f91894a9a073f5dfff8d83604051808381526020018281526020019250505060405180910390a2505050505050505050505050565b611ea3614fcd565b73ffffffffffffffffffffffffffffffffffffffff166000809054906101000a900473ffffffffffffffffffffffffffffffffffffffff1673ffffffffffffffffffffffffffffffffffffffff1614611f64576040517f08c379a00000000000000000000000000000000000000000000000000000000081526004018080602001828103825260208152602001807f4f776e61626c653a2063616c6c6572206973206e6f7420746865206f776e657281525060200191505060405180910390fd5b600073ffffffffffffffffffffffffffffffffffffffff166000809054906101000a900473ffffffffffffffffffffffffffffffffffffffff1673ffffffffffffffffffffffffffffffffffffffff167f8be0079c531659141344cd1fd0a4f28419497f9722a3daafe3b4186f6b6457e060405160405180910390a360008060006101000a81548173ffffffffffffffffffffffffffffffffffffffff021916908373ffffffffffffffffffffffffffffffffffffffff160217905550565b61202b614fcd565b73ffffffffffffffffffffffffffffffffffffffff166000809054906101000a900473ffffffffffffffffffffffffffffffffffffffff1673ffffffffffffffffffffffffffffffffffffffff16146120ec576040517f08c379a00000000000000000000000000000000000000000000000000000000081526004018080602001828103825260208152602001807f4f776e61626c653a2063616c6c6572206973206e6f7420746865206f776e657281525060200191505060405180910390fd5b600015156120f9846150f3565b151514612151576040517f08c379a00000000000000000000000000000000000000000000000000000000081526004018080602001828103825260268152602001806155b66026913960400191505060405180910390fd5b600a8160ff1611156121cb576040517f08c379a000000000000000000000000000000000000000000000000000000000815260040180806020018281038252601a8152602001807f4e465420527573683a20746f6f206d616e792077696e6e65727300000000000081525060200191505060405180910390fd5b60008160ff1611156125345760006122236013600a806020026040519081016040528092919082600a8015612215576020028201915b815481526020019060010190808311612201575b50505050508360ff16614ff9565b905060011515600360009054906101000a900473ffffffffffffffffffffffffffffffffffffffff1673ffffffffffffffffffffffffffffffffffffffff166323b872dd61226f612598565b30856040518463ffffffff1660e01b8152600401808473ffffffffffffffffffffffffffffffffffffffff1673ffffffffffffffffffffffffffffffffffffffff1681526020018373ffffffffffffffffffffffffffffffffffffffff1673ffffffffffffffffffffffffffffffffffffffff1681526020018281526020019350505050602060405180830381600087803b15801561230d57600080fd5b505af1158015612321573d6000803e3d6000fd5b505050506040513d602081101561233757600080fd5b81019080805190602001909291905050501515146123a0576040517f08c379a000000000000000000000000000000000000000000000000000000000815260040180806020018281038252602c815260200180615496602c913960400191505060405180910390fd5b60008090505b8260ff16811015612531576123b96153f2565b6040518060400160405280878152602001601384600a81106123d757fe5b01548152509050603560008684600a81106123ee57fe5b602002015173ffffffffffffffffffffffffffffffffffffffff1673ffffffffffffffffffffffffffffffffffffffff168152602001908152602001600020819080600181540180825580915050600190039060005260206000209060020201600090919091909150600082015181600001556020820151816001015550506124d06001603460008886600a811061248257fe5b602002015173ffffffffffffffffffffffffffffffffffffffff1673ffffffffffffffffffffffffffffffffffffffff1681526020019081526020016000205461504b90919063ffffffff16565b603460008785600a81106124e057fe5b602002015173ffffffffffffffffffffffffffffffffffffffff1673ffffffffffffffffffffffffffffffffffffffff168152602001908152602001600020819055505080806001019150506123a6565b50505b61253d83615154565b505050565b60066020528060005260406000206000915090508060000154908060010154908060020154908060030154908060040160009054906101000a900460ff16908060040160019054906101000a900460ff16905086565b60008060009054906101000a900473ffffffffffffffffffffffffffffffffffffffff16905090565b6125c9614fcd565b73ffffffffffffffffffffffffffffffffffffffff166000809054906101000a900473ffffffffffffffffffffffffffffffffffffffff1673ffffffffffffffffffffffffffffffffffffffff161461268a576040517f08c379a00000000000000000000000000000000000000000000000000000000081526004018080602001828103825260208152602001807f4f776e61626c653a2063616c6c6572206973206e6f7420746865206f776e657281525060200191505060405180910390fd5b8060048190555050565b60326020528060005260406000206000915090505481565b6126b4614fcd565b73ffffffffffffffffffffffffffffffffffffffff166000809054906101000a900473ffffffffffffffffffffffffffffffffffffffff1673ffffffffffffffffffffffffffffffffffffffff1614612775576040517f08c379a00000000000000000000000000000000000000000000000000000000081526004018080602001828103825260208152602001807f4f776e61626c653a2063616c6c6572206973206e6f7420746865206f776e657281525060200191505060405180910390fd5b6000151561278284615186565b1515146127da576040517f08c379a00000000000000000000000000000000000000000000000000000000081526004018080602001828103825260268152602001806155b66026913960400191505060405180910390fd5b600a8160ff161115612854576040517f08c379a000000000000000000000000000000000000000000000000000000000815260040180806020018281038252601a8152602001807f4e465420527573683a20746f6f206d616e792077696e6e65727300000000000081525060200191505060405180910390fd5b60008160ff161115612bbd5760006128ac6027600a806020026040519081016040528092919082600a801561289e576020028201915b81548152602001906001019080831161288a575b50505050508360ff16614ff9565b905060011515600360009054906101000a900473ffffffffffffffffffffffffffffffffffffffff1673ffffffffffffffffffffffffffffffffffffffff166323b872dd6128f8612598565b30856040518463ffffffff1660e01b8152600401808473ffffffffffffffffffffffffffffffffffffffff1673ffffffffffffffffffffffffffffffffffffffff1681526020018373ffffffffffffffffffffffffffffffffffffffff1673ffffffffffffffffffffffffffffffffffffffff1681526020018281526020019350505050602060405180830381600087803b15801561299657600080fd5b505af11580156129aa573d6000803e3d6000fd5b505050506040513d60208110156129c057600080fd5b8101908080519060200190929190505050151514612a29576040517f08c379a000000000000000000000000000000000000000000000000000000000815260040180806020018281038252602c815260200180615496602c913960400191505060405180910390fd5b60008090505b8260ff16811015612bba57612a426153f2565b6040518060400160405280878152602001602784600a8110612a6057fe5b01548152509050603a60008684600a8110612a7757fe5b602002015173ffffffffffffffffffffffffffffffffffffffff1673ffffffffffffffffffffffffffffffffffffffff16815260200190815260200160002081908060018154018082558091505060019003906000526020600020906002020160009091909190915060008201518160000155602082015181600101555050612b596001603960008886600a8110612b0b57fe5b602002015173ffffffffffffffffffffffffffffffffffffffff1673ffffffffffffffffffffffffffffffffffffffff1681526020019081526020016000205461504b90919063ffffffff16565b603960008785600a8110612b6957fe5b602002015173ffffffffffffffffffffffffffffffffffffffff1673ffffffffffffffffffffffffffffffffffffffff16815260200190815260200160002081905550508080600101915050612a2f565b50505b612bc6836151e7565b505050565b600060376000612bd9614fcd565b73ffffffffffffffffffffffffffffffffffffffff1673ffffffffffffffffffffffffffffffffffffffff1681526020019081526020016000205411612c87576040517f08c379a000000000000000000000000000000000000000000000000000000000815260040180806020018281038252601a8152602001807f4e465420527573683a20726577617264206e6f7420666f756e6400000000000081525060200191505060405180910390fd5b600060376000612c95614fcd565b73ffffffffffffffffffffffffffffffffffffffff1673ffffffffffffffffffffffffffffffffffffffff168152602001908152602001600020549050600060386000612ce0614fcd565b73ffffffffffffffffffffffffffffffffffffffff1673ffffffffffffffffffffffffffffffffffffffff16815260200190815260200160002090506000816001840381548110612d2d57fe5b90600052602060002090600202016000015490506000826001850381548110612d5257fe5b906000526020600020906002020160010154905060011515600360009054906101000a900473ffffffffffffffffffffffffffffffffffffffff1673ffffffffffffffffffffffffffffffffffffffff1663a9059cbb612db0614fcd565b846040518363ffffffff1660e01b8152600401808373ffffffffffffffffffffffffffffffffffffffff1673ffffffffffffffffffffffffffffffffffffffff16815260200182815260200192505050602060405180830381600087803b158015612e1a57600080fd5b505af1158015612e2e573d6000803e3d6000fd5b505050506040513d6020811015612e4457600080fd5b8101908080519060200190929190505050151514612ead576040517f08c379a00000000000000000000000000000000000000000000000000000000081526004018080602001828103825260288152602001806155126028913960400191505060405180910390fd5b826001850381548110612ebc57fe5b906000526020600020906002020160008082016000905560018201600090555050612ef160018561521990919063ffffffff16565b60376000612efd614fcd565b73ffffffffffffffffffffffffffffffffffffffff1673ffffffffffffffffffffffffffffffffffffffff168152602001908152602001600020819055503373ffffffffffffffffffffffffffffffffffffffff167f3ad764616ca75da986555f66f54e6b365e9db30c67f55dea08b6b19c946629cd838360405180838152602001806020018381526020018281038252600c8152602001807f6d696e7465642d6461696c790000000000000000000000000000000000000000815250602001935050505060405180910390a250505050565b612fd8614fcd565b73ffffffffffffffffffffffffffffffffffffffff166000809054906101000a900473ffffffffffffffffffffffffffffffffffffffff1673ffffffffffffffffffffffffffffffffffffffff1614613099576040517f08c379a00000000000000000000000000000000000000000000000000000000081526004018080602001828103825260208152602001807f4f776e61626c653a2063616c6c6572206973206e6f7420746865206f776e657281525060200191505060405180910390fd5b600a8160ff161115613113576040517f08c379a000000000000000000000000000000000000000000000000000000000815260040180806020018281038252601a8152602001807f4e465420527573683a20746f6f206d616e792077696e6e65727300000000000081525060200191505060405180910390fd5b60008160ff16111561347c57600061316b6009600a806020026040519081016040528092919082600a801561315d576020028201915b815481526020019060010190808311613149575b50505050508360ff16614ff9565b905060011515600360009054906101000a900473ffffffffffffffffffffffffffffffffffffffff1673ffffffffffffffffffffffffffffffffffffffff166323b872dd6131b7612598565b30856040518463ffffffff1660e01b8152600401808473ffffffffffffffffffffffffffffffffffffffff1673ffffffffffffffffffffffffffffffffffffffff1681526020018373ffffffffffffffffffffffffffffffffffffffff1673ffffffffffffffffffffffffffffffffffffffff1681526020018281526020019350505050602060405180830381600087803b15801561325557600080fd5b505af1158015613269573d6000803e3d6000fd5b505050506040513d602081101561327f57600080fd5b81019080805190602001909291905050501515146132e8576040517f08c379a000000000000000000000000000000000000000000000000000000000815260040180806020018281038252602c815260200180615496602c913960400191505060405180910390fd5b60008090505b8260ff16811015613479576133016153f2565b6040518060400160405280878152602001600984600a811061331f57fe5b01548152509050603360008684600a811061333657fe5b602002015173ffffffffffffffffffffffffffffffffffffffff1673ffffffffffffffffffffffffffffffffffffffff168152602001908152602001600020819080600181540180825580915050600190039060005260206000209060020201600090919091909150600082015181600001556020820151816001015550506134186001603260008886600a81106133ca57fe5b602002015173ffffffffffffffffffffffffffffffffffffffff1673ffffffffffffffffffffffffffffffffffffffff1681526020019081526020016000205461504b90919063ffffffff16565b603260008785600a811061342857fe5b602002015173ffffffffffffffffffffffffffffffffffffffff1673ffffffffffffffffffffffffffffffffffffffff168152602001908152602001600020819055505080806001019150506132ee565b50505b61348583615263565b505050565b613492614fcd565b73ffffffffffffffffffffffffffffffffffffffff166000809054906101000a900473ffffffffffffffffffffffffffffffffffffffff1673ffffffffffffffffffffffffffffffffffffffff1614613553576040517f08c379a00000000000000000000000000000000000000000000000000000000081526004018080602001828103825260208152602001807f4f776e61626c653a2063616c6c6572206973206e6f7420746865206f776e657281525060200191505060405180910390fd5b600060055411156135c6576000151561356d600554615283565b1515146135c5576040517f08c379a000000000000000000000000000000000000000000000000000000000815260040180806020018281038252602c815260200180615601602c913960400191505060405180910390fd5b5b60006135d260026152ce565b90506040518060c0016040528086815260200185815260200184815260200183815260200160001515815260200160001515815250600660008381526020019081526020016000206000820151816000015560208201518160010155604082015181600201556060820151816003015560808201518160040160006101000a81548160ff02191690831515021790555060a08201518160040160016101000a81548160ff02191690831515021790555090505061368f60026152dc565b806005819055508260316000838152602001908152602001600020819055508260366000838152602001908152602001600020819055507f5dc1f72d9d4fb1e826e6f5c291a6eb1942b9825fe2802bb9ec05563c01aad8868184868601856040518085815260200184815260200183815260200182815260200194505050505060405180910390a15050505050565b60006039600061372c614fcd565b73ffffffffffffffffffffffffffffffffffffffff1673ffffffffffffffffffffffffffffffffffffffff16815260200190815260200160002054116137da576040517f08c379a000000000000000000000000000000000000000000000000000000000815260040180806020018281038252601a8152602001807f4e465420527573683a20726577617264206e6f7420666f756e6400000000000081525060200191505060405180910390fd5b6000603960006137e8614fcd565b73ffffffffffffffffffffffffffffffffffffffff1673ffffffffffffffffffffffffffffffffffffffff1681526020019081526020016000205490506000603a6000613833614fcd565b73ffffffffffffffffffffffffffffffffffffffff1673ffffffffffffffffffffffffffffffffffffffff1681526020019081526020016000209050600081600184038154811061388057fe5b906000526020600020906002020160000154905060008260018503815481106138a557fe5b906000526020600020906002020160010154905060011515600360009054906101000a900473ffffffffffffffffffffffffffffffffffffffff1673ffffffffffffffffffffffffffffffffffffffff1663a9059cbb613903614fcd565b846040518363ffffffff1660e01b8152600401808373ffffffffffffffffffffffffffffffffffffffff1673ffffffffffffffffffffffffffffffffffffffff16815260200182815260200192505050602060405180830381600087803b15801561396d57600080fd5b505af1158015613981573d6000803e3d6000fd5b505050506040513d602081101561399757600080fd5b8101908080519060200190929190505050151514613a00576040517f08c379a00000000000000000000000000000000000000000000000000000000081526004018080602001828103825260288152602001806155126028913960400191505060405180910390fd5b826001850381548110613a0f57fe5b906000526020600020906002020160008082016000905560018201600090555050613a4460018561521990919063ffffffff16565b60396000613a50614fcd565b73ffffffffffffffffffffffffffffffffffffffff1673ffffffffffffffffffffffffffffffffffffffff168152602001908152602001600020819055503373ffffffffffffffffffffffffffffffffffffffff167f3ad764616ca75da986555f66f54e6b365e9db30c67f55dea08b6b19c946629cd838360405180838152602001806020018381526020018281038252600e8152602001807f6d696e7465642d616c6c74696d65000000000000000000000000000000000000815250602001935050505060405180910390a250505050565b600060326000613b31614fcd565b73ffffffffffffffffffffffffffffffffffffffff1673ffffffffffffffffffffffffffffffffffffffff1681526020019081526020016000205411613bdf576040517f08c379a000000000000000000000000000000000000000000000000000000000815260040180806020018281038252601a8152602001807f4e465420527573683a20726577617264206e6f7420666f756e6400000000000081525060200191505060405180910390fd5b600060326000613bed614fcd565b73ffffffffffffffffffffffffffffffffffffffff1673ffffffffffffffffffffffffffffffffffffffff168152602001908152602001600020549050600060336000613c38614fcd565b73ffffffffffffffffffffffffffffffffffffffff1673ffffffffffffffffffffffffffffffffffffffff16815260200190815260200160002090506000816001840381548110613c8557fe5b90600052602060002090600202016000015490506000826001850381548110613caa57fe5b906000526020600020906002020160010154905060011515600360009054906101000a900473ffffffffffffffffffffffffffffffffffffffff1673ffffffffffffffffffffffffffffffffffffffff1663a9059cbb613d08614fcd565b846040518363ffffffff1660e01b8152600401808373ffffffffffffffffffffffffffffffffffffffff1673ffffffffffffffffffffffffffffffffffffffff16815260200182815260200192505050602060405180830381600087803b158015613d7257600080fd5b505af1158015613d86573d6000803e3d6000fd5b505050506040513d6020811015613d9c57600080fd5b8101908080519060200190929190505050151514613e05576040517f08c379a00000000000000000000000000000000000000000000000000000000081526004018080602001828103825260288152602001806155126028913960400191505060405180910390fd5b826001850381548110613e1457fe5b906000526020600020906002020160008082016000905560018201600090555050613e4960018561521990919063ffffffff16565b60326000613e55614fcd565b73ffffffffffffffffffffffffffffffffffffffff1673ffffffffffffffffffffffffffffffffffffffff168152602001908152602001600020819055503373ffffffffffffffffffffffffffffffffffffffff167f3ad764616ca75da986555f66f54e6b365e9db30c67f55dea08b6b19c946629cd838360405180838152602001806020018381526020018281038252600b8152602001807f7370656e742d6461696c79000000000000000000000000000000000000000000815250602001935050505060405180910390a250505050565b613f30614fcd565b73ffffffffffffffffffffffffffffffffffffffff166000809054906101000a900473ffffffffffffffffffffffffffffffffffffffff1673ffffffffffffffffffffffffffffffffffffffff1614613ff1576040517f08c379a00000000000000000000000000000000000000000000000000000000081526004018080602001828103825260208152602001807f4f776e61626c653a2063616c6c6572206973206e6f7420746865206f776e657281525060200191505060405180910390fd5b613ffa84614778565b61400383611063565b61400c826112af565b6140158161466a565b50505050565b614023614fcd565b73ffffffffffffffffffffffffffffffffffffffff166000809054906101000a900473ffffffffffffffffffffffffffffffffffffffff1673ffffffffffffffffffffffffffffffffffffffff16146140e4576040517f08c379a00000000000000000000000000000000000000000000000000000000081526004018080602001828103825260208152602001807f4f776e61626c653a2063616c6c6572206973206e6f7420746865206f776e657281525060200191505060405180910390fd5b6140ed826112af565b6140f68161466a565b5050565b6038602052816000526040600020818154811061411357fe5b9060005260206000209060020201600091509150508060000154908060010154905082565b603a602052816000526040600020818154811061415157fe5b9060005260206000209060020201600091509150508060000154908060010154905082565b6004548110156141d1576040517f08c379a000000000000000000000000000000000000000000000000000000000815260040180806020018281038252603e815260200180615432603e913960400191505060405180910390fd5b6000821161422a576040517f08c379a00000000000000000000000000000000000000000000000000000000081526004018080602001828103825260258152602001806155dc6025913960400191505060405180910390fd5b61423382615283565b6142a5576040517f08c379a000000000000000000000000000000000000000000000000000000000815260040180806020018281038252601d8152602001807f4e465420527573683a2053657373696f6e2069732066696e697368656400000081525060200191505060405180910390fd5b80600360009054906101000a900473ffffffffffffffffffffffffffffffffffffffff1673ffffffffffffffffffffffffffffffffffffffff166370a08231336040518263ffffffff1660e01b8152600401808273ffffffffffffffffffffffffffffffffffffffff1673ffffffffffffffffffffffffffffffffffffffff16815260200191505060206040518083038186803b15801561434557600080fd5b505afa158015614359573d6000803e3d6000fd5b505050506040513d602081101561436f57600080fd5b810190808051906020019092919050505010156143d7576040517f08c379a000000000000000000000000000000000000000000000000000000000815260040180806020018281038252602381526020018061553a6023913960400191505060405180910390fd5b60011515600360009054906101000a900473ffffffffffffffffffffffffffffffffffffffff1673ffffffffffffffffffffffffffffffffffffffff16636aade28833846040518363ffffffff1660e01b8152600401808373ffffffffffffffffffffffffffffffffffffffff1673ffffffffffffffffffffffffffffffffffffffff16815260200182815260200192505050602060405180830381600087803b15801561448457600080fd5b505af1158015614498573d6000803e3d6000fd5b505050506040513d60208110156144ae57600080fd5b8101908080519060200190929190505050151514614517576040517f08c379a000000000000000000000000000000000000000000000000000000000815260040180806020018281038252602e8152602001806154c2602e913960400191505060405180910390fd5b60006007600084815260200190815260200160002060003373ffffffffffffffffffffffffffffffffffffffff1673ffffffffffffffffffffffffffffffffffffffff168152602001908152602001600020905061458282826000015461504b90919063ffffffff16565b8160000181905550426008600085815260200190815260200160002060003373ffffffffffffffffffffffffffffffffffffffff1673ffffffffffffffffffffffffffffffffffffffff168152602001908152602001600020819055503373ffffffffffffffffffffffffffffffffffffffff167fe8591e9373e8c4801ffc5bb031277889e3e771aee8c55961028bfc65728c9ba98483600001548460010154866040518085815260200184815260200183815260200182815260200194505050505060405180910390a2505050565b60376020528060005260406000206000915090505481565b614672614fcd565b73ffffffffffffffffffffffffffffffffffffffff166000809054906101000a900473ffffffffffffffffffffffffffffffffffffffff1673ffffffffffffffffffffffffffffffffffffffff1614614733576040517f08c379a00000000000000000000000000000000000000000000000000000000081526004018080602001828103825260208152602001807f4f776e61626c653a2063616c6c6572206973206e6f7420746865206f776e657281525060200191505060405180910390fd5b80602790600a6147449291906153b2565b5050565b60346020528060005260406000206000915090505481565b602781600a811061476d57fe5b016000915090505481565b614780614fcd565b73ffffffffffffffffffffffffffffffffffffffff166000809054906101000a900473ffffffffffffffffffffffffffffffffffffffff1673ffffffffffffffffffffffffffffffffffffffff1614614841576040517f08c379a00000000000000000000000000000000000000000000000000000000081526004018080602001828103825260208152602001807f4f776e61626c653a2063616c6c6572206973206e6f7420746865206f776e657281525060200191505060405180910390fd5b80600990600a6148529291906153b2565b5050565b600060346000614864614fcd565b73ffffffffffffffffffffffffffffffffffffffff1673ffffffffffffffffffffffffffffffffffffffff1681526020019081526020016000205411614912576040517f08c379a000000000000000000000000000000000000000000000000000000000815260040180806020018281038252601a8152602001807f4e465420527573683a20726577617264206e6f7420666f756e6400000000000081525060200191505060405180910390fd5b600060346000614920614fcd565b73ffffffffffffffffffffffffffffffffffffffff1673ffffffffffffffffffffffffffffffffffffffff16815260200190815260200160002054905060006035600061496b614fcd565b73ffffffffffffffffffffffffffffffffffffffff1673ffffffffffffffffffffffffffffffffffffffff168152602001908152602001600020905060008160018403815481106149b857fe5b906000526020600020906002020160000154905060008260018503815481106149dd57fe5b906000526020600020906002020160010154905060011515600360009054906101000a900473ffffffffffffffffffffffffffffffffffffffff1673ffffffffffffffffffffffffffffffffffffffff1663a9059cbb614a3b614fcd565b846040518363ffffffff1660e01b8152600401808373ffffffffffffffffffffffffffffffffffffffff1673ffffffffffffffffffffffffffffffffffffffff16815260200182815260200192505050602060405180830381600087803b158015614aa557600080fd5b505af1158015614ab9573d6000803e3d6000fd5b505050506040513d6020811015614acf57600080fd5b8101908080519060200190929190505050151514614b38576040517f08c379a00000000000000000000000000000000000000000000000000000000081526004018080602001828103825260288152602001806155126028913960400191505060405180910390fd5b826001850381548110614b4757fe5b906000526020600020906002020160008082016000905560018201600090555050614b7c60018561521990919063ffffffff16565b60346000614b88614fcd565b73ffffffffffffffffffffffffffffffffffffffff1673ffffffffffffffffffffffffffffffffffffffff168152602001908152602001600020819055503373ffffffffffffffffffffffffffffffffffffffff167f3ad764616ca75da986555f66f54e6b365e9db30c67f55dea08b6b19c946629cd838360405180838152602001806020018381526020018281038252600d8152602001807f7370656e742d616c6c74696d6500000000000000000000000000000000000000815250602001935050505060405180910390a250505050565b614c63614fcd565b73ffffffffffffffffffffffffffffffffffffffff166000809054906101000a900473ffffffffffffffffffffffffffffffffffffffff1673ffffffffffffffffffffffffffffffffffffffff1614614d24576040517f08c379a00000000000000000000000000000000000000000000000000000000081526004018080602001828103825260208152602001807f4f776e61626c653a2063616c6c6572206973206e6f7420746865206f776e657281525060200191505060405180910390fd5b614d2d82614778565b614d3681611063565b5050565b601381600a8110614d4757fe5b016000915090505481565b60366020528060005260406000206000915090505481565b60356020528160005260406000208181548110614d8357fe5b9060005260206000209060020201600091509150508060000154908060010154905082565b614db0614fcd565b73ffffffffffffffffffffffffffffffffffffffff166000809054906101000a900473ffffffffffffffffffffffffffffffffffffffff1673ffffffffffffffffffffffffffffffffffffffff1614614e71576040517f08c379a00000000000000000000000000000000000000000000000000000000081526004018080602001828103825260208152602001807f4f776e61626c653a2063616c6c6572206973206e6f7420746865206f776e657281525060200191505060405180910390fd5b600073ffffffffffffffffffffffffffffffffffffffff168173ffffffffffffffffffffffffffffffffffffffff161415614ef7576040517f08c379a00000000000000000000000000000000000000000000000000000000081526004018080602001828103825260268152602001806154706026913960400191505060405180910390fd5b8073ffffffffffffffffffffffffffffffffffffffff166000809054906101000a900473ffffffffffffffffffffffffffffffffffffffff1673ffffffffffffffffffffffffffffffffffffffff167f8be0079c531659141344cd1fd0a4f28419497f9722a3daafe3b4186f6b6457e060405160405180910390a3806000806101000a81548173ffffffffffffffffffffffffffffffffffffffff021916908373ffffffffffffffffffffffffffffffffffffffff16021790555050565b60316020528060005260406000206000915090505481565b600033905090565b60006201518060366000848152602001908152602001600020540142109050919050565b6000806000905060008090505b83811015615040576150318582600a811061501d57fe5b60200201518361504b90919063ffffffff16565b91508080600101915050615006565b508091505092915050565b6000808284019050838110156150c9576040517f08c379a000000000000000000000000000000000000000000000000000000000815260040180806020018281038252601b8152602001807f536166654d6174683a206164646974696f6e206f766572666c6f77000000000081525060200191505060405180910390fd5b8091505092915050565b620151804201603660008381526020019081526020016000208190555050565b6000806006600084815260200190815260200160002090506000151561511884615283565b151514801561512b575060008160020154115b801561514c5750600015158160040160009054906101000a900460ff161515145b915050919050565b60016006600083815260200190815260200160002060040160006101000a81548160ff02191690831515021790555050565b600080600660008481526020019081526020016000209050600015156151ab84615283565b15151480156151be575060008160020154115b80156151df5750600015158160040160019054906101000a900460ff161515145b915050919050565b60016006600083815260200190815260200160002060040160016101000a81548160ff02191690831515021790555050565b600061525b83836040518060400160405280601e81526020017f536166654d6174683a207375627472616374696f6e206f766572666c6f7700008152506152f2565b905092915050565b620151804201603160008381526020019081526020016000208190555050565b600060066000838152602001908152602001600020600101546006600084815260200190815260200160002060020154014211156152c457600090506152c9565b600190505b919050565b600081600001549050919050565b6001816000016000828254019250508190555050565b600083831115829061539f576040517f08c379a00000000000000000000000000000000000000000000000000000000081526004018080602001828103825283818151815260200191508051906020019080838360005b83811015615364578082015181840152602081019050615349565b50505050905090810190601f1680156153915780820380516001836020036101000a031916815260200191505b509250505060405180910390fd5b5060008385039050809150509392505050565b82600a81019282156153e1579160200282015b828111156153e05782518255916020019190600101906153c5565b5b5090506153ee919061540c565b5090565b604051806040016040528060008152602001600081525090565b61542e91905b8082111561542a576000816000905550600101615412565b5090565b9056fe4e465420527573683a20416d6f756e7420746f206465706f7369742073686f756c642062652067726561746572207468616e206d696e206465706f7369744f776e61626c653a206e6577206f776e657220697320746865207a65726f20616464726573734e465420527573683a206e6f7420656e6f7567682043575320746f20676976652061732061207265776172644e465420527573683a204661696c656420746f207472616e736665722043575320696e746f20636f6e74726163744e465420527573683a20616c726561647920736574206f7220746f6f206561726c794e465420527573683a206661696c656420746f207265776172642043575320746f2077696e6e65724e465420527573683a204e6f7420656e6f7567682043575320746f206465706f7369744e465420527573683a205175616c69747920766572696669636174696f6e206661696c65644e465420527573683a206e6f7420656e6f75676820696e74657276616c2073696e6365206c617374206d696e7465642074696d654e465420527573683a20616c6c2074696d652077696e6e6572732073657420616c72656164794e465420527573683a2053657373696f6e206973206e6f74207374617274656420796574214e465420527573683a2043616e2774207374617274207768656e2073657373696f6e20697320616374697665a2646970667358221220fdaa7e1319a06eb3a77b5e32495af6e5a71960ecc7a4cc258157a4e9e2bf716e64736f6c63430006070033",
  "immutableReferences": {},
  "source": "pragma solidity 0.6.7;\r\n\r\nimport \"./../crowns/erc-20/contracts/CrownsToken/CrownsToken.sol\";\r\nimport \"./../openzeppelin/contracts/access/Ownable.sol\";\r\nimport \"./../openzeppelin/contracts/math/SafeMath.sol\";\r\nimport \"./../openzeppelin/contracts/utils/Counters.sol\";\r\nimport \"./../seascape_nft/NftTypes.sol\";\r\nimport \"./../seascape_nft/NftFactory.sol\";\r\n\r\n\r\ncontract NftRush is Ownable {\r\n    using SafeMath for uint256;\r\n    using Counters for Counters.Counter;\r\n    using NftTypes for NftTypes;\r\n\r\n    NftFactory nftFactory;\r\n    \r\n    Counters.Counter private sessionId;\r\n\r\n    CrownsToken private crowns;\r\n    uint256 private minDeposit;\r\n\r\n    /// @notice Game session. Smartcontract is active during the game session.\r\n    /// Game session is active for a certain period of time only\r\n    struct Session {\r\n\tuint256 interval;      // period between intervals\r\n\tuint256 period;        // duration of session\r\n\tuint256 startTime;     // unix timestamp when session starts\r\n\tuint256 generation;    // nft generation\r\n\tbool    spentWinnersSet;    // was all time winners set\r\n\tbool    mintedWinnersSet;\r\n    }\r\n\r\n    /// @notice Tracking player data within game session\r\n    struct Balance {\r\n\tuint256 amount;\r\n\tuint256 mintedTime;\r\n    }\r\n\r\n    /// @notice Tracking leaderboard rewards within game session.\r\n    /// Nft Rush (this contract game) has a leaderboard\r\n    struct Reward {\r\n\tuint256 sessionId;\r\n\tuint256 cws;\r\n    }\r\n\r\n    uint256 public lastSessionId;\r\n    mapping(uint256 => Session) public sessions;\r\n    mapping(uint256 => mapping(address => Balance)) public balances;\r\n    mapping(uint256 => mapping(address => uint)) public depositTime;\r\n\r\n    uint256[10] public spentDailyAmounts;        // spent token leaderboard\r\n    uint256[10] public spentAllTimeAmounts;\r\n    uint256[10] public mintedDailyAmounts;       // minted nft amount leaderboard\r\n    uint256[10] public mintedAllTimeAmounts;\r\n\r\n    // struct: session id => timestamp\r\n    mapping(uint256 => uint256) public spentDailyWinnersTime;                  // tracks the last daily winners set time.\r\n                                                                          // be careful, if the daily winners setting doesn't set all 10 winners,\r\n                                                                          // you wouldn't be able to set missed winners in a next round\r\n    mapping(address => uint256) public spentDailyClaimables;            // tracks amount of claimable nft for each user\r\n    mapping(address => Reward[]) public spentDailyRewards;        // stores a session id where user won an nft.\r\n\r\n    // session id => addresses\r\n    mapping(address => uint256) public spentAllTimeClaimables;          // tracks the amount of leaderboard winning in sessions for each user\r\n    mapping(address => Reward[]) public spentAllTimeRewards;      // session id\r\n\r\n    // struct: session id => timestamp\r\n    mapping(uint256 => uint256) public mintedDailyWinnersTime;                  // tracks the last daily winners set time.\r\n                                                                          // be careful, if the daily winners setting doesn't set all 10 winners,\r\n                                                                          // you wouldn't be able to set missed winners in a next round\r\n    mapping(address => uint256) public mintedDailyClaimables;            // tracks amount of claimable nft for each user\r\n    mapping(address => Reward[]) public mintedDailyRewards;        // stores a session id where user won an nft.\r\n\r\n    // session id => addresses\r\n    mapping(address => uint256) public mintedAllTimeClaimables;          // tracks the amount of leaderboard winning in sessions for each user\r\n    mapping(address => Reward[]) public mintedAllTimeRewards;      // session id\r\n    \r\n    event SessionStarted(uint256 id, uint256 startTime, uint256 endTime, uint256 generation);\r\n    event Spent(address indexed owner, uint256 sessionId, uint256 balanceAmount, uint256 prevMintedTime, uint256 amount);\r\n    event Minted(address indexed owner, uint256 sessionId, uint256 nftId);\r\n    event Rewarded(address indexed owner, uint256 sessionId, string rewardType, uint256 amount);\t\r\n\t\r\n    constructor(address _crowns, address _factory, uint256 _minDeposit) public {\r\n\t// Starts at value 1. \r\n\tsessionId.increment();\r\n\r\n\tnftFactory = NftFactory(_factory);\r\n\r\n\tcrowns = CrownsToken(_crowns);\r\n\r\n\tminDeposit = _minDeposit;\r\n    }\r\n\r\n    \r\n    //--------------------------------------------------\r\n    // Only owner\r\n    //--------------------------------------------------\r\n    \r\n    /// @notice Starts a staking session for a finit _period of\r\n    /// time, starting from _startTime. The _totalReward of\r\n    /// CWS tokens will be distributed in every second. It allows to claim a\r\n    /// a _generation Seascape NFT.\r\n    /// @param _interval duration between claims\r\n    /// @param _period session duration\r\n    /// @param _startTime session start time in unix timestamp\r\n    /// @param _generation Seascape Nft generation that is given as a reward\r\n    function startSession(uint256 _interval, uint256 _period, uint256 _startTime, uint256 _generation) external onlyOwner {\r\n\tif (lastSessionId > 0) {\r\n\t    require(isStartedFor(lastSessionId)==false, \"NFT Rush: Can't start when session is active\");\r\n\t}\r\n\r\n\tuint256 _sessionId = sessionId.current();\r\n\r\n\tsessions[_sessionId] = Session(_interval, _period, _startTime, _generation, false, false);\r\n\r\n\tsessionId.increment();\r\n\tlastSessionId = _sessionId;\r\n\r\n\tspentDailyWinnersTime[_sessionId] = _startTime;\r\n\tmintedDailyWinnersTime[_sessionId] = _startTime;    \r\n\r\n\temit SessionStarted(_sessionId, _startTime, _startTime + _period, _generation);\r\n    }\r\n \r\n    \r\n    /// @notice Sets a NFT factory that will mint a token for stakers\r\n    function setNftFactory(address _address) external onlyOwner {\r\n\tnftFactory = NftFactory(_address);\r\n    }\r\n\r\n\r\n    function setMinDeposit(uint256 _deposit) external onlyOwner {\r\n\tminDeposit = _deposit;\r\n    }\r\n\r\n    function setAllRewards(uint256[10] memory _spentDaily, uint256[10] memory _spentAllTime, uint256[10] memory _mintedDaily, uint256[10] memory _mintedAllTime) public onlyOwner {\r\n\tsetDailySpents(_spentDaily);\r\n\tsetAllTimeSpents(_spentAllTime);\r\n\tsetDailyMinted(_mintedDaily);\r\n\tsetAllTimeMinted(_mintedAllTime);\r\n    }\r\n\r\n    function setAllSpents(uint256[10] memory _daily, uint256[10] memory _allTime) public onlyOwner {\r\n\tsetDailySpents(_daily);\r\n\tsetAllTimeSpents(_allTime);\r\n    }\r\n\r\n    function setAllMinted(uint256[10] memory _daily, uint256[10] memory _allTime) public onlyOwner {\r\n\tsetDailyMinted(_daily);\r\n\tsetAllTimeMinted(_allTime);\r\n    }\r\n\r\n\r\n    function setDailySpents(uint256[10] memory _rewards) public onlyOwner {\r\n\tspentDailyAmounts = _rewards;\r\n    }\r\n\r\n    function setAllTimeSpents(uint256[10] memory _rewards) public onlyOwner {\r\n\tspentAllTimeAmounts = _rewards;\r\n    }\r\n\r\n    function setDailyMinted(uint256[10] memory _rewards) public onlyOwner {\t    \r\n\tmintedDailyAmounts = _rewards;\r\n    }\r\n\r\n    function setAllTimeMinted(uint256[10] memory _rewards) public onlyOwner {\r\n\tmintedAllTimeAmounts = _rewards;\r\n    }\r\n    \r\n    function addDailySpentWinners(uint256 _sessionId, address[10] memory _winners, uint8 _amount) public onlyOwner {\r\n\t//require(isDailySpentWinnersAdded(_sessionId) == false, \"NFT Rush: already set or too early\");\r\n\trequire(_amount <= 10,                                 \"NFT Rush: too many winners\");\r\n\r\n        if (_amount > 0) {\r\n\t    uint256 _totalRewards = calculateTotalRewards(spentDailyAmounts, _amount);\t\r\n            require(crowns.transferFrom(owner(), address(this), _totalRewards) == true, \"NFT Rush: not enough CWS to give as a reward\");\t\r\n    \r\n            for (uint i=0; i<_amount; i++) {\r\n\t\tReward memory _reward = Reward(_sessionId, spentDailyAmounts[i]);\r\n\t\tspentDailyRewards[_winners[i]].push(_reward);\r\n\r\n\t\t// increase amount of daily rewards that msg.sender could claim\r\n\t\tspentDailyClaimables[_winners[i]] = spentDailyClaimables[_winners[i]].add(1);\r\n            }\r\n\t}\r\n\r\n \tsetDailySpentWinnersTime(_sessionId);\r\n    }\r\n\r\n    function addAllTimeSpentWinners(uint256 _sessionId, address[10] memory _winners, uint8 _amount) public onlyOwner {\r\n\trequire(isAllTimeSpentWinnersAdded(_sessionId) == false, \"NFT Rush: all time winners set already\");\r\n\trequire(_amount <= 10,                              \"NFT Rush: too many winners\");\r\n\r\n\tif (_amount > 0) {\t\t    \r\n\t    uint256 _totalRewards = calculateTotalRewards(spentAllTimeAmounts, _amount);\t\r\n            require(crowns.transferFrom(owner(), address(this), _totalRewards) == true, \"NFT Rush: not enough CWS to give as a reward\");\t\r\n    \r\n            for (uint i=0; i<_amount; i++) {\r\n\t\tReward memory _reward = Reward(_sessionId, spentAllTimeAmounts[i]);\r\n\t\tspentAllTimeRewards[_winners[i]].push(_reward);\r\n\r\n\t\t// increase amount of daily rewards that msg.sender could claim\r\n\t\tspentAllTimeClaimables[_winners[i]] = spentAllTimeClaimables[_winners[i]].add(1);\r\n            }\r\n\t}\r\n\r\n\tsetAllTimeSpentWinnersTime(_sessionId);\t\t\r\n    }\r\n\r\n    function addDailyMintedWinners(uint256 _sessionId, address[10] memory _winners, uint8 _amount) public onlyOwner {\r\n\trequire(isDailyMintedWinnersAdded(_sessionId) == false, \"NFT Rush: already set or too early\");\r\n\trequire(_amount <= 10,                                  \"NFT Rush: too many winners\");\r\n\r\n        if (_amount > 0) {\r\n\t    uint256 _totalRewards = calculateTotalRewards(mintedDailyAmounts, _amount);\t\r\n            require(crowns.transferFrom(owner(), address(this), _totalRewards) == true, \"NFT Rush: not enough CWS to give as a reward\");\t\r\n    \r\n            for (uint i=0; i<_amount; i++) {\r\n\t\tReward memory _reward = Reward(_sessionId, mintedDailyAmounts[i]);\r\n\t\tmintedDailyRewards[_winners[i]].push(_reward);\r\n\r\n\t\t// increase amount of daily rewards that msg.sender could claim\r\n\t\tmintedDailyClaimables[_winners[i]] = mintedDailyClaimables[_winners[i]].add(1);\r\n            }\r\n\t}\r\n\r\n \tsetDailyMintedWinnersTime(_sessionId);\r\n    }\r\n\r\n    function addAllTimeMintedWinners(uint256 _sessionId, address[10] memory _winners, uint8 _amount) public onlyOwner {\r\n\trequire(isAllTimeMintedWinnersAdded(_sessionId) == false, \"NFT Rush: all time winners set already\");\r\n\trequire(_amount <= 10,                                    \"NFT Rush: too many winners\");\r\n\r\n\tif (_amount > 0) {\t\t    \r\n\t    uint256 _totalRewards = calculateTotalRewards(mintedAllTimeAmounts, _amount);\t\r\n            require(crowns.transferFrom(owner(), address(this), _totalRewards) == true, \"NFT Rush: not enough CWS to give as a reward\");\t\r\n    \r\n            for (uint i=0; i<_amount; i++) {\r\n\t\tReward memory _reward = Reward(_sessionId, mintedAllTimeAmounts[i]);\r\n\t\tmintedAllTimeRewards[_winners[i]].push(_reward);\r\n\r\n\t\t// increase amount of daily rewards that msg.sender could claim\r\n\t\tmintedAllTimeClaimables[_winners[i]] = mintedAllTimeClaimables[_winners[i]].add(1);\r\n            }\r\n\t}\r\n\r\n\tsetAllTimeMintedWinnersTime(_sessionId);\t\t\r\n    }\r\n\r\n    //--------------------------------------------------\r\n    // Only game user\r\n    //--------------------------------------------------\r\n\r\n    /// @notice Spend _amount of LP token\r\n    /// of type _token into Staking contract.\r\n    function spend(uint256 _sessionId, uint256 _amount) external {\r\n\trequire(_amount >= minDeposit,     \"NFT Rush: Amount to deposit should be greater than min deposit\");\r\n\trequire(_sessionId > 0,           \"NFT Rush: Session is not started yet!\");\r\n\trequire(isStartedFor(_sessionId), \"NFT Rush: Session is finished\");\r\n\r\n\trequire(crowns.balanceOf(msg.sender) >= _amount,\r\n\t\t\"NFT Rush: Not enough CWS to deposit\");\r\n\trequire(crowns.spendFrom(msg.sender, _amount) == true,\r\n\t\t\"NFT Rush: Failed to transfer CWS into contract\");\r\n\r\n\tBalance storage _balance  = balances[_sessionId][msg.sender];\r\n\r\n\t_balance.amount = _balance.amount.add(_amount);\r\n\t\r\n\tdepositTime[_sessionId][msg.sender]    = block.timestamp;\r\n       \r\n        emit Spent(msg.sender, _sessionId, _balance.amount, _balance.mintedTime, _amount);\r\n    }\r\n\r\n\r\n    /// @dev mints an nft\r\n    function mint(uint256 _sessionId, uint8 _v, bytes32 _r, bytes32 _s, uint8 _quality) public {\r\n\tSession storage _session = sessions[_sessionId];\r\n\tBalance storage _balance = balances[_sessionId][msg.sender];\r\n\r\n\trequire(_balance.amount > 0, \"NFT Rush: No deposit was found\");\r\n\r\n\t/// Validation of quality\r\n\t// message is generated as owner + amount + last time stamp + quality\r\n\tbytes memory _prefix = \"\\x19Ethereum Signed Message:\\n32\";\r\n\tbytes32 _messageNoPrefix = keccak256(abi.encodePacked(msg.sender, _balance.amount, _balance.mintedTime, _quality));\r\n\r\n\tbytes32 _message = keccak256(abi.encodePacked(_prefix, _messageNoPrefix));\r\n\r\n\taddress _recover = ecrecover(_message, _v, _r, _s);\r\n\r\n\trequire(_recover == owner(),\r\n\t\t\"NFT Rush: Quality verification failed\");\r\n\r\n\trequire(_balance.mintedTime == 0 || (_balance.mintedTime + _session.interval < block.timestamp),\r\n\t\t\"NFT Rush: not enough interval since last minted time\");\r\n\t\r\n        uint256 _tokenId = nftFactory.mintQuality(msg.sender, _session.generation, _quality);\r\n\trequire(_tokenId > 0, \"NFT Rush: failed to mint a token\");\r\n\t\r\n\r\n\t_balance.mintedTime = block.timestamp;\r\n\t_balance.amount = 0;\r\n\r\n\temit Minted(msg.sender, _sessionId, _tokenId);\r\n    }\r\n\r\n    function claimDailySpent() public {\r\n\trequire(spentDailyClaimables[_msgSender()] > 0, \"NFT Rush: reward not found\");\r\n\r\n\tuint256 _claimAmount = spentDailyClaimables[_msgSender()];\r\n\tReward[] storage _reward = spentDailyRewards[_msgSender()];\r\n\r\n\tuint256 _sessionId = _reward[_claimAmount-1].sessionId;\t\t\r\n\tuint256 _amount = _reward[_claimAmount-1].cws;\r\n\r\n\trequire(crowns.transfer(_msgSender(), _amount) == true, \"NFT Rush: failed to reward CWS to winner\");\r\n\tdelete _reward[_claimAmount-1];\r\n\tspentDailyClaimables[_msgSender()] = _claimAmount.sub(1);\r\n\t    \r\n\temit Rewarded(msg.sender, _sessionId, \"spent-daily\", _amount);\r\n    }\r\n\r\n    function claimAllTimeSpent() public {\r\n\trequire(spentAllTimeClaimables[_msgSender()] > 0, \"NFT Rush: reward not found\");\r\n\r\n\tuint256 _claimAmount = spentAllTimeClaimables[_msgSender()];\r\n\tReward[] storage _reward = spentAllTimeRewards[_msgSender()];\r\n\r\n\tuint256 _sessionId = _reward[_claimAmount-1].sessionId;\r\n\tuint256 _amount = _reward[_claimAmount-1].cws;\r\n\r\n\trequire(crowns.transfer(_msgSender(), _amount) == true, \"NFT Rush: failed to reward CWS to winner\");\r\n\tdelete _reward[_claimAmount-1];\r\n\tspentAllTimeClaimables[_msgSender()] = _claimAmount.sub(1);\r\n\t    \r\n\temit Rewarded(msg.sender, _sessionId, \"spent-alltime\", _amount);\r\n    }\r\n\r\n    function claimDailyMinted() public {\t    \r\n\trequire(mintedDailyClaimables[_msgSender()] > 0, \"NFT Rush: reward not found\");\r\n\r\n\tuint256 _claimAmount = mintedDailyClaimables[_msgSender()];\r\n\tReward[] storage _reward = mintedDailyRewards[_msgSender()];\r\n\r\n\tuint256 _sessionId = _reward[_claimAmount-1].sessionId;\t\t\r\n\tuint256 _amount = _reward[_claimAmount-1].cws;\r\n\r\n\trequire(crowns.transfer(_msgSender(), _amount) == true, \"NFT Rush: failed to reward CWS to winner\");\r\n\tdelete _reward[_claimAmount-1];\r\n\tmintedDailyClaimables[_msgSender()] = _claimAmount.sub(1);\r\n\t    \r\n\temit Rewarded(msg.sender, _sessionId, \"minted-daily\", _amount);\r\n    }\r\n\r\n    function claimAllTimeMinted() public {\r\n\trequire(mintedAllTimeClaimables[_msgSender()] > 0, \"NFT Rush: reward not found\");\r\n\r\n\tuint256 _claimAmount = mintedAllTimeClaimables[_msgSender()];\r\n\tReward[] storage _reward = mintedAllTimeRewards[_msgSender()];\r\n\r\n\tuint256 _sessionId = _reward[_claimAmount-1].sessionId;\r\n\tuint256 _amount = _reward[_claimAmount-1].cws;\r\n\r\n\trequire(crowns.transfer(_msgSender(), _amount) == true, \"NFT Rush: failed to reward CWS to winner\");\r\n\tdelete _reward[_claimAmount-1];\r\n\tmintedAllTimeClaimables[_msgSender()] = _claimAmount.sub(1);\r\n\t    \r\n\temit Rewarded(msg.sender, _sessionId, \"minted-alltime\", _amount);\r\n    }\r\n\r\n    //--------------------------------------------------\r\n    // Public methods\r\n    //--------------------------------------------------\r\n\r\n\r\n    //--------------------------------------------------\r\n    // Interval methods\r\n    //--------------------------------------------------\r\n    \r\n    function isStartedFor(uint256 _sessionId) internal view returns(bool) {\r\n\tif (now > sessions[_sessionId].startTime + sessions[_sessionId].period) {\r\n\t    return false;\r\n\t}\r\n\r\n\treturn true;\r\n    }\r\n\r\n    function isDailySpentWinnersAdded(uint256 _sessionId) internal view returns(bool) {\r\n\treturn block.timestamp < spentDailyWinnersTime[_sessionId] + (1 days);\r\n    }\r\n\r\n\r\n    function setDailySpentWinnersTime(uint256 _sessionId) internal {\r\n\tspentDailyWinnersTime[_sessionId] = block.timestamp + (1 days);\r\n    }\r\n    \r\n    function isAllTimeSpentWinnersAdded(uint256 _sessionId) internal view returns(bool) {\r\n\tSession storage _session = sessions[_sessionId];\r\n\treturn isStartedFor(_sessionId) == false && _session.startTime > 0 && _session.spentWinnersSet == false;\r\n    }\r\n\r\n\r\n    function setAllTimeSpentWinnersTime(uint256 _sessionId) internal {\r\n\tsessions[_sessionId].spentWinnersSet = true;\r\n    }\r\n\r\n    function isDailyMintedWinnersAdded(uint256 _sessionId) internal view returns(bool) {\r\n\treturn block.timestamp < mintedDailyWinnersTime[_sessionId] + (1 days);\r\n    }\r\n\r\n\r\n    function setDailyMintedWinnersTime(uint256 _sessionId) internal {\r\n\tmintedDailyWinnersTime[_sessionId] = block.timestamp + (1 days);\r\n    }\r\n    \r\n    function isAllTimeMintedWinnersAdded(uint256 _sessionId) internal view returns(bool) {\r\n\tSession storage _session = sessions[_sessionId];\r\n\treturn isStartedFor(_sessionId) == false && _session.startTime > 0 && _session.mintedWinnersSet == false;\r\n    }\r\n\r\n\r\n    function setAllTimeMintedWinnersTime(uint256 _sessionId) internal {\r\n\tsessions[_sessionId].mintedWinnersSet = true;\r\n    }\r\n\r\n    function calculateTotalRewards(uint256[10] memory _rewards, uint256 _amount) internal returns (uint256) {\r\n\tuint256 _totalReward = 0;\r\n\tfor (uint i=0; i<_amount; i++) {\r\n\t    _totalReward = _totalReward.add(_rewards[i]);\r\n\t}\r\n\r\n\treturn _totalReward;\r\n    }\r\n}\r\n",
  "sourcePath": "/home/node/app/contracts/game_2/NftRush.sol",
  "compiler": {
    "name": "solc",
    "version": "0.6.7+commit.b8d736ae.Emscripten.clang"
  },
  "schemaVersion": "3.3.0",
  "updatedAt": "2020-12-07T11:24:19.766Z",
  "networkType": "ethereum",
  "devdoc": {
    "methods": {
      "mint(uint256,uint8,bytes32,bytes32,uint8)": {
        "details": "mints an nft"
      },
      "owner()": {
        "details": "Returns the address of the current owner."
      },
      "renounceOwnership()": {
        "details": "Leaves the contract without owner. It will not be possible to call `onlyOwner` functions anymore. Can only be called by the current owner.     * NOTE: Renouncing ownership will leave the contract without an owner, thereby removing any functionality that is only available to the owner."
      },
      "startSession(uint256,uint256,uint256,uint256)": {
        "params": {
          "_generation": "Seascape Nft generation that is given as a reward",
          "_interval": "duration between claims",
          "_period": "session duration",
          "_startTime": "session start time in unix timestamp"
        }
      },
      "transferOwnership(address)": {
        "details": "Transfers ownership of the contract to a new account (`newOwner`). Can only be called by the current owner."
      }
    }
  },
  "userdoc": {
    "methods": {
      "setNftFactory(address)": {
        "notice": "Sets a NFT factory that will mint a token for stakers"
      },
      "spend(uint256,uint256)": {
        "notice": "Spend _amount of LP token of type _token into Staking contract."
      },
      "startSession(uint256,uint256,uint256,uint256)": {
        "notice": "Starts a staking session for a finit _period of time, starting from _startTime. The _totalReward of CWS tokens will be distributed in every second. It allows to claim a a _generation Seascape NFT."
      }
    }
  }
}