{
  "contractName": "NftRush",
  "abi": [
    {
      "inputs": [
        {
          "internalType": "address",
          "name": "_crowns",
          "type": "address"
        },
        {
          "internalType": "address",
          "name": "_factory",
          "type": "address"
        },
        {
          "internalType": "uint256",
          "name": "_minSpend",
          "type": "uint256"
        },
        {
          "internalType": "uint256",
          "name": "_maxSpend",
          "type": "uint256"
        }
      ],
      "stateMutability": "nonpayable",
      "type": "constructor"
    },
    {
      "anonymous": false,
      "inputs": [
        {
          "indexed": true,
          "internalType": "address",
          "name": "owner",
          "type": "address"
        },
        {
          "indexed": false,
          "internalType": "uint256",
          "name": "sessionId",
          "type": "uint256"
        },
        {
          "indexed": false,
          "internalType": "uint256",
          "name": "nftId",
          "type": "uint256"
        }
      ],
      "name": "Minted",
      "type": "event"
    },
    {
      "anonymous": false,
      "inputs": [
        {
          "indexed": true,
          "internalType": "address",
          "name": "previousOwner",
          "type": "address"
        },
        {
          "indexed": true,
          "internalType": "address",
          "name": "newOwner",
          "type": "address"
        }
      ],
      "name": "OwnershipTransferred",
      "type": "event"
    },
    {
      "anonymous": false,
      "inputs": [
        {
          "indexed": true,
          "internalType": "address",
          "name": "owner",
          "type": "address"
        },
        {
          "indexed": false,
          "internalType": "string",
          "name": "rewardType",
          "type": "string"
        },
        {
          "indexed": false,
          "internalType": "uint256",
          "name": "amount",
          "type": "uint256"
        }
      ],
      "name": "Rewarded",
      "type": "event"
    },
    {
      "anonymous": false,
      "inputs": [
        {
          "indexed": false,
          "internalType": "uint256",
          "name": "id",
          "type": "uint256"
        },
        {
          "indexed": false,
          "internalType": "uint256",
          "name": "startTime",
          "type": "uint256"
        },
        {
          "indexed": false,
          "internalType": "uint256",
          "name": "endTime",
          "type": "uint256"
        },
        {
          "indexed": false,
          "internalType": "uint256",
          "name": "generation",
          "type": "uint256"
        }
      ],
      "name": "SessionStarted",
      "type": "event"
    },
    {
      "anonymous": false,
      "inputs": [
        {
          "indexed": true,
          "internalType": "address",
          "name": "owner",
          "type": "address"
        },
        {
          "indexed": false,
          "internalType": "uint256",
          "name": "sessionId",
          "type": "uint256"
        },
        {
          "indexed": false,
          "internalType": "uint256",
          "name": "balanceAmount",
          "type": "uint256"
        },
        {
          "indexed": false,
          "internalType": "uint256",
          "name": "prevMintedTime",
          "type": "uint256"
        },
        {
          "indexed": false,
          "internalType": "uint256",
          "name": "amount",
          "type": "uint256"
        }
      ],
      "name": "Spent",
      "type": "event"
    },
    {
      "inputs": [
        {
          "internalType": "uint256",
          "name": "_sessionId",
          "type": "uint256"
        },
        {
          "internalType": "address[10]",
          "name": "_spentWinners",
          "type": "address[10]"
        },
        {
          "internalType": "uint8",
          "name": "_spentWinnersAmount",
          "type": "uint8"
        },
        {
          "internalType": "address[10]",
          "name": "_mintedWinners",
          "type": "address[10]"
        },
        {
          "internalType": "uint8",
          "name": "_mintedWinnersAmount",
          "type": "uint8"
        }
      ],
      "name": "announceAllTimeWinners",
      "outputs": [],
      "stateMutability": "nonpayable",
      "type": "function"
    },
    {
      "inputs": [
        {
          "internalType": "uint256",
          "name": "_sessionId",
          "type": "uint256"
        },
        {
          "internalType": "address[10]",
          "name": "_spentWinners",
          "type": "address[10]"
        },
        {
          "internalType": "uint8",
          "name": "_spentWinnersAmount",
          "type": "uint8"
        },
        {
          "internalType": "address[10]",
          "name": "_mintedWinners",
          "type": "address[10]"
        },
        {
          "internalType": "uint8",
          "name": "_mintedWinnersAmount",
          "type": "uint8"
        }
      ],
      "name": "announceDailyWinners",
      "outputs": [],
      "stateMutability": "nonpayable",
      "type": "function"
    },
    {
      "inputs": [
        {
          "internalType": "uint256",
          "name": "",
          "type": "uint256"
        }
      ],
      "name": "announcement",
      "outputs": [
        {
          "internalType": "bool",
          "name": "spent",
          "type": "bool"
        },
        {
          "internalType": "bool",
          "name": "minted",
          "type": "bool"
        },
        {
          "internalType": "uint256",
          "name": "dailySpentTime",
          "type": "uint256"
        },
        {
          "internalType": "uint256",
          "name": "dailyMintedTime",
          "type": "uint256"
        }
      ],
      "stateMutability": "view",
      "type": "function",
      "constant": true
    },
    {
      "inputs": [
        {
          "internalType": "uint256",
          "name": "",
          "type": "uint256"
        },
        {
          "internalType": "address",
          "name": "",
          "type": "address"
        }
      ],
      "name": "balances",
      "outputs": [
        {
          "internalType": "uint256",
          "name": "amount",
          "type": "uint256"
        },
        {
          "internalType": "uint256",
          "name": "mintedTime",
          "type": "uint256"
        }
      ],
      "stateMutability": "view",
      "type": "function",
      "constant": true
    },
    {
      "inputs": [],
      "name": "claimAllTimeMinted",
      "outputs": [],
      "stateMutability": "nonpayable",
      "type": "function"
    },
    {
      "inputs": [],
      "name": "claimAllTimeSpent",
      "outputs": [],
      "stateMutability": "nonpayable",
      "type": "function"
    },
    {
      "inputs": [],
      "name": "claimDailyMinted",
      "outputs": [],
      "stateMutability": "nonpayable",
      "type": "function"
    },
    {
      "inputs": [],
      "name": "claimDailySpent",
      "outputs": [],
      "stateMutability": "nonpayable",
      "type": "function"
    },
    {
      "inputs": [],
      "name": "crowns",
      "outputs": [
        {
          "internalType": "contract CrownsToken",
          "name": "",
          "type": "address"
        }
      ],
      "stateMutability": "view",
      "type": "function",
      "constant": true
    },
    {
      "inputs": [
        {
          "internalType": "uint256",
          "name": "_sessionId",
          "type": "uint256"
        }
      ],
      "name": "isActive",
      "outputs": [
        {
          "internalType": "bool",
          "name": "",
          "type": "bool"
        }
      ],
      "stateMutability": "view",
      "type": "function",
      "constant": true
    },
    {
      "inputs": [],
      "name": "lastSessionId",
      "outputs": [
        {
          "internalType": "uint256",
          "name": "",
          "type": "uint256"
        }
      ],
      "stateMutability": "view",
      "type": "function",
      "constant": true
    },
    {
      "inputs": [],
      "name": "maxSpend",
      "outputs": [
        {
          "internalType": "uint256",
          "name": "",
          "type": "uint256"
        }
      ],
      "stateMutability": "view",
      "type": "function",
      "constant": true
    },
    {
      "inputs": [],
      "name": "minSpend",
      "outputs": [
        {
          "internalType": "uint256",
          "name": "",
          "type": "uint256"
        }
      ],
      "stateMutability": "view",
      "type": "function",
      "constant": true
    },
    {
      "inputs": [
        {
          "internalType": "address",
          "name": "",
          "type": "address"
        }
      ],
      "name": "mintedAllTimeClaimables",
      "outputs": [
        {
          "internalType": "uint256",
          "name": "",
          "type": "uint256"
        }
      ],
      "stateMutability": "view",
      "type": "function",
      "constant": true
    },
    {
      "inputs": [
        {
          "internalType": "uint256",
          "name": "",
          "type": "uint256"
        }
      ],
      "name": "mintedAllTimePrizes",
      "outputs": [
        {
          "internalType": "uint256",
          "name": "",
          "type": "uint256"
        }
      ],
      "stateMutability": "view",
      "type": "function",
      "constant": true
    },
    {
      "inputs": [
        {
          "internalType": "address",
          "name": "",
          "type": "address"
        }
      ],
      "name": "mintedDailyClaimables",
      "outputs": [
        {
          "internalType": "uint256",
          "name": "",
          "type": "uint256"
        }
      ],
      "stateMutability": "view",
      "type": "function",
      "constant": true
    },
    {
      "inputs": [
        {
          "internalType": "uint256",
          "name": "",
          "type": "uint256"
        }
      ],
      "name": "mintedDailyPrizes",
      "outputs": [
        {
          "internalType": "uint256",
          "name": "",
          "type": "uint256"
        }
      ],
      "stateMutability": "view",
      "type": "function",
      "constant": true
    },
    {
      "inputs": [],
      "name": "owner",
      "outputs": [
        {
          "internalType": "address",
          "name": "",
          "type": "address"
        }
      ],
      "stateMutability": "view",
      "type": "function",
      "constant": true
    },
    {
      "inputs": [],
      "name": "renounceOwnership",
      "outputs": [],
      "stateMutability": "nonpayable",
      "type": "function"
    },
    {
      "inputs": [
        {
          "internalType": "uint256",
          "name": "",
          "type": "uint256"
        }
      ],
      "name": "sessions",
      "outputs": [
        {
          "internalType": "uint256",
          "name": "interval",
          "type": "uint256"
        },
        {
          "internalType": "uint256",
          "name": "period",
          "type": "uint256"
        },
        {
          "internalType": "uint256",
          "name": "startTime",
          "type": "uint256"
        },
        {
          "internalType": "uint256",
          "name": "generation",
          "type": "uint256"
        }
      ],
      "stateMutability": "view",
      "type": "function",
      "constant": true
    },
    {
      "inputs": [
        {
          "internalType": "uint256[10]",
          "name": "_spentDaily",
          "type": "uint256[10]"
        },
        {
          "internalType": "uint256[10]",
          "name": "_spentAllTime",
          "type": "uint256[10]"
        },
        {
          "internalType": "uint256[10]",
          "name": "_mintedDaily",
          "type": "uint256[10]"
        },
        {
          "internalType": "uint256[10]",
          "name": "_mintedAllTime",
          "type": "uint256[10]"
        }
      ],
      "name": "setPrizes",
      "outputs": [],
      "stateMutability": "nonpayable",
      "type": "function"
    },
    {
      "inputs": [
        {
          "internalType": "address",
          "name": "",
          "type": "address"
        }
      ],
      "name": "spentAllTimeClaimables",
      "outputs": [
        {
          "internalType": "uint256",
          "name": "",
          "type": "uint256"
        }
      ],
      "stateMutability": "view",
      "type": "function",
      "constant": true
    },
    {
      "inputs": [
        {
          "internalType": "uint256",
          "name": "",
          "type": "uint256"
        }
      ],
      "name": "spentAllTimePrizes",
      "outputs": [
        {
          "internalType": "uint256",
          "name": "",
          "type": "uint256"
        }
      ],
      "stateMutability": "view",
      "type": "function",
      "constant": true
    },
    {
      "inputs": [
        {
          "internalType": "address",
          "name": "",
          "type": "address"
        }
      ],
      "name": "spentDailyClaimables",
      "outputs": [
        {
          "internalType": "uint256",
          "name": "",
          "type": "uint256"
        }
      ],
      "stateMutability": "view",
      "type": "function",
      "constant": true
    },
    {
      "inputs": [
        {
          "internalType": "uint256",
          "name": "",
          "type": "uint256"
        }
      ],
      "name": "spentDailyPrizes",
      "outputs": [
        {
          "internalType": "uint256",
          "name": "",
          "type": "uint256"
        }
      ],
      "stateMutability": "view",
      "type": "function",
      "constant": true
    },
    {
      "inputs": [
        {
          "internalType": "address",
          "name": "newOwner",
          "type": "address"
        }
      ],
      "name": "transferOwnership",
      "outputs": [],
      "stateMutability": "nonpayable",
      "type": "function"
    },
    {
      "inputs": [
        {
          "internalType": "uint256",
          "name": "_interval",
          "type": "uint256"
        },
        {
          "internalType": "uint256",
          "name": "_period",
          "type": "uint256"
        },
        {
          "internalType": "uint256",
          "name": "_startTime",
          "type": "uint256"
        },
        {
          "internalType": "uint256",
          "name": "_generation",
          "type": "uint256"
        }
      ],
      "name": "startSession",
      "outputs": [],
      "stateMutability": "nonpayable",
      "type": "function"
    },
    {
      "inputs": [
        {
          "internalType": "address",
          "name": "_address",
          "type": "address"
        }
      ],
      "name": "setNftFactory",
      "outputs": [],
      "stateMutability": "nonpayable",
      "type": "function"
    },
    {
      "inputs": [
        {
          "internalType": "uint256",
          "name": "_amount",
          "type": "uint256"
        }
      ],
      "name": "setMinSpendAmount",
      "outputs": [],
      "stateMutability": "nonpayable",
      "type": "function"
    },
    {
      "inputs": [
        {
          "internalType": "uint256",
          "name": "_amount",
          "type": "uint256"
        }
      ],
      "name": "setMaxSpendAmount",
      "outputs": [],
      "stateMutability": "nonpayable",
      "type": "function"
    },
    {
      "inputs": [
        {
          "internalType": "uint256",
          "name": "_sessionId",
          "type": "uint256"
        },
        {
          "internalType": "uint256",
          "name": "_amount",
          "type": "uint256"
        }
      ],
      "name": "spend",
      "outputs": [],
      "stateMutability": "nonpayable",
      "type": "function"
    },
    {
      "inputs": [
        {
          "internalType": "uint256",
          "name": "_sessionId",
          "type": "uint256"
        },
        {
          "internalType": "uint8",
          "name": "_v",
          "type": "uint8"
        },
        {
          "internalType": "bytes32",
          "name": "_r",
          "type": "bytes32"
        },
        {
          "internalType": "bytes32",
          "name": "_s",
          "type": "bytes32"
        },
        {
          "internalType": "uint8",
          "name": "_quality",
          "type": "uint8"
        }
      ],
      "name": "mint",
      "outputs": [],
      "stateMutability": "nonpayable",
      "type": "function"
    }
  ],
  "bytecode": "0x60806040523480156200001157600080fd5b5060405162004b9138038062004b91833981810160405260808110156200003757600080fd5b81019080805190602001909291908051906020019092919080519060200190929190805190602001909291905050506000620000786200025160201b60201c565b9050806000806101000a81548173ffffffffffffffffffffffffffffffffffffffff021916908373ffffffffffffffffffffffffffffffffffffffff1602179055508073ffffffffffffffffffffffffffffffffffffffff16600073ffffffffffffffffffffffffffffffffffffffff167f8be0079c531659141344cd1fd0a4f28419497f9722a3daafe3b4186f6b6457e060405160405180910390a350600082116200018d576040517f08c379a00000000000000000000000000000000000000000000000000000000081526004018080602001828103825260148152602001807f4d696e207370656e642063616e2774206265203000000000000000000000000081525060200191505060405180910390fd5b818111620001e7576040517f08c379a000000000000000000000000000000000000000000000000000000000815260040180806020018281038252602a81526020018062004b67602a913960400191505060405180910390fd5b82603160006101000a81548173ffffffffffffffffffffffffffffffffffffffff021916908373ffffffffffffffffffffffffffffffffffffffff16021790555062000239846200025960201b60201c565b8160328190555080603381905550505050506200029d565b600033905090565b80600360006101000a81548173ffffffffffffffffffffffffffffffffffffffff021916908373ffffffffffffffffffffffffffffffffffffffff16021790555050565b6148ba80620002ad6000396000f3fe608060405234801561001057600080fd5b50600436106101f05760003560e01c806389fe9e381161010f578063b3a49eae116100a2578063cf9f2c2411610071578063cf9f2c2414610a93578063da8d09e714610a9d578063ea5ed05d14610adf578063f2fde38b14610b29576101f0565b8063b3a49eae14610969578063bc3d8258146109a1578063bcabb373146109f9578063c02d6f0c14610a3b576101f0565b806398525b15116100de57806398525b15146108ff5780639da0ac1d146109095780639e5abe5d146109555780639ea248441461095f576101f0565b806389fe9e38146108015780638da5cb5b1461082f57806390b13ca114610879578063976976e5146108d1576101f0565b80633c3f4c6311610187578063672644f611610156578063672644f6146106fe578063715018a61461075a57806382afd23b1461076457806383c4b7a3146107aa576101f0565b80633c3f4c63146105d75780633f05fdfa146105f5578063421653f7146106c257806348dddca8146106e0576101f0565b80631f7a7fe3116101c35780631f7a7fe3146103c75780632e67dfb5146104f45780633184524c14610536578063355d080c14610578576101f0565b80630dac9962146101f55780631a2f32dc146102395780631b1e305c146103065780631f3203311461035e575b600080fd5b6102376004803603602081101561020b57600080fd5b81019080803573ffffffffffffffffffffffffffffffffffffffff169060200190929190505050610b6d565b005b61030460048036036102e081101561025057600080fd5b8101908080359060200190929190806101400190600a806020026040519081016040528092919082600a60200280828437600081840152601f19601f8201169050808301925050505050509192919290803560ff169060200190929190806101400190600a806020026040519081016040528092919082600a60200280828437600081840152601f19601f8201169050808301925050505050509192919290803560ff169060200190929190505050610c7a565b005b6103486004803603602081101561031c57600080fd5b81019080803573ffffffffffffffffffffffffffffffffffffffff169060200190929190505050610d60565b6040518082815260200191505060405180910390f35b6103aa6004803603604081101561037457600080fd5b8101908080359060200190929190803573ffffffffffffffffffffffffffffffffffffffff169060200190929190505050610d78565b604051808381526020018281526020019250505060405180910390f35b6104f260048036036105008110156103de57600080fd5b81019080806101400190600a806020026040519081016040528092919082600a60200280828437600081840152601f19601f8201169050808301925050505050509192919290806101400190600a806020026040519081016040528092919082600a60200280828437600081840152601f19601f8201169050808301925050505050509192919290806101400190600a806020026040519081016040528092919082600a60200280828437600081840152601f19601f8201169050808301925050505050509192919290806101400190600a806020026040519081016040528092919082600a60200280828437600081840152601f19601f8201169050808301925050505050509192919290505050610da9565b005b6105206004803603602081101561050a57600080fd5b8101908080359060200190929190505050610ec0565b6040518082815260200191505060405180910390f35b6105626004803603602081101561054c57600080fd5b8101908080359060200190929190505050610ed8565b6040518082815260200191505060405180910390f35b6105a46004803603602081101561058e57600080fd5b8101908080359060200190929190505050610ef0565b60405180851515151581526020018415151515815260200183815260200182815260200194505050505060405180910390f35b6105df610f3a565b6040518082815260200191505060405180910390f35b6106c060048036036102e081101561060c57600080fd5b8101908080359060200190929190806101400190600a806020026040519081016040528092919082600a60200280828437600081840152601f19601f8201169050808301925050505050509192919290803560ff169060200190929190806101400190600a806020026040519081016040528092919082600a60200280828437600081840152601f19601f8201169050808301925050505050509192919290803560ff169060200190929190505050610f40565b005b6106ca611026565b6040518082815260200191505060405180910390f35b6106e8611037565b6040518082815260200191505060405180910390f35b610758600480360360a081101561071457600080fd5b8101908080359060200190929190803560ff1690602001909291908035906020019092919080359060200190929190803560ff16906020019092919050505061103d565b005b6107626115bb565b005b6107906004803603602081101561077a57600080fd5b8101908080359060200190929190505050611743565b604051808215151515815260200191505060405180910390f35b6107d6600480360360208110156107c057600080fd5b810190808035906020019092919050505061178e565b6040518085815260200184815260200183815260200182815260200194505050505060405180910390f35b61082d6004803603602081101561081757600080fd5b81019080803590602001909291905050506117be565b005b6108376118eb565b604051808273ffffffffffffffffffffffffffffffffffffffff1673ffffffffffffffffffffffffffffffffffffffff16815260200191505060405180910390f35b6108bb6004803603602081101561088f57600080fd5b81019080803573ffffffffffffffffffffffffffffffffffffffff169060200190929190505050611914565b6040518082815260200191505060405180910390f35b6108fd600480360360208110156108e757600080fd5b810190808035906020019092919050505061192c565b005b610907611a58565b005b6109536004803603608081101561091f57600080fd5b8101908080359060200190929190803590602001909291908035906020019092919080359060200190929190505050611d66565b005b61095d611ecd565b005b6109676121db565b005b61099f6004803603604081101561097f57600080fd5b8101908080359060200190929190803590602001909291905050506124e9565b005b6109e3600480360360208110156109b757600080fd5b81019080803573ffffffffffffffffffffffffffffffffffffffff1690602001909291905050506129cb565b6040518082815260200191505060405180910390f35b610a2560048036036020811015610a0f57600080fd5b81019080803590602001909291905050506129e3565b6040518082815260200191505060405180910390f35b610a7d60048036036020811015610a5157600080fd5b81019080803573ffffffffffffffffffffffffffffffffffffffff1690602001909291905050506129fb565b6040518082815260200191505060405180910390f35b610a9b612a13565b005b610ac960048036036020811015610ab357600080fd5b8101908080359060200190929190505050612d21565b6040518082815260200191505060405180910390f35b610ae7612d39565b604051808273ffffffffffffffffffffffffffffffffffffffff1673ffffffffffffffffffffffffffffffffffffffff16815260200191505060405180910390f35b610b6b60048036036020811015610b3f57600080fd5b81019080803573ffffffffffffffffffffffffffffffffffffffff169060200190929190505050612d5f565b005b610b75612f6c565b73ffffffffffffffffffffffffffffffffffffffff166000809054906101000a900473ffffffffffffffffffffffffffffffffffffffff1673ffffffffffffffffffffffffffffffffffffffff1614610c36576040517f08c379a00000000000000000000000000000000000000000000000000000000081526004018080602001828103825260208152602001807f4f776e61626c653a2063616c6c6572206973206e6f7420746865206f776e657281525060200191505060405180910390fd5b80603160006101000a81548173ffffffffffffffffffffffffffffffffffffffff021916908373ffffffffffffffffffffffffffffffffffffffff16021790555050565b610c82612f6c565b73ffffffffffffffffffffffffffffffffffffffff166000809054906101000a900473ffffffffffffffffffffffffffffffffffffffff1673ffffffffffffffffffffffffffffffffffffffff1614610d43576040517f08c379a00000000000000000000000000000000000000000000000000000000081526004018080602001828103825260208152602001807f4f776e61626c653a2063616c6c6572206973206e6f7420746865206f776e657281525060200191505060405180910390fd5b610d4e858585612f74565b610d59858383613380565b5050505050565b60306020528060005260406000206000915090505481565b6034602052816000526040600020602052806000526040600020600091509150508060000154908060010154905082565b610db1612f6c565b73ffffffffffffffffffffffffffffffffffffffff166000809054906101000a900473ffffffffffffffffffffffffffffffffffffffff1673ffffffffffffffffffffffffffffffffffffffff1614610e72576040517f08c379a00000000000000000000000000000000000000000000000000000000081526004018080602001828103825260208152602001807f4f776e61626c653a2063616c6c6572206973206e6f7420746865206f776e657281525060200191505060405180910390fd5b83600590600a610e8392919061448f565b5082600f90600a610e9592919061448f565b5081601990600a610ea792919061448f565b5080602390600a610eb992919061448f565b5050505050565b601981600a8110610ecd57fe5b016000915090505481565b602381600a8110610ee557fe5b016000915090505481565b60046020528060005260406000206000915090508060000160009054906101000a900460ff16908060000160019054906101000a900460ff16908060010154908060020154905084565b60335481565b610f48612f6c565b73ffffffffffffffffffffffffffffffffffffffff166000809054906101000a900473ffffffffffffffffffffffffffffffffffffffff1673ffffffffffffffffffffffffffffffffffffffff1614611009576040517f08c379a00000000000000000000000000000000000000000000000000000000081526004018080602001828103825260208152602001807f4f776e61626c653a2063616c6c6572206973206e6f7420746865206f776e657281525060200191505060405180910390fd5b6110148585856137a9565b61101f858383613bb5565b5050505050565b60006110326001613fde565b905090565b60325481565b600060026000878152602001908152602001600020905060006034600088815260200190815260200160002060003373ffffffffffffffffffffffffffffffffffffffff1673ffffffffffffffffffffffffffffffffffffffff16815260200190815260200160002090506000816000015411611122576040517f08c379a000000000000000000000000000000000000000000000000000000000815260040180806020018281038252601e8152602001807f4e465420527573683a204e6f206465706f7369742077617320666f756e64000081525060200191505060405180910390fd5b60008160010154148061114e57504261114c83600001548360010154613fec90919063ffffffff16565b105b6111a3576040517f08c379a00000000000000000000000000000000000000000000000000000000081526004018080602001828103825260518152602001806146a16051913960600191505060405180910390fd5b60606040518060400160405280601c81526020017f19457468657265756d205369676e6564204d6573736167653a0a33320000000081525090506000338360000154846001015487604051602001808573ffffffffffffffffffffffffffffffffffffffff1673ffffffffffffffffffffffffffffffffffffffff1660601b81526014018481526020018381526020018260ff1660ff1660f81b8152600101945050505050604051602081830303815290604052805190602001209050600082826040516020018083805190602001908083835b6020831061129a5780518252602082019150602081019050602083039250611277565b6001836020036101000a0380198251168184511680821785525050505050509050018281526020019250505060405160208183030381529060405280519060200120905060006001828b8b8b60405160008152602001604052604051808581526020018460ff1660ff1681526020018381526020018281526020019450505050506020604051602081039080840390855afa15801561133d573d6000803e3d6000fd5b5050506020604051035190506113516118eb565b73ffffffffffffffffffffffffffffffffffffffff168173ffffffffffffffffffffffffffffffffffffffff16146113d4576040517f08c379a000000000000000000000000000000000000000000000000000000000815260040180806020018281038252602c8152602001806145ff602c913960400191505060405180910390fd5b6000603160009054906101000a900473ffffffffffffffffffffffffffffffffffffffff1673ffffffffffffffffffffffffffffffffffffffff16635642c51f3389600301548b6040518463ffffffff1660e01b8152600401808473ffffffffffffffffffffffffffffffffffffffff1673ffffffffffffffffffffffffffffffffffffffff1681526020018381526020018260ff1660ff1681526020019350505050602060405180830381600087803b15801561149157600080fd5b505af11580156114a5573d6000803e3d6000fd5b505050506040513d60208110156114bb57600080fd5b8101908080519060200190929190505050905060008111611544576040517f08c379a00000000000000000000000000000000000000000000000000000000081526004018080602001828103825260208152602001807f4e465420527573683a206661696c656420746f206d696e74206120746f6b656e81525060200191505060405180910390fd5b428660010181905550600086600001819055503373ffffffffffffffffffffffffffffffffffffffff167f25b428dfde728ccfaddad7e29e4ac23c24ed7fd1a6e3e3f91894a9a073f5dfff8d83604051808381526020018281526020019250505060405180910390a2505050505050505050505050565b6115c3612f6c565b73ffffffffffffffffffffffffffffffffffffffff166000809054906101000a900473ffffffffffffffffffffffffffffffffffffffff1673ffffffffffffffffffffffffffffffffffffffff1614611684576040517f08c379a00000000000000000000000000000000000000000000000000000000081526004018080602001828103825260208152602001807f4f776e61626c653a2063616c6c6572206973206e6f7420746865206f776e657281525060200191505060405180910390fd5b600073ffffffffffffffffffffffffffffffffffffffff166000809054906101000a900473ffffffffffffffffffffffffffffffffffffffff1673ffffffffffffffffffffffffffffffffffffffff167f8be0079c531659141344cd1fd0a4f28419497f9722a3daafe3b4186f6b6457e060405160405180910390a360008060006101000a81548173ffffffffffffffffffffffffffffffffffffffff021916908373ffffffffffffffffffffffffffffffffffffffff160217905550565b600060026000838152602001908152602001600020600101546002600084815260200190815260200160002060020154014211156117845760009050611789565b600190505b919050565b60026020528060005260406000206000915090508060000154908060010154908060020154908060030154905084565b6117c6612f6c565b73ffffffffffffffffffffffffffffffffffffffff166000809054906101000a900473ffffffffffffffffffffffffffffffffffffffff1673ffffffffffffffffffffffffffffffffffffffff1614611887576040517f08c379a00000000000000000000000000000000000000000000000000000000081526004018080602001828103825260208152602001807f4f776e61626c653a2063616c6c6572206973206e6f7420746865206f776e657281525060200191505060405180910390fd5b60325481116118e1576040517f08c379a000000000000000000000000000000000000000000000000000000000815260040180806020018281038252602c8152602001806146f2602c913960400191505060405180910390fd5b8060338190555050565b60008060009054906101000a900473ffffffffffffffffffffffffffffffffffffffff16905090565b602d6020528060005260406000206000915090505481565b611934612f6c565b73ffffffffffffffffffffffffffffffffffffffff166000809054906101000a900473ffffffffffffffffffffffffffffffffffffffff1673ffffffffffffffffffffffffffffffffffffffff16146119f5576040517f08c379a00000000000000000000000000000000000000000000000000000000081526004018080602001828103825260208152602001807f4f776e61626c653a2063616c6c6572206973206e6f7420746865206f776e657281525060200191505060405180910390fd5b60008111611a4e576040517f08c379a000000000000000000000000000000000000000000000000000000000815260040180806020018281038252602381526020018061474b6023913960400191505060405180910390fd5b8060328190555050565b6000602f6000611a66612f6c565b73ffffffffffffffffffffffffffffffffffffffff1673ffffffffffffffffffffffffffffffffffffffff1681526020019081526020016000205411611af7576040517f08c379a000000000000000000000000000000000000000000000000000000000815260040180806020018281038252602a815260200180614677602a913960400191505060405180910390fd5b6000602f6000611b05612f6c565b73ffffffffffffffffffffffffffffffffffffffff1673ffffffffffffffffffffffffffffffffffffffff16815260200190815260200160002054905060011515600360009054906101000a900473ffffffffffffffffffffffffffffffffffffffff1673ffffffffffffffffffffffffffffffffffffffff1663a9059cbb611b8c612f6c565b846040518363ffffffff1660e01b8152600401808373ffffffffffffffffffffffffffffffffffffffff1673ffffffffffffffffffffffffffffffffffffffff16815260200182815260200192505050602060405180830381600087803b158015611bf657600080fd5b505af1158015611c0a573d6000803e3d6000fd5b505050506040513d6020811015611c2057600080fd5b8101908080519060200190929190505050151514611c89576040517f08c379a000000000000000000000000000000000000000000000000000000000815260040180806020018281038252602a81526020018061462b602a913960400191505060405180910390fd5b6000602f6000611c97612f6c565b73ffffffffffffffffffffffffffffffffffffffff1673ffffffffffffffffffffffffffffffffffffffff16815260200190815260200160002081905550611cdd612f6c565b73ffffffffffffffffffffffffffffffffffffffff167f3357c8ce10f059670fd7cfc8aa95ea294bbc03367622f135052807bfc3c7968f8260405180806020018381526020018281038252600c8152602001807f4441494c595f4d494e54454400000000000000000000000000000000000000008152506020019250505060405180910390a250565b611d6e612f6c565b73ffffffffffffffffffffffffffffffffffffffff166000809054906101000a900473ffffffffffffffffffffffffffffffffffffffff1673ffffffffffffffffffffffffffffffffffffffff1614611e2f576040517f08c379a00000000000000000000000000000000000000000000000000000000081526004018080602001828103825260208152602001807f4f776e61626c653a2063616c6c6572206973206e6f7420746865206f776e657281525060200191505060405180910390fd5b6000611e39611026565b1115611eac5760001515611e53611e4e611026565b611743565b151514611eab576040517f08c379a000000000000000000000000000000000000000000000000000000000815260040180806020018281038252602c815260200180614859602c913960400191505060405180910390fd5b5b6000611eba85858585614074565b9050611ec6818461429f565b5050505050565b600060306000611edb612f6c565b73ffffffffffffffffffffffffffffffffffffffff1673ffffffffffffffffffffffffffffffffffffffff1681526020019081526020016000205411611f6c576040517f08c379a000000000000000000000000000000000000000000000000000000000815260040180806020018281038252602a815260200180614677602a913960400191505060405180910390fd5b600060306000611f7a612f6c565b73ffffffffffffffffffffffffffffffffffffffff1673ffffffffffffffffffffffffffffffffffffffff16815260200190815260200160002054905060011515600360009054906101000a900473ffffffffffffffffffffffffffffffffffffffff1673ffffffffffffffffffffffffffffffffffffffff1663a9059cbb612001612f6c565b846040518363ffffffff1660e01b8152600401808373ffffffffffffffffffffffffffffffffffffffff1673ffffffffffffffffffffffffffffffffffffffff16815260200182815260200192505050602060405180830381600087803b15801561206b57600080fd5b505af115801561207f573d6000803e3d6000fd5b505050506040513d602081101561209557600080fd5b81019080805190602001909291905050501515146120fe576040517f08c379a000000000000000000000000000000000000000000000000000000000815260040180806020018281038252602a81526020018061462b602a913960400191505060405180910390fd5b60006030600061210c612f6c565b73ffffffffffffffffffffffffffffffffffffffff1673ffffffffffffffffffffffffffffffffffffffff16815260200190815260200160002081905550612152612f6c565b73ffffffffffffffffffffffffffffffffffffffff167f3357c8ce10f059670fd7cfc8aa95ea294bbc03367622f135052807bfc3c7968f8260405180806020018381526020018281038252600f8152602001807f414c4c5f54494d455f4d494e54454400000000000000000000000000000000008152506020019250505060405180910390a250565b6000602d60006121e9612f6c565b73ffffffffffffffffffffffffffffffffffffffff1673ffffffffffffffffffffffffffffffffffffffff168152602001908152602001600020541161227a576040517f08c379a000000000000000000000000000000000000000000000000000000000815260040180806020018281038252602a815260200180614677602a913960400191505060405180910390fd5b6000602d6000612288612f6c565b73ffffffffffffffffffffffffffffffffffffffff1673ffffffffffffffffffffffffffffffffffffffff16815260200190815260200160002054905060011515600360009054906101000a900473ffffffffffffffffffffffffffffffffffffffff1673ffffffffffffffffffffffffffffffffffffffff1663a9059cbb61230f612f6c565b846040518363ffffffff1660e01b8152600401808373ffffffffffffffffffffffffffffffffffffffff1673ffffffffffffffffffffffffffffffffffffffff16815260200182815260200192505050602060405180830381600087803b15801561237957600080fd5b505af115801561238d573d6000803e3d6000fd5b505050506040513d60208110156123a357600080fd5b810190808051906020019092919050505015151461240c576040517f08c379a000000000000000000000000000000000000000000000000000000000815260040180806020018281038252602a81526020018061462b602a913960400191505060405180910390fd5b6000602d600061241a612f6c565b73ffffffffffffffffffffffffffffffffffffffff1673ffffffffffffffffffffffffffffffffffffffff16815260200190815260200160002081905550612460612f6c565b73ffffffffffffffffffffffffffffffffffffffff167f3357c8ce10f059670fd7cfc8aa95ea294bbc03367622f135052807bfc3c7968f8260405180806020018381526020018281038252600b8152602001807f4441494c595f5350454e540000000000000000000000000000000000000000008152506020019250505060405180910390a250565b603254811015612544576040517f08c379a000000000000000000000000000000000000000000000000000000000815260040180806020018281038252604a81526020018061479a604a913960600191505060405180910390fd5b60335481111561259f576040517f08c379a00000000000000000000000000000000000000000000000000000000081526004018080602001828103825260478152602001806145b86047913960600191505060405180910390fd5b600082116125f8576040517f08c379a00000000000000000000000000000000000000000000000000000000081526004018080602001828103825260258152602001806148346025913960400191505060405180910390fd5b61260182611743565b612656576040517f08c379a000000000000000000000000000000000000000000000000000000000815260040180806020018281038252602a81526020018061480a602a913960400191505060405180910390fd5b80600360009054906101000a900473ffffffffffffffffffffffffffffffffffffffff1673ffffffffffffffffffffffffffffffffffffffff166370a08231336040518263ffffffff1660e01b8152600401808273ffffffffffffffffffffffffffffffffffffffff1673ffffffffffffffffffffffffffffffffffffffff16815260200191505060206040518083038186803b1580156126f657600080fd5b505afa15801561270a573d6000803e3d6000fd5b505050506040513d602081101561272057600080fd5b81019080805190602001909291905050501015612788576040517f08c379a000000000000000000000000000000000000000000000000000000000815260040180806020018281038252603781526020018061452f6037913960400191505060405180910390fd5b60011515600360009054906101000a900473ffffffffffffffffffffffffffffffffffffffff1673ffffffffffffffffffffffffffffffffffffffff16636aade28833846040518363ffffffff1660e01b8152600401808373ffffffffffffffffffffffffffffffffffffffff1673ffffffffffffffffffffffffffffffffffffffff16815260200182815260200192505050602060405180830381600087803b15801561283557600080fd5b505af1158015612849573d6000803e3d6000fd5b505050506040513d602081101561285f57600080fd5b81019080805190602001909291905050501515146128e5576040517f08c379a000000000000000000000000000000000000000000000000000000000815260040180806020018281038252601d8152602001807f4e465420527573683a204661696c656420746f207370656e642043575300000081525060200191505060405180910390fd5b60006034600084815260200190815260200160002060003373ffffffffffffffffffffffffffffffffffffffff1673ffffffffffffffffffffffffffffffffffffffff1681526020019081526020016000209050612950828260000154613fec90919063ffffffff16565b81600001819055503373ffffffffffffffffffffffffffffffffffffffff167fe8591e9373e8c4801ffc5bb031277889e3e771aee8c55961028bfc65728c9ba98483600001548460010154866040518085815260200184815260200183815260200182815260200194505050505060405180910390a2505050565b602f6020528060005260406000206000915090505481565b600581600a81106129f057fe5b016000915090505481565b602e6020528060005260406000206000915090505481565b6000602e6000612a21612f6c565b73ffffffffffffffffffffffffffffffffffffffff1673ffffffffffffffffffffffffffffffffffffffff1681526020019081526020016000205411612ab2576040517f08c379a000000000000000000000000000000000000000000000000000000000815260040180806020018281038252602a815260200180614677602a913960400191505060405180910390fd5b6000602e6000612ac0612f6c565b73ffffffffffffffffffffffffffffffffffffffff1673ffffffffffffffffffffffffffffffffffffffff16815260200190815260200160002054905060011515600360009054906101000a900473ffffffffffffffffffffffffffffffffffffffff1673ffffffffffffffffffffffffffffffffffffffff1663a9059cbb612b47612f6c565b846040518363ffffffff1660e01b8152600401808373ffffffffffffffffffffffffffffffffffffffff1673ffffffffffffffffffffffffffffffffffffffff16815260200182815260200192505050602060405180830381600087803b158015612bb157600080fd5b505af1158015612bc5573d6000803e3d6000fd5b505050506040513d6020811015612bdb57600080fd5b8101908080519060200190929190505050151514612c44576040517f08c379a000000000000000000000000000000000000000000000000000000000815260040180806020018281038252602a81526020018061462b602a913960400191505060405180910390fd5b6000602e6000612c52612f6c565b73ffffffffffffffffffffffffffffffffffffffff1673ffffffffffffffffffffffffffffffffffffffff16815260200190815260200160002081905550612c98612f6c565b73ffffffffffffffffffffffffffffffffffffffff167f3357c8ce10f059670fd7cfc8aa95ea294bbc03367622f135052807bfc3c7968f8260405180806020018381526020018281038252600e8152602001807f414c4c5f54494d455f5350454e540000000000000000000000000000000000008152506020019250505060405180910390a250565b600f81600a8110612d2e57fe5b016000915090505481565b600360009054906101000a900473ffffffffffffffffffffffffffffffffffffffff1681565b612d67612f6c565b73ffffffffffffffffffffffffffffffffffffffff166000809054906101000a900473ffffffffffffffffffffffffffffffffffffffff1673ffffffffffffffffffffffffffffffffffffffff1614612e28576040517f08c379a00000000000000000000000000000000000000000000000000000000081526004018080602001828103825260208152602001807f4f776e61626c653a2063616c6c6572206973206e6f7420746865206f776e657281525060200191505060405180910390fd5b600073ffffffffffffffffffffffffffffffffffffffff168173ffffffffffffffffffffffffffffffffffffffff161415612eae576040517f08c379a00000000000000000000000000000000000000000000000000000000081526004018080602001828103825260268152602001806145666026913960400191505060405180910390fd5b8073ffffffffffffffffffffffffffffffffffffffff166000809054906101000a900473ffffffffffffffffffffffffffffffffffffffff1673ffffffffffffffffffffffffffffffffffffffff167f8be0079c531659141344cd1fd0a4f28419497f9722a3daafe3b4186f6b6457e060405160405180910390a3806000806101000a81548173ffffffffffffffffffffffffffffffffffffffff021916908373ffffffffffffffffffffffffffffffffffffffff16021790555050565b600033905090565b612f7c612f6c565b73ffffffffffffffffffffffffffffffffffffffff166000809054906101000a900473ffffffffffffffffffffffffffffffffffffffff1673ffffffffffffffffffffffffffffffffffffffff161461303d576040517f08c379a00000000000000000000000000000000000000000000000000000000081526004018080602001828103825260208152602001807f4f776e61626c653a2063616c6c6572206973206e6f7420746865206f776e657281525060200191505060405180910390fd5b6001151561304a84614334565b1515146130a2576040517f08c379a00000000000000000000000000000000000000000000000000000000081526004018080602001828103825260228152602001806146556022913960400191505060405180910390fd5b600a8160ff1611156130ff576040517f08c379a000000000000000000000000000000000000000000000000000000000815260040180806020018281038252602d81526020018061471e602d913960400191505060405180910390fd5b60008160ff16111561337257600061311b60058360ff1661433f565b905060011515600360009054906101000a900473ffffffffffffffffffffffffffffffffffffffff1673ffffffffffffffffffffffffffffffffffffffff166323b872dd6131676118eb565b30856040518463ffffffff1660e01b8152600401808473ffffffffffffffffffffffffffffffffffffffff1673ffffffffffffffffffffffffffffffffffffffff1681526020018373ffffffffffffffffffffffffffffffffffffffff1673ffffffffffffffffffffffffffffffffffffffff1681526020018281526020019350505050602060405180830381600087803b15801561320557600080fd5b505af1158015613219573d6000803e3d6000fd5b505050506040513d602081101561322f57600080fd5b8101908080519060200190929190505050151514613298576040517f08c379a000000000000000000000000000000000000000000000000000000000815260040180806020018281038252602c81526020018061458c602c913960400191505060405180910390fd5b60008090505b8260ff1681101561336f5760008482600a81106132b757fe5b6020020151905061331e600583600a81106132ce57fe5b0154602d60008473ffffffffffffffffffffffffffffffffffffffff1673ffffffffffffffffffffffffffffffffffffffff16815260200190815260200160002054613fec90919063ffffffff16565b602d60008373ffffffffffffffffffffffffffffffffffffffff1673ffffffffffffffffffffffffffffffffffffffff1681526020019081526020016000208190555050808060010191505061329e565b50505b61337b8361438e565b505050565b613388612f6c565b73ffffffffffffffffffffffffffffffffffffffff166000809054906101000a900473ffffffffffffffffffffffffffffffffffffffff1673ffffffffffffffffffffffffffffffffffffffff1614613449576040517f08c379a00000000000000000000000000000000000000000000000000000000081526004018080602001828103825260208152602001807f4f776e61626c653a2063616c6c6572206973206e6f7420746865206f776e657281525060200191505060405180910390fd5b60011515613456846143c1565b1515146134ae576040517f08c379a00000000000000000000000000000000000000000000000000000000081526004018080602001828103825260228152602001806146556022913960400191505060405180910390fd5b600a8160ff161115613528576040517f08c379a000000000000000000000000000000000000000000000000000000000815260040180806020018281038252601a8152602001807f4e465420527573683a20746f6f206d616e792077696e6e65727300000000000081525060200191505060405180910390fd5b60008160ff16111561379b57600061354460198360ff1661433f565b905060011515600360009054906101000a900473ffffffffffffffffffffffffffffffffffffffff1673ffffffffffffffffffffffffffffffffffffffff166323b872dd6135906118eb565b30856040518463ffffffff1660e01b8152600401808473ffffffffffffffffffffffffffffffffffffffff1673ffffffffffffffffffffffffffffffffffffffff1681526020018373ffffffffffffffffffffffffffffffffffffffff1673ffffffffffffffffffffffffffffffffffffffff1681526020018281526020019350505050602060405180830381600087803b15801561362e57600080fd5b505af1158015613642573d6000803e3d6000fd5b505050506040513d602081101561365857600080fd5b81019080805190602001909291905050501515146136c1576040517f08c379a000000000000000000000000000000000000000000000000000000000815260040180806020018281038252602c81526020018061458c602c913960400191505060405180910390fd5b60008090505b8260ff168110156137985760008482600a81106136e057fe5b60200201519050613747601983600a81106136f757fe5b0154602f60008473ffffffffffffffffffffffffffffffffffffffff1673ffffffffffffffffffffffffffffffffffffffff16815260200190815260200160002054613fec90919063ffffffff16565b602f60008373ffffffffffffffffffffffffffffffffffffffff1673ffffffffffffffffffffffffffffffffffffffff168152602001908152602001600020819055505080806001019150506136c7565b50505b6137a4836143cc565b505050565b6137b1612f6c565b73ffffffffffffffffffffffffffffffffffffffff166000809054906101000a900473ffffffffffffffffffffffffffffffffffffffff1673ffffffffffffffffffffffffffffffffffffffff1614613872576040517f08c379a00000000000000000000000000000000000000000000000000000000081526004018080602001828103825260208152602001807f4f776e61626c653a2063616c6c6572206973206e6f7420746865206f776e657281525060200191505060405180910390fd5b6001151561387f846143ff565b1515146138d7576040517f08c379a000000000000000000000000000000000000000000000000000000000815260040180806020018281038252603a8152602001806144f5603a913960400191505060405180910390fd5b600a8160ff161115613934576040517f08c379a000000000000000000000000000000000000000000000000000000000815260040180806020018281038252602d81526020018061471e602d913960400191505060405180910390fd5b60008160ff161115613ba7576000613950600f8360ff1661433f565b905060011515600360009054906101000a900473ffffffffffffffffffffffffffffffffffffffff1673ffffffffffffffffffffffffffffffffffffffff166323b872dd61399c6118eb565b30856040518463ffffffff1660e01b8152600401808473ffffffffffffffffffffffffffffffffffffffff1673ffffffffffffffffffffffffffffffffffffffff1681526020018373ffffffffffffffffffffffffffffffffffffffff1673ffffffffffffffffffffffffffffffffffffffff1681526020018281526020019350505050602060405180830381600087803b158015613a3a57600080fd5b505af1158015613a4e573d6000803e3d6000fd5b505050506040513d6020811015613a6457600080fd5b8101908080519060200190929190505050151514613acd576040517f08c379a000000000000000000000000000000000000000000000000000000000815260040180806020018281038252602c81526020018061458c602c913960400191505060405180910390fd5b60008090505b8260ff16811015613ba45760008482600a8110613aec57fe5b60200201519050613b53600f83600a8110613b0357fe5b0154602e60008473ffffffffffffffffffffffffffffffffffffffff1673ffffffffffffffffffffffffffffffffffffffff16815260200190815260200160002054613fec90919063ffffffff16565b602e60008373ffffffffffffffffffffffffffffffffffffffff1673ffffffffffffffffffffffffffffffffffffffff16815260200190815260200160002081905550508080600101915050613ad3565b50505b613bb08361440a565b505050565b613bbd612f6c565b73ffffffffffffffffffffffffffffffffffffffff166000809054906101000a900473ffffffffffffffffffffffffffffffffffffffff1673ffffffffffffffffffffffffffffffffffffffff1614613c7e576040517f08c379a00000000000000000000000000000000000000000000000000000000081526004018080602001828103825260208152602001807f4f776e61626c653a2063616c6c6572206973206e6f7420746865206f776e657281525060200191505060405180910390fd5b60001515613c8b8461443c565b151514613ce3576040517f08c379a00000000000000000000000000000000000000000000000000000000081526004018080602001828103825260268152602001806147e46026913960400191505060405180910390fd5b600a8160ff161115613d5d576040517f08c379a000000000000000000000000000000000000000000000000000000000815260040180806020018281038252601a8152602001807f4e465420527573683a20746f6f206d616e792077696e6e65727300000000000081525060200191505060405180910390fd5b60008160ff161115613fd0576000613d7960238360ff1661433f565b905060011515600360009054906101000a900473ffffffffffffffffffffffffffffffffffffffff1673ffffffffffffffffffffffffffffffffffffffff166323b872dd613dc56118eb565b30856040518463ffffffff1660e01b8152600401808473ffffffffffffffffffffffffffffffffffffffff1673ffffffffffffffffffffffffffffffffffffffff1681526020018373ffffffffffffffffffffffffffffffffffffffff1673ffffffffffffffffffffffffffffffffffffffff1681526020018281526020019350505050602060405180830381600087803b158015613e6357600080fd5b505af1158015613e77573d6000803e3d6000fd5b505050506040513d6020811015613e8d57600080fd5b8101908080519060200190929190505050151514613ef6576040517f08c379a000000000000000000000000000000000000000000000000000000000815260040180806020018281038252602c81526020018061458c602c913960400191505060405180910390fd5b60008090505b8260ff16811015613fcd5760008482600a8110613f1557fe5b60200201519050613f7c602383600a8110613f2c57fe5b0154603060008473ffffffffffffffffffffffffffffffffffffffff1673ffffffffffffffffffffffffffffffffffffffff16815260200190815260200160002054613fec90919063ffffffff16565b603060008373ffffffffffffffffffffffffffffffffffffffff1673ffffffffffffffffffffffffffffffffffffffff16815260200190815260200160002081905550508080600101915050613efc565b50505b613fd983614447565b505050565b600081600001549050919050565b60008082840190508381101561406a576040517f08c379a000000000000000000000000000000000000000000000000000000000815260040180806020018281038252601b8152602001807f536166654d6174683a206164646974696f6e206f766572666c6f77000000000081525060200191505060405180910390fd5b8091505092915050565b600061407e612f6c565b73ffffffffffffffffffffffffffffffffffffffff166000809054906101000a900473ffffffffffffffffffffffffffffffffffffffff1673ffffffffffffffffffffffffffffffffffffffff161461413f576040517f08c379a00000000000000000000000000000000000000000000000000000000081526004018080602001828103825260208152602001807f4f776e61626c653a2063616c6c6572206973206e6f7420746865206f776e657281525060200191505060405180910390fd5b6000614149611026565b905060008111156141ba576000151561416182611743565b1515146141b9576040517f08c379a000000000000000000000000000000000000000000000000000000000815260040180806020018281038252602c81526020018061476e602c913960400191505060405180910390fd5b5b6141c46001614479565b60006141d06001613fde565b905060405180608001604052808881526020018781526020018681526020018581525060026000838152602001908152602001600020600082015181600001556020820151816001015560408201518160020155606082015181600301559050507f5dc1f72d9d4fb1e826e6f5c291a6eb1942b9825fe2802bb9ec05563c01aad88681866142678989613fec90919063ffffffff16565b876040518085815260200184815260200183815260200182815260200194505050505060405180910390a18092505050949350505050565b6040518060800160405280600015158152602001600015158152602001828152602001828152506004600084815260200190815260200160002060008201518160000160006101000a81548160ff02191690831515021790555060208201518160000160016101000a81548160ff02191690831515021790555060408201518160010155606082015181600201559050505050565b600060019050919050565b6000806000905060008090505b83811015614383576143748582600a811061436357fe5b015483613fec90919063ffffffff16565b9150808060010191505061434c565b508091505092915050565b6143a46201518042613fec90919063ffffffff16565b600460008381526020019081526020016000206001018190555050565b600060019050919050565b6143e26201518042613fec90919063ffffffff16565b600460008381526020019081526020016000206002018190555050565b600060019050919050565b60016004600083815260200190815260200160002060000160006101000a81548160ff02191690831515021790555050565b600060019050919050565b60016004600083815260200190815260200160002060000160016101000a81548160ff02191690831515021790555050565b6001816000016000828254019250508190555050565b82600a81019282156144be579160200282015b828111156144bd5782518255916020019190600101906144a2565b5b5090506144cb91906144cf565b5090565b6144f191905b808211156144ed5760008160009055506001016144d5565b5090565b9056fe4e465420527573683a20616c6c2074696d652077696e6e6572732073657420616c7265616479206f7220746f6f206561726c7920746f207365744e465420527573683a204e6f7420656e6f756768204357532c20706c6561736520636865636b20796f7572204357532062616c616e63654f776e61626c653a206e6577206f776e657220697320746865207a65726f20616464726573734e465420527573683a206e6f7420656e6f7567682043575320746f20676976652061732061207265776172644e667420527573683a20416d6f756e74206f662043575320746f207370656e642073686f756c64206265206c657373206f7220657175616c20746f206d6178206465706f7369744e465420527573683a204661696c656420746f20766572696679207175616c697479207369676e61747572654e465420527573683a206661696c656420746f207472616e736665722043575320746f2077696e6e65724e465420527573683a20616c726561647920736574206f7220746f6f206561726c794e465420527573683a206e6f20636c61696d61626c652043575320666f72206c6561646572626f6172644e465420527573683a205374696c6c20696e206c6f636b696e6720706572696f642c20706c656173652074727920616761696e206166746572206c6f636b696e6720696e74657276616c207061737365734d617820616d6f756e742073686f756c642062652067726561746572207468616e206d696e20616d6f756e744e465420527573683a20657863656564656420706f737369626c6520616d6f756e74206f662077696e6e6572734d696e20616d6f756e742073686f756c642062652067726561746572207468616e20304e465420527573683a2070726576696f75732073657373696f6e2073686f756c6420626520657870697265644e465420527573683a20416d6f756e74206f662043575320746f207370656e642073686f756c642062652067726561746572206f7220657175616c20746f206d696e206465706f7369744e465420527573683a20616c6c2074696d652077696e6e6572732073657420616c72656164794e465420527573683a2047616d652073657373696f6e20697320616c72656164792066696e69736865644e465420527573683a2053657373696f6e206973206e6f74207374617274656420796574214e465420527573683a2043616e2774207374617274207768656e2073657373696f6e20697320616374697665a2646970667358221220e781d71b25bbc63e65808e9f6a08e89beffa15b95c343dd46a27be25c87d22d164736f6c634300060700334d6178207370656e642073686f756c642062652067726561746572207468616e206d696e206c696d6974",
  "immutableReferences": {},
  "source": "pragma solidity 0.6.7;\r\n\r\nimport \"./../openzeppelin/contracts/access/Ownable.sol\";\r\nimport \"./../openzeppelin/contracts/math/SafeMath.sol\";\r\nimport \"./../openzeppelin/contracts/utils/Counters.sol\";\r\nimport \"./../seascape_nft/NftTypes.sol\";\r\nimport \"./../seascape_nft/NftFactory.sol\";\r\nimport \"./Crowns.sol\";\r\nimport \"./Leaderboard.sol\";\r\nimport \"./GameSession.sol\";\r\n\r\n/// @title Nft Rush a game on seascape platform allowing to earn Nft by spending crowns\r\n/// @notice Game comes with Leaderboard located on it's on Solidity file.\r\n/// @author Medet Ahmetson\r\ncontract NftRush is Ownable, GameSession, Crowns, Leaderboard {\r\n    using SafeMath for uint256;\r\n    using Counters for Counters.Counter;\r\n    using NftTypes for NftTypes;\r\n\r\n    /// @notice nft factory is a contract that mints nfts\r\n    NftFactory nftFactory;    \r\n\r\n    /// @notice minimum CWS amount to spend in game.\r\n    /// @dev in WEI format.\r\n    uint256 public minSpend;\r\n    /// @notice maximum CWS amount to spend in game.\r\n    /// @dev in WEI format.\r\n    uint256 public maxSpend;\r\n    \r\n    struct Balance {\r\n\tuint256 amount;\r\n\tuint256 mintedTime;\r\n    }\r\n\r\n    /// @notice Tracking player balance within a game session.\r\n    /// @dev session id =>(wallet address => (Balance struct))\r\n    mapping(uint256 => mapping(address => Balance)) public balances;\r\n\r\n    event Spent(address indexed owner, uint256 sessionId,\r\n\t\tuint256 balanceAmount, uint256 prevMintedTime, uint256 amount);\r\n    event Minted(address indexed owner, uint256 sessionId, uint256 nftId);\r\n\r\n\r\n    constructor(address _crowns, address _factory, uint256 _minSpend, uint256 _maxSpend) public {\r\n        require(_minSpend > 0, \"Min spend can't be 0\");\r\n        require(_maxSpend > _minSpend, \"Max spend should be greater than min limit\");\r\n        nftFactory = NftFactory(_factory);\r\n\r\n        /// @dev set crowns is defined in Crowns.sol\r\n        setCrowns(_crowns);\t\t\r\n\r\n        minSpend = _minSpend;\r\n        maxSpend = _maxSpend;\r\n    }\r\n\r\n    \r\n    //--------------------------------------------------\r\n    // Only owner\r\n    //--------------------------------------------------\r\n\r\n    /** \r\n     *  @notice Starts a staking session for a finite period of time.\r\n     *  And activated in certain period.\r\n     *\r\n     *  @param _interval duration between claims of Nft\r\n     *  @param _period session duration\r\n     *  @param _startTime session start time in unix timestamp\r\n     *  @param _generation Seascape Nft generation that is given as a reward\r\n     *\r\n     *  Emits an {SessionStarted} event.  \r\n     *\r\n     *  Requirements:\r\n     *\r\n     *  - if some other session was launched before, that session should be ended.\r\n     */\r\n    function startSession(uint256 _interval, uint256 _period, uint256 _startTime, uint256 _generation) external onlyOwner {\r\n        if (lastSessionId() > 0) {\r\n            require(isActive(lastSessionId())==false, \"NFT Rush: Can't start when session is active\");\r\n        }\r\n\r\n        uint256 _sessionId = _startSession(_interval, _period, _startTime, _generation);\r\n        \r\n        announceLeaderboard(_sessionId, _startTime);\r\n    }\r\n\r\n    \r\n    /** \r\n     *  @notice Sets NFT factory that will mint a token for stakers\r\n     *\r\n     *  @param _address a new Address of Nft Factory\r\n     */\r\n    function setNftFactory(address _address) external onlyOwner {\r\n\t    nftFactory = NftFactory(_address);\r\n    }\r\n\r\n    /**\r\n     *  @notice minimum amount of Crowns that players could spend\r\n     *\r\n     *  @param _amount a new minimal spending amount in WEI\r\n     */\r\n    function setMinSpendAmount(uint256 _amount) external onlyOwner {\r\n        require(_amount > 0, \"Min amount should be greater than 0\");\r\n\t    minSpend = _amount;\r\n    }\r\n        \r\n    /**\r\n     *  @notice minimum amount of Crowns that players could spend\r\n     *\r\n     *  @param _amount a new minimal spending amount in WEI\r\n     */\r\n    function setMaxSpendAmount(uint256 _amount) external onlyOwner {\r\n\t    require(_amount > minSpend, \"Max amount should be greater than min amount\");\r\n        maxSpend = _amount;\r\n    }\r\n\r\n    //--------------------------------------------------\r\n    // Only game user\r\n    //--------------------------------------------------\r\n\r\n    /**\r\n     *  @notice Spend some crowns in the game, to get higher quality NFTs.\r\n     *  The more spending, higher the chance of getting high quality NFT.\r\n     *\r\n     *  Note, that player should approve Crowns to use by this game contract.\r\n     *\r\n     *  Emits a {Spent} event.\r\n     *\r\n     *  @param _sessionId a session id\r\n     *  @param _amount amount of CWS to spend\r\n     *\r\n     *  Requirements:\r\n     *\r\n     *  - `_amount` must be atleast equal to `minSpend`\r\n     *  - `_sessionId` must be greater than 0\r\n     *  - session of `_sessionId` must be active\r\n     *  - The spender should have `amount` of Crowns\r\n     *  - Spending of Crowns must be successfull. Fails, if not granted a permission\r\n     */\r\n    function spend(uint256 _sessionId, uint256 _amount) external {\r\n        require(_amount >= minSpend,\r\n            \"NFT Rush: Amount of CWS to spend should be greater or equal to min deposit\");\r\n        require(_amount <= maxSpend,\r\n            \"Nft Rush: Amount of CWS to spend should be less or equal to max deposit\");\r\n        require(_sessionId > 0,\r\n            \"NFT Rush: Session is not started yet!\");\r\n        require(isActive(_sessionId),\r\n            \"NFT Rush: Game session is already finished\");\r\n        require(crowns.balanceOf(msg.sender) >= _amount,\r\n            \"NFT Rush: Not enough CWS, please check your CWS balance\");\r\n        require(crowns.spendFrom(msg.sender, _amount) == true,\r\n            \"NFT Rush: Failed to spend CWS\");\r\n\r\n        Balance storage _balance  = balances[_sessionId][msg.sender];\r\n\r\n        _balance.amount = _balance.amount.add(_amount);\r\n\t\r\n        emit Spent(msg.sender, _sessionId, _balance.amount, _balance.mintedTime, _amount);\r\n    }\r\n\r\n\r\n    /**\r\n     *  @notice mints Nft of {_quality}.\r\n     *  @dev The Quality of Nft is determined by centralized server. \r\n     *  As a proof centrlized server returns a signature\r\n     *  to validate the quality\r\n     *\r\n     *  Emits a {Minted} event.\r\n     *\r\n     *  @param _sessionId a game session\r\n     *  @param _v part of signature of message\r\n     *  @param _r part of signature of message\r\n     *  @param _s part of signature of message\r\n     *  @param _quality a quality of minted token\r\n     *\r\n     *  Requirements:\r\n     *\r\n     *  - `balances[_sessionId][msg.sender].amount` must ge greater than 0.\r\n     *  - Quality signer's address should match to this contract' owner's address\r\n     *  - Player should mint it first time, or if not, then locking interval should be passed\r\n     *  - Nft Factory should return Nft id of successfully minted token\r\n     */\r\n    function mint(uint256 _sessionId,\r\n\t\t  uint8 _v, bytes32 _r, bytes32 _s, uint8 _quality) public {\r\n\t    \r\n        Session storage _session = sessions[_sessionId];\r\n\t    Balance storage _balance = balances[_sessionId][msg.sender];\r\n\r\n\t    require(_balance.amount > 0,\r\n\t\t    \"NFT Rush: No deposit was found\");\r\n\t    require(_balance.mintedTime == 0 ||\r\n\t\t    (_balance.mintedTime.add(_session.interval) < block.timestamp),\r\n\t\t    \"NFT Rush: Still in locking period, please try again after locking interval passes\");\r\n\t\r\n\t    /// Validation of quality\r\n\t    /// message is generated as owner + amount + last time stamp + quality\r\n\t    bytes memory _prefix = \"\\x19Ethereum Signed Message:\\n32\";\r\n\t    bytes32 _messageNoPrefix =\r\n\t    keccak256(abi.encodePacked(msg.sender,\r\n\t\t\t\t       _balance.amount,\r\n\t\t\t\t       _balance.mintedTime,\r\n\t\t\t\t       _quality)\r\n\t\t      );\r\n\t    bytes32 _message = keccak256(abi.encodePacked(_prefix, _messageNoPrefix));\r\n\t    address _recover = ecrecover(_message, _v, _r, _s);\r\n\r\n\t    require(_recover == owner(),\r\n\t\t    \"NFT Rush: Failed to verify quality signature\");\r\n\t\r\n        uint256 _tokenId = nftFactory.mintQuality(msg.sender, _session.generation, _quality);\r\n\t    require(_tokenId > 0,\r\n\t\t    \"NFT Rush: failed to mint a token\");\r\n\t\r\n\t    _balance.mintedTime = block.timestamp;\r\n\t    _balance.amount = 0;\r\n\r\n\t    emit Minted(msg.sender, _sessionId, _tokenId);\r\n    }\r\n}\r\n",
  "sourcePath": "/home/node/app/contracts/game_2/NftRush.sol",
  "compiler": {
    "name": "solc",
    "version": "0.6.7+commit.b8d736ae.Emscripten.clang"
  },
  "schemaVersion": "3.3.4",
  "updatedAt": "2021-03-05T15:17:13.962Z",
  "networkType": "ethereum",
  "devdoc": {
    "author": "Medet Ahmetson",
    "methods": {
      "mint(uint256,uint8,bytes32,bytes32,uint8)": {
        "details": "The Quality of Nft is determined by centralized server.  As a proof centrlized server returns a signature to validate the quality      *  Emits a {Minted} event. ",
        "params": {
          "_quality": "a quality of minted token      *  Requirements:      *  - `balances[_sessionId][msg.sender].amount` must ge greater than 0. - Quality signer's address should match to this contract' owner's address - Player should mint it first time, or if not, then locking interval should be passed - Nft Factory should return Nft id of successfully minted token",
          "_r": "part of signature of message",
          "_s": "part of signature of message",
          "_sessionId": "a game session",
          "_v": "part of signature of message"
        }
      },
      "owner()": {
        "details": "Returns the address of the current owner."
      },
      "renounceOwnership()": {
        "details": "Leaves the contract without owner. It will not be possible to call `onlyOwner` functions anymore. Can only be called by the current owner.      * NOTE: Renouncing ownership will leave the contract without an owner, thereby removing any functionality that is only available to the owner."
      },
      "setMaxSpendAmount(uint256)": {
        "params": {
          "_amount": "a new minimal spending amount in WEI"
        }
      },
      "setMinSpendAmount(uint256)": {
        "params": {
          "_amount": "a new minimal spending amount in WEI"
        }
      },
      "setNftFactory(address)": {
        "params": {
          "_address": "a new Address of Nft Factory"
        }
      },
      "setPrizes(uint256[10],uint256[10],uint256[10],uint256[10])": {
        "params": {
          "_mintedAllTime": "list of prizes for all time top minters",
          "_mintedDaily": "list of prizes for daily top minters",
          "_spentAllTime": "list of prizes for all time top spenders",
          "_spentDaily": "list of prizes for daily top spenders"
        }
      },
      "spend(uint256,uint256)": {
        "params": {
          "_amount": "amount of CWS to spend      *  Requirements:      *  - `_amount` must be atleast equal to `minSpend` - `_sessionId` must be greater than 0 - session of `_sessionId` must be active - The spender should have `amount` of Crowns - Spending of Crowns must be successfull. Fails, if not granted a permission",
          "_sessionId": "a session id"
        }
      },
      "startSession(uint256,uint256,uint256,uint256)": {
        "params": {
          "_generation": "Seascape Nft generation that is given as a reward      *  Emits an {SessionStarted} event.        *  Requirements:      *  - if some other session was launched before, that session should be ended.",
          "_interval": "duration between claims of Nft",
          "_period": "session duration",
          "_startTime": "session start time in unix timestamp"
        }
      },
      "transferOwnership(address)": {
        "details": "Transfers ownership of the contract to a new account (`newOwner`). Can only be called by the current owner."
      }
    },
    "title": "Nft Rush a game on seascape platform allowing to earn Nft by spending crowns"
  },
  "userdoc": {
    "methods": {
      "claimAllTimeMinted()": {
        "notice": "Player can claim leaderboard rewards.      *  Emits a {Rewarded} event.      *  Requirements: \r - `mintedAllTimeClaimables` for player should be greater than 0 - transfer of Crowns from contract balance to player must be successful."
      },
      "claimAllTimeSpent()": {
        "notice": "Player can claim leaderboard rewards.      *  Emits a {Rewarded} event.      *  Requirements: \r - `spentAllTimeClaimables` for player should be greater than 0 - transfer of Crowns from contract balance to player must be successful."
      },
      "claimDailyMinted()": {
        "notice": "Player can claim leaderboard rewards.      *  Emits a {Rewarded} event.      *  Requirements: \r - `mintedDailyClaimables` for player should be greater than 0 - transfer of Crowns from contract balance to player must be successful."
      },
      "claimDailySpent()": {
        "notice": "Player can claim leaderboard rewards.      *  Emits a {Rewarded} event.      *  Requirements: \r - `spentDailyClaimables` for player should be greater than 0 - transfer of Crowns from contract balance to player must be successful."
      },
      "isActive(uint256)": {
        "notice": "Whether the given session is active or not"
      },
      "lastSessionId()": {
        "notice": "The last created session's id      * NOTE!!! It returns 0, if no session was started yet."
      },
      "mint(uint256,uint8,bytes32,bytes32,uint8)": {
        "notice": "mints Nft of {_quality}."
      },
      "setMaxSpendAmount(uint256)": {
        "notice": "minimum amount of Crowns that players could spend "
      },
      "setMinSpendAmount(uint256)": {
        "notice": "minimum amount of Crowns that players could spend "
      },
      "setNftFactory(address)": {
        "notice": "Sets NFT factory that will mint a token for stakers "
      },
      "setPrizes(uint256[10],uint256[10],uint256[10],uint256[10])": {
        "notice": "Sets all prizes at once. Prizes in CWS token that winners would get. "
      },
      "spend(uint256,uint256)": {
        "notice": "Spend some crowns in the game, to get higher quality NFTs. The more spending, higher the chance of getting high quality NFT.      *  Note, that player should approve Crowns to use by this game contract.      *  Emits a {Spent} event. "
      },
      "startSession(uint256,uint256,uint256,uint256)": {
        "notice": "Starts a staking session for a finite period of time. And activated in certain period. "
      }
    },
    "notice": "Game comes with Leaderboard located on it's on Solidity file."
  }
}