{
  "contractName": "NftRush",
  "abi": [
    {
      "inputs": [
        {
          "internalType": "address",
          "name": "_crowns",
          "type": "address"
        },
        {
          "internalType": "address",
          "name": "_factory",
          "type": "address"
        },
        {
          "internalType": "uint256",
          "name": "_minSpend",
          "type": "uint256"
        },
        {
          "internalType": "uint256",
          "name": "_maxSpend",
          "type": "uint256"
        }
      ],
      "stateMutability": "nonpayable",
      "type": "constructor"
    },
    {
      "anonymous": false,
      "inputs": [
        {
          "indexed": true,
          "internalType": "uint256",
          "name": "sessionId",
          "type": "uint256"
        },
        {
          "indexed": false,
          "internalType": "address[10]",
          "name": "mintedWinners",
          "type": "address[10]"
        }
      ],
      "name": "AnnounceAllTimeWinners",
      "type": "event"
    },
    {
      "anonymous": false,
      "inputs": [
        {
          "indexed": true,
          "internalType": "uint256",
          "name": "sessionId",
          "type": "uint256"
        },
        {
          "indexed": false,
          "internalType": "address[10]",
          "name": "spentWinners",
          "type": "address[10]"
        }
      ],
      "name": "AnnounceDailyWinners",
      "type": "event"
    },
    {
      "anonymous": false,
      "inputs": [
        {
          "indexed": false,
          "internalType": "uint256",
          "name": "amount",
          "type": "uint256"
        }
      ],
      "name": "MaxSpendUpdated",
      "type": "event"
    },
    {
      "anonymous": false,
      "inputs": [
        {
          "indexed": false,
          "internalType": "uint256",
          "name": "amount",
          "type": "uint256"
        }
      ],
      "name": "MinSpendUpdated",
      "type": "event"
    },
    {
      "anonymous": false,
      "inputs": [
        {
          "indexed": true,
          "internalType": "address",
          "name": "owner",
          "type": "address"
        },
        {
          "indexed": false,
          "internalType": "uint256",
          "name": "sessionId",
          "type": "uint256"
        },
        {
          "indexed": false,
          "internalType": "uint256",
          "name": "nftId",
          "type": "uint256"
        }
      ],
      "name": "Minted",
      "type": "event"
    },
    {
      "anonymous": false,
      "inputs": [
        {
          "indexed": false,
          "internalType": "address",
          "name": "factory",
          "type": "address"
        }
      ],
      "name": "NftFactorySet",
      "type": "event"
    },
    {
      "anonymous": false,
      "inputs": [
        {
          "indexed": true,
          "internalType": "address",
          "name": "previousOwner",
          "type": "address"
        },
        {
          "indexed": true,
          "internalType": "address",
          "name": "newOwner",
          "type": "address"
        }
      ],
      "name": "OwnershipTransferred",
      "type": "event"
    },
    {
      "anonymous": false,
      "inputs": [
        {
          "indexed": false,
          "internalType": "uint256[10]",
          "name": "_spentDaily",
          "type": "uint256[10]"
        },
        {
          "indexed": false,
          "internalType": "uint256[10]",
          "name": "_mintedAllTime",
          "type": "uint256[10]"
        }
      ],
      "name": "PrizeSet",
      "type": "event"
    },
    {
      "anonymous": false,
      "inputs": [
        {
          "indexed": true,
          "internalType": "address",
          "name": "owner",
          "type": "address"
        },
        {
          "indexed": false,
          "internalType": "string",
          "name": "rewardType",
          "type": "string"
        },
        {
          "indexed": false,
          "internalType": "uint256",
          "name": "amount",
          "type": "uint256"
        }
      ],
      "name": "Rewarded",
      "type": "event"
    },
    {
      "anonymous": false,
      "inputs": [
        {
          "indexed": true,
          "internalType": "uint256",
          "name": "sessionId",
          "type": "uint256"
        },
        {
          "indexed": false,
          "internalType": "uint256",
          "name": "interval",
          "type": "uint256"
        },
        {
          "indexed": false,
          "internalType": "uint256",
          "name": "period",
          "type": "uint256"
        },
        {
          "indexed": false,
          "internalType": "uint256",
          "name": "generation",
          "type": "uint256"
        }
      ],
      "name": "SessionStarted",
      "type": "event"
    },
    {
      "anonymous": false,
      "inputs": [
        {
          "indexed": true,
          "internalType": "address",
          "name": "owner",
          "type": "address"
        },
        {
          "indexed": false,
          "internalType": "uint256",
          "name": "sessionId",
          "type": "uint256"
        },
        {
          "indexed": false,
          "internalType": "uint256",
          "name": "balanceAmount",
          "type": "uint256"
        },
        {
          "indexed": false,
          "internalType": "uint256",
          "name": "prevMintedTime",
          "type": "uint256"
        },
        {
          "indexed": false,
          "internalType": "uint256",
          "name": "amount",
          "type": "uint256"
        }
      ],
      "name": "Spent",
      "type": "event"
    },
    {
      "inputs": [
        {
          "internalType": "uint256",
          "name": "_sessionId",
          "type": "uint256"
        },
        {
          "internalType": "address[10]",
          "name": "_winners",
          "type": "address[10]"
        },
        {
          "internalType": "uint8",
          "name": "_winnersAmount",
          "type": "uint8"
        }
      ],
      "name": "announceAllTimeMintedWinners",
      "outputs": [],
      "stateMutability": "nonpayable",
      "type": "function"
    },
    {
      "inputs": [
        {
          "internalType": "uint256",
          "name": "_sessionId",
          "type": "uint256"
        },
        {
          "internalType": "address[10]",
          "name": "_winners",
          "type": "address[10]"
        },
        {
          "internalType": "uint8",
          "name": "_winnersAmount",
          "type": "uint8"
        }
      ],
      "name": "announceDailySpentWinners",
      "outputs": [],
      "stateMutability": "nonpayable",
      "type": "function"
    },
    {
      "inputs": [
        {
          "internalType": "uint256",
          "name": "",
          "type": "uint256"
        }
      ],
      "name": "announcement",
      "outputs": [
        {
          "internalType": "bool",
          "name": "minted",
          "type": "bool"
        },
        {
          "internalType": "uint256",
          "name": "dailySpentTime",
          "type": "uint256"
        }
      ],
      "stateMutability": "view",
      "type": "function",
      "constant": true
    },
    {
      "inputs": [
        {
          "internalType": "uint256",
          "name": "",
          "type": "uint256"
        },
        {
          "internalType": "address",
          "name": "",
          "type": "address"
        }
      ],
      "name": "balances",
      "outputs": [
        {
          "internalType": "uint256",
          "name": "amount",
          "type": "uint256"
        },
        {
          "internalType": "uint256",
          "name": "mintedTime",
          "type": "uint256"
        }
      ],
      "stateMutability": "view",
      "type": "function",
      "constant": true
    },
    {
      "inputs": [],
      "name": "claimAllTimeMinted",
      "outputs": [],
      "stateMutability": "nonpayable",
      "type": "function"
    },
    {
      "inputs": [],
      "name": "claimDailySpent",
      "outputs": [],
      "stateMutability": "nonpayable",
      "type": "function"
    },
    {
      "inputs": [],
      "name": "crowns",
      "outputs": [
        {
          "internalType": "contract CrownsToken",
          "name": "",
          "type": "address"
        }
      ],
      "stateMutability": "view",
      "type": "function",
      "constant": true
    },
    {
      "inputs": [
        {
          "internalType": "uint256",
          "name": "_sessionId",
          "type": "uint256"
        }
      ],
      "name": "isActive",
      "outputs": [
        {
          "internalType": "bool",
          "name": "",
          "type": "bool"
        }
      ],
      "stateMutability": "view",
      "type": "function",
      "constant": true
    },
    {
      "inputs": [],
      "name": "lastSessionId",
      "outputs": [
        {
          "internalType": "uint256",
          "name": "",
          "type": "uint256"
        }
      ],
      "stateMutability": "view",
      "type": "function",
      "constant": true
    },
    {
      "inputs": [],
      "name": "maxSpend",
      "outputs": [
        {
          "internalType": "uint256",
          "name": "",
          "type": "uint256"
        }
      ],
      "stateMutability": "view",
      "type": "function",
      "constant": true
    },
    {
      "inputs": [],
      "name": "minSpend",
      "outputs": [
        {
          "internalType": "uint256",
          "name": "",
          "type": "uint256"
        }
      ],
      "stateMutability": "view",
      "type": "function",
      "constant": true
    },
    {
      "inputs": [
        {
          "internalType": "address",
          "name": "",
          "type": "address"
        }
      ],
      "name": "mintedAllTimeClaimables",
      "outputs": [
        {
          "internalType": "uint256",
          "name": "",
          "type": "uint256"
        }
      ],
      "stateMutability": "view",
      "type": "function",
      "constant": true
    },
    {
      "inputs": [
        {
          "internalType": "uint256",
          "name": "",
          "type": "uint256"
        }
      ],
      "name": "mintedAllTimePrizes",
      "outputs": [
        {
          "internalType": "uint256",
          "name": "",
          "type": "uint256"
        }
      ],
      "stateMutability": "view",
      "type": "function",
      "constant": true
    },
    {
      "inputs": [
        {
          "internalType": "address",
          "name": "",
          "type": "address"
        }
      ],
      "name": "nonces",
      "outputs": [
        {
          "internalType": "uint256",
          "name": "",
          "type": "uint256"
        }
      ],
      "stateMutability": "view",
      "type": "function",
      "constant": true
    },
    {
      "inputs": [],
      "name": "owner",
      "outputs": [
        {
          "internalType": "address",
          "name": "",
          "type": "address"
        }
      ],
      "stateMutability": "view",
      "type": "function",
      "constant": true
    },
    {
      "inputs": [],
      "name": "renounceOwnership",
      "outputs": [],
      "stateMutability": "nonpayable",
      "type": "function"
    },
    {
      "inputs": [
        {
          "internalType": "uint256",
          "name": "",
          "type": "uint256"
        }
      ],
      "name": "sessions",
      "outputs": [
        {
          "internalType": "uint256",
          "name": "interval",
          "type": "uint256"
        },
        {
          "internalType": "uint256",
          "name": "period",
          "type": "uint256"
        },
        {
          "internalType": "uint256",
          "name": "startTime",
          "type": "uint256"
        },
        {
          "internalType": "uint256",
          "name": "generation",
          "type": "uint256"
        }
      ],
      "stateMutability": "view",
      "type": "function",
      "constant": true
    },
    {
      "inputs": [
        {
          "internalType": "uint256[10]",
          "name": "_spentDaily",
          "type": "uint256[10]"
        },
        {
          "internalType": "uint256[10]",
          "name": "_mintedAllTime",
          "type": "uint256[10]"
        }
      ],
      "name": "setPrizes",
      "outputs": [],
      "stateMutability": "nonpayable",
      "type": "function"
    },
    {
      "inputs": [
        {
          "internalType": "address",
          "name": "",
          "type": "address"
        }
      ],
      "name": "spentDailyClaimables",
      "outputs": [
        {
          "internalType": "uint256",
          "name": "",
          "type": "uint256"
        }
      ],
      "stateMutability": "view",
      "type": "function",
      "constant": true
    },
    {
      "inputs": [
        {
          "internalType": "uint256",
          "name": "",
          "type": "uint256"
        }
      ],
      "name": "spentDailyPrizes",
      "outputs": [
        {
          "internalType": "uint256",
          "name": "",
          "type": "uint256"
        }
      ],
      "stateMutability": "view",
      "type": "function",
      "constant": true
    },
    {
      "inputs": [
        {
          "internalType": "address",
          "name": "newOwner",
          "type": "address"
        }
      ],
      "name": "transferOwnership",
      "outputs": [],
      "stateMutability": "nonpayable",
      "type": "function"
    },
    {
      "inputs": [
        {
          "internalType": "uint256",
          "name": "_interval",
          "type": "uint256"
        },
        {
          "internalType": "uint256",
          "name": "_period",
          "type": "uint256"
        },
        {
          "internalType": "uint256",
          "name": "_startTime",
          "type": "uint256"
        },
        {
          "internalType": "uint256",
          "name": "_generation",
          "type": "uint256"
        }
      ],
      "name": "startSession",
      "outputs": [],
      "stateMutability": "nonpayable",
      "type": "function"
    },
    {
      "inputs": [
        {
          "internalType": "address",
          "name": "_address",
          "type": "address"
        }
      ],
      "name": "setNftFactory",
      "outputs": [],
      "stateMutability": "nonpayable",
      "type": "function"
    },
    {
      "inputs": [
        {
          "internalType": "uint256",
          "name": "_amount",
          "type": "uint256"
        }
      ],
      "name": "setMinSpendAmount",
      "outputs": [],
      "stateMutability": "nonpayable",
      "type": "function"
    },
    {
      "inputs": [
        {
          "internalType": "uint256",
          "name": "_amount",
          "type": "uint256"
        }
      ],
      "name": "setMaxSpendAmount",
      "outputs": [],
      "stateMutability": "nonpayable",
      "type": "function"
    },
    {
      "inputs": [
        {
          "internalType": "uint256",
          "name": "_sessionId",
          "type": "uint256"
        },
        {
          "internalType": "uint256",
          "name": "_amount",
          "type": "uint256"
        }
      ],
      "name": "spend",
      "outputs": [],
      "stateMutability": "nonpayable",
      "type": "function"
    },
    {
      "inputs": [
        {
          "internalType": "uint256",
          "name": "_sessionId",
          "type": "uint256"
        },
        {
          "internalType": "uint8",
          "name": "_v",
          "type": "uint8"
        },
        {
          "internalType": "bytes32",
          "name": "_r",
          "type": "bytes32"
        },
        {
          "internalType": "bytes32",
          "name": "_s",
          "type": "bytes32"
        },
        {
          "internalType": "uint8",
          "name": "_quality",
          "type": "uint8"
        }
      ],
      "name": "mint",
      "outputs": [],
      "stateMutability": "nonpayable",
      "type": "function"
    }
  ],
  "bytecode": "0x60806040523480156200001157600080fd5b5060405162003ec238038062003ec2833981810160405260808110156200003757600080fd5b81019080805190602001909291908051906020019092919080519060200190929190805190602001909291905050506000620000786200037d60201b60201c565b9050806000806101000a81548173ffffffffffffffffffffffffffffffffffffffff021916908373ffffffffffffffffffffffffffffffffffffffff1602179055508073ffffffffffffffffffffffffffffffffffffffff16600073ffffffffffffffffffffffffffffffffffffffff167f8be0079c531659141344cd1fd0a4f28419497f9722a3daafe3b4186f6b6457e060405160405180910390a350600073ffffffffffffffffffffffffffffffffffffffff168473ffffffffffffffffffffffffffffffffffffffff161415620001ba576040517f08c379a000000000000000000000000000000000000000000000000000000000815260040180806020018281038252601c8152602001807f43726f776e732063616e2774206265207a65726f20616464726573730000000081525060200191505060405180910390fd5b600073ffffffffffffffffffffffffffffffffffffffff168373ffffffffffffffffffffffffffffffffffffffff16141562000242576040517f08c379a000000000000000000000000000000000000000000000000000000000815260040180806020018281038252602181526020018062003ea16021913960400191505060405180910390fd5b60008211620002b9576040517f08c379a00000000000000000000000000000000000000000000000000000000081526004018080602001828103825260148152602001807f4d696e207370656e642063616e2774206265203000000000000000000000000081525060200191505060405180910390fd5b81811162000313576040517f08c379a000000000000000000000000000000000000000000000000000000000815260040180806020018281038252602a81526020018062003e77602a913960400191505060405180910390fd5b82601b60006101000a81548173ffffffffffffffffffffffffffffffffffffffff021916908373ffffffffffffffffffffffffffffffffffffffff16021790555062000365846200038560201b60201c565b81601c8190555080601d81905550505050506200046d565b600033905090565b600073ffffffffffffffffffffffffffffffffffffffff168173ffffffffffffffffffffffffffffffffffffffff16141562000429576040517f08c379a000000000000000000000000000000000000000000000000000000000815260040180806020018281038252601c8152602001807f43726f776e732063616e2774206265207a65726f20616464726573730000000081525060200191505060405180910390fd5b80600360006101000a81548173ffffffffffffffffffffffffffffffffffffffff021916908373ffffffffffffffffffffffffffffffffffffffff16021790555050565b6139fa806200047d6000396000f3fe608060405234801561001057600080fd5b50600436106101a95760003560e01c806383817a6b116100f95780639e5abe5d11610097578063bcabb37311610071578063bcabb3731461071b578063caa7f9831461075d578063ea5ed05d14610798578063f2fde38b146107e2576101a9565b80639e5abe5d146106cf5780639ea24844146106d9578063b3a49eae146106e3576101a9565b80638da5cb5b116100d35780638da5cb5b146105b357806390b13ca1146105fd578063976976e5146106555780639da0ac1d14610683576101a9565b806383817a6b146104e757806383c4b7a31461052e57806389fe9e3814610585576101a9565b80633c3f4c6311610166578063672644f611610140578063672644f6146103e3578063715018a61461043f5780637ecebe001461044957806382afd23b146104a1576101a9565b80633c3f4c6314610389578063421653f7146103a757806348dddca8146103c5576101a9565b80630dac9962146101ae5780631aab8fdd146101f25780631b1e305c146102395780631f320331146102915780633184524c146102fa578063355d080c1461033c575b600080fd5b6101f0600480360360208110156101c457600080fd5b81019080803573ffffffffffffffffffffffffffffffffffffffff169060200190929190505050610826565b005b610237600480360361018081101561020957600080fd5b81019080803590602001909291908061014001909192919290803560ff169060200190929190505050610a1c565b005b61027b6004803603602081101561024f57600080fd5b81019080803573ffffffffffffffffffffffffffffffffffffffff169060200190929190505050610e83565b6040518082815260200191505060405180910390f35b6102dd600480360360408110156102a757600080fd5b8101908080359060200190929190803573ffffffffffffffffffffffffffffffffffffffff169060200190929190505050610e9b565b604051808381526020018281526020019250505060405180910390f35b6103266004803603602081101561031057600080fd5b8101908080359060200190929190505050610ecc565b6040518082815260200191505060405180910390f35b6103686004803603602081101561035257600080fd5b8101908080359060200190929190505050610ee4565b60405180831515151581526020018281526020019250505060405180910390f35b610391610f15565b6040518082815260200191505060405180910390f35b6103af610f1b565b6040518082815260200191505060405180910390f35b6103cd610f2c565b6040518082815260200191505060405180910390f35b61043d600480360360a08110156103f957600080fd5b8101908080359060200190929190803560ff1690602001909291908035906020019092919080359060200190929190803560ff169060200190929190505050610f32565b005b610447611546565b005b61048b6004803603602081101561045f57600080fd5b81019080803573ffffffffffffffffffffffffffffffffffffffff1690602001909291905050506116ce565b6040518082815260200191505060405180910390f35b6104cd600480360360208110156104b757600080fd5b81019080803590602001909291905050506116e6565b604051808215151515815260200191505060405180910390f35b61052c60048036036101808110156104fe57600080fd5b81019080803590602001909291908061014001909192919290803560ff169060200190929190505050611731565b005b61055a6004803603602081101561054457600080fd5b8101908080359060200190929190505050611bb5565b6040518085815260200184815260200183815260200182815260200194505050505060405180910390f35b6105b16004803603602081101561059b57600080fd5b8101908080359060200190929190505050611be5565b005b6105bb611d49565b604051808273ffffffffffffffffffffffffffffffffffffffff1673ffffffffffffffffffffffffffffffffffffffff16815260200191505060405180910390f35b61063f6004803603602081101561061357600080fd5b81019080803573ffffffffffffffffffffffffffffffffffffffff169060200190929190505050611d72565b6040518082815260200191505060405180910390f35b6106816004803603602081101561066b57600080fd5b8101908080359060200190929190505050611d8a565b005b6106cd6004803603608081101561069957600080fd5b8101908080359060200190929190803590602001909291908035906020019092919080359060200190929190505050611eed565b005b6106d7612096565b005b6106e161239d565b005b610719600480360360408110156106f957600080fd5b8101908080359060200190929190803590602001909291905050506126a4565b005b6107476004803603602081101561073157600080fd5b8101908080359060200190929190505050612bf0565b6040518082815260200191505060405180910390f35b610796600480360361028081101561077457600080fd5b8101908080610140019091929192908061014001909192919290505050612c08565b005b6107a0612d6e565b604051808273ffffffffffffffffffffffffffffffffffffffff1673ffffffffffffffffffffffffffffffffffffffff16815260200191505060405180910390f35b610824600480360360208110156107f857600080fd5b81019080803573ffffffffffffffffffffffffffffffffffffffff169060200190929190505050612d94565b005b61082e612fa1565b73ffffffffffffffffffffffffffffffffffffffff166000809054906101000a900473ffffffffffffffffffffffffffffffffffffffff1673ffffffffffffffffffffffffffffffffffffffff16146108ef576040517f08c379a00000000000000000000000000000000000000000000000000000000081526004018080602001828103825260208152602001807f4f776e61626c653a2063616c6c6572206973206e6f7420746865206f776e657281525060200191505060405180910390fd5b600073ffffffffffffffffffffffffffffffffffffffff168173ffffffffffffffffffffffffffffffffffffffff161415610975576040517f08c379a000000000000000000000000000000000000000000000000000000000815260040180806020018281038252602181526020018061388d6021913960400191505060405180910390fd5b80601b60006101000a81548173ffffffffffffffffffffffffffffffffffffffff021916908373ffffffffffffffffffffffffffffffffffffffff1602179055507f574ba4a25d34845738232250b1b5e6cca207a9a70af8726fec13dce60580b6a581604051808273ffffffffffffffffffffffffffffffffffffffff1673ffffffffffffffffffffffffffffffffffffffff16815260200191505060405180910390a150565b610a24612fa1565b73ffffffffffffffffffffffffffffffffffffffff166000809054906101000a900473ffffffffffffffffffffffffffffffffffffffff1673ffffffffffffffffffffffffffffffffffffffff1614610ae5576040517f08c379a00000000000000000000000000000000000000000000000000000000081526004018080602001828103825260208152602001807f4f776e61626c653a2063616c6c6572206973206e6f7420746865206f776e657281525060200191505060405180910390fd5b610aee83612fa9565b610b43576040517f08c379a00000000000000000000000000000000000000000000000000000000081526004018080602001828103825260228152602001806137746022913960400191505060405180910390fd5b600a8160ff161115610ba0576040517f08c379a000000000000000000000000000000000000000000000000000000000815260040180806020018281038252602d81526020018061383d602d913960400191505060405180910390fd5b60008160ff161115610e22576000610bbc60058360ff1661303d565b9050600360009054906101000a900473ffffffffffffffffffffffffffffffffffffffff1673ffffffffffffffffffffffffffffffffffffffff166323b872dd610c04611d49565b30846040518463ffffffff1660e01b8152600401808473ffffffffffffffffffffffffffffffffffffffff1673ffffffffffffffffffffffffffffffffffffffff1681526020018373ffffffffffffffffffffffffffffffffffffffff1673ffffffffffffffffffffffffffffffffffffffff1681526020018281526020019350505050602060405180830381600087803b158015610ca257600080fd5b505af1158015610cb6573d6000803e3d6000fd5b505050506040513d6020811015610ccc57600080fd5b8101908080519060200190929190505050610d32576040517f08c379a000000000000000000000000000000000000000000000000000000000815260040180806020018281038252602c815260200180613641602c913960400191505060405180910390fd5b60008090505b8260ff16811015610e1f5760008482600a8110610d5157fe5b602002013573ffffffffffffffffffffffffffffffffffffffff169050610dce600583600a8110610d7e57fe5b0154601960008473ffffffffffffffffffffffffffffffffffffffff1673ffffffffffffffffffffffffffffffffffffffff1681526020019081526020016000205461308c90919063ffffffff16565b601960008373ffffffffffffffffffffffffffffffffffffffff1673ffffffffffffffffffffffffffffffffffffffff16815260200190815260200160002081905550508080600101915050610d38565b50505b610e2b83613114565b827fb7bc7caf1c165d6c24d8b334439850f57b09b840de460ef9cf30789d394e7375836040518082600a60200280828437600081840152601f19601f82011690508083019250505091505060405180910390a2505050565b601a6020528060005260406000206000915090505481565b601f602052816000526040600020602052806000526040600020600091509150508060000154908060010154905082565b600f81600a8110610ed957fe5b016000915090505481565b60046020528060005260406000206000915090508060000160009054906101000a900460ff16908060010154905082565b601d5481565b6000610f27600161315d565b905090565b601c5481565b60006002600087815260200190815260200160002090506000601f600088815260200190815260200160002060003373ffffffffffffffffffffffffffffffffffffffff1673ffffffffffffffffffffffffffffffffffffffff16815260200190815260200160002090506000816000015411611017576040517f08c379a000000000000000000000000000000000000000000000000000000000815260040180806020018281038252601e8152602001807f4e465420527573683a204e6f206465706f7369742077617320666f756e64000081525060200191505060405180910390fd5b6000816001015414806110435750426110418360000154836001015461308c90919063ffffffff16565b105b611098576040517f08c379a00000000000000000000000000000000000000000000000000000000081526004018080602001828103825260518152602001806137c06051913960600191505060405180910390fd5b60606040518060400160405280601c81526020017f19457468657265756d205369676e6564204d6573736167653a0a33320000000081525090506000338360000154846001015487601e60003373ffffffffffffffffffffffffffffffffffffffff1673ffffffffffffffffffffffffffffffffffffffff16815260200190815260200160002054604051602001808673ffffffffffffffffffffffffffffffffffffffff1673ffffffffffffffffffffffffffffffffffffffff1660601b81526014018581526020018481526020018360ff1660ff1660f81b815260010182815260200195505050505050604051602081830303815290604052805190602001209050600082826040516020018083805190602001908083835b602083106111d657805182526020820191506020810190506020830392506111b3565b6001836020036101000a0380198251168184511680821785525050505050509050018281526020019250505060405160208183030381529060405280519060200120905060006001828b8b8b60405160008152602001604052604051808581526020018460ff1660ff1681526020018381526020018281526020019450505050506020604051602081039080840390855afa158015611279573d6000803e3d6000fd5b50505060206040510351905061128d611d49565b73ffffffffffffffffffffffffffffffffffffffff168173ffffffffffffffffffffffffffffffffffffffff1614611310576040517f08c379a000000000000000000000000000000000000000000000000000000000815260040180806020018281038252602c8152602001806136b4602c913960400191505060405180910390fd5b6000601b60009054906101000a900473ffffffffffffffffffffffffffffffffffffffff1673ffffffffffffffffffffffffffffffffffffffff16635642c51f3389600301548b6040518463ffffffff1660e01b8152600401808473ffffffffffffffffffffffffffffffffffffffff1673ffffffffffffffffffffffffffffffffffffffff1681526020018381526020018260ff1660ff1681526020019350505050602060405180830381600087803b1580156113cd57600080fd5b505af11580156113e1573d6000803e3d6000fd5b505050506040513d60208110156113f757600080fd5b8101908080519060200190929190505050905060008111611480576040517f08c379a00000000000000000000000000000000000000000000000000000000081526004018080602001828103825260208152602001807f4e465420527573683a206661696c656420746f206d696e74206120746f6b656e81525060200191505060405180910390fd5b42866001018190555060008660000181905550601e60003373ffffffffffffffffffffffffffffffffffffffff1673ffffffffffffffffffffffffffffffffffffffff168152602001908152602001600020600081548092919060010191905055503373ffffffffffffffffffffffffffffffffffffffff167f25b428dfde728ccfaddad7e29e4ac23c24ed7fd1a6e3e3f91894a9a073f5dfff8d83604051808381526020018281526020019250505060405180910390a2505050505050505050505050565b61154e612fa1565b73ffffffffffffffffffffffffffffffffffffffff166000809054906101000a900473ffffffffffffffffffffffffffffffffffffffff1673ffffffffffffffffffffffffffffffffffffffff161461160f576040517f08c379a00000000000000000000000000000000000000000000000000000000081526004018080602001828103825260208152602001807f4f776e61626c653a2063616c6c6572206973206e6f7420746865206f776e657281525060200191505060405180910390fd5b600073ffffffffffffffffffffffffffffffffffffffff166000809054906101000a900473ffffffffffffffffffffffffffffffffffffffff1673ffffffffffffffffffffffffffffffffffffffff167f8be0079c531659141344cd1fd0a4f28419497f9722a3daafe3b4186f6b6457e060405160405180910390a360008060006101000a81548173ffffffffffffffffffffffffffffffffffffffff021916908373ffffffffffffffffffffffffffffffffffffffff160217905550565b601e6020528060005260406000206000915090505481565b60006002600083815260200190815260200160002060010154600260008481526020019081526020016000206002015401421115611727576000905061172c565b600190505b919050565b611739612fa1565b73ffffffffffffffffffffffffffffffffffffffff166000809054906101000a900473ffffffffffffffffffffffffffffffffffffffff1673ffffffffffffffffffffffffffffffffffffffff16146117fa576040517f08c379a00000000000000000000000000000000000000000000000000000000081526004018080602001828103825260208152602001807f4f776e61626c653a2063616c6c6572206973206e6f7420746865206f776e657281525060200191505060405180910390fd5b6118038361316b565b611858576040517f08c379a00000000000000000000000000000000000000000000000000000000081526004018080602001828103825260268152602001806139246026913960400191505060405180910390fd5b600a8160ff1611156118d2576040517f08c379a000000000000000000000000000000000000000000000000000000000815260040180806020018281038252601a8152602001807f4e465420527573683a20746f6f206d616e792077696e6e65727300000000000081525060200191505060405180910390fd5b60008160ff161115611b545760006118ee600f8360ff1661303d565b9050600360009054906101000a900473ffffffffffffffffffffffffffffffffffffffff1673ffffffffffffffffffffffffffffffffffffffff166323b872dd611936611d49565b30846040518463ffffffff1660e01b8152600401808473ffffffffffffffffffffffffffffffffffffffff1673ffffffffffffffffffffffffffffffffffffffff1681526020018373ffffffffffffffffffffffffffffffffffffffff1673ffffffffffffffffffffffffffffffffffffffff1681526020018281526020019350505050602060405180830381600087803b1580156119d457600080fd5b505af11580156119e8573d6000803e3d6000fd5b505050506040513d60208110156119fe57600080fd5b8101908080519060200190929190505050611a64576040517f08c379a000000000000000000000000000000000000000000000000000000000815260040180806020018281038252602c815260200180613641602c913960400191505060405180910390fd5b60008090505b8260ff16811015611b515760008482600a8110611a8357fe5b602002013573ffffffffffffffffffffffffffffffffffffffff169050611b00600f83600a8110611ab057fe5b0154601a60008473ffffffffffffffffffffffffffffffffffffffff1673ffffffffffffffffffffffffffffffffffffffff1681526020019081526020016000205461308c90919063ffffffff16565b601a60008373ffffffffffffffffffffffffffffffffffffffff1673ffffffffffffffffffffffffffffffffffffffff16815260200190815260200160002081905550508080600101915050611a6a565b50505b611b5d836131d2565b827f4acbcc790b4d146ffbf7ef3f10ee7df31cf82066af942f2f45201214e5ae3b7b836040518082600a60200280828437600081840152601f19601f82011690508083019250505091505060405180910390a2505050565b60026020528060005260406000206000915090508060000154908060010154908060020154908060030154905084565b611bed612fa1565b73ffffffffffffffffffffffffffffffffffffffff166000809054906101000a900473ffffffffffffffffffffffffffffffffffffffff1673ffffffffffffffffffffffffffffffffffffffff1614611cae576040517f08c379a00000000000000000000000000000000000000000000000000000000081526004018080602001828103825260208152602001807f4f776e61626c653a2063616c6c6572206973206e6f7420746865206f776e657281525060200191505060405180910390fd5b601c548111611d08576040517f08c379a000000000000000000000000000000000000000000000000000000000815260040180806020018281038252602c815260200180613811602c913960400191505060405180910390fd5b80601d819055507ffd259c4069804d6af6ddd1ad04b7320e8603e8f758da4665734ecea40e706afb816040518082815260200191505060405180910390a150565b60008060009054906101000a900473ffffffffffffffffffffffffffffffffffffffff16905090565b60196020528060005260406000206000915090505481565b611d92612fa1565b73ffffffffffffffffffffffffffffffffffffffff166000809054906101000a900473ffffffffffffffffffffffffffffffffffffffff1673ffffffffffffffffffffffffffffffffffffffff1614611e53576040517f08c379a00000000000000000000000000000000000000000000000000000000081526004018080602001828103825260208152602001807f4f776e61626c653a2063616c6c6572206973206e6f7420746865206f776e657281525060200191505060405180910390fd5b60008111611eac576040517f08c379a000000000000000000000000000000000000000000000000000000000815260040180806020018281038252602381526020018061386a6023913960400191505060405180910390fd5b80601c819055507f6d6b53e7abe5741566df77c0a72e72be0b6a87a2efe1ad4dc77b1d2b10c44baf816040518082815260200191505060405180910390a150565b611ef5612fa1565b73ffffffffffffffffffffffffffffffffffffffff166000809054906101000a900473ffffffffffffffffffffffffffffffffffffffff1673ffffffffffffffffffffffffffffffffffffffff1614611fb6576040517f08c379a00000000000000000000000000000000000000000000000000000000081526004018080602001828103825260208152602001807f4f776e61626c653a2063616c6c6572206973206e6f7420746865206f776e657281525060200191505060405180910390fd5b6000611fc0610f1b565b111561202d57611fd6611fd1610f1b565b6116e6565b1561202c576040517f08c379a000000000000000000000000000000000000000000000000000000000815260040180806020018281038252602c815260200180613999602c913960400191505060405180910390fd5b5b600061203b85858585613204565b905061204781846134de565b807f5dc1f72d9d4fb1e826e6f5c291a6eb1942b9825fe2802bb9ec05563c01aad88686868560405180848152602001838152602001828152602001935050505060405180910390a25050505050565b6000601a60006120a4612fa1565b73ffffffffffffffffffffffffffffffffffffffff1673ffffffffffffffffffffffffffffffffffffffff1681526020019081526020016000205411612135576040517f08c379a000000000000000000000000000000000000000000000000000000000815260040180806020018281038252602a815260200180613796602a913960400191505060405180910390fd5b6000601a6000612143612fa1565b73ffffffffffffffffffffffffffffffffffffffff1673ffffffffffffffffffffffffffffffffffffffff168152602001908152602001600020549050600360009054906101000a900473ffffffffffffffffffffffffffffffffffffffff1673ffffffffffffffffffffffffffffffffffffffff1663a9059cbb6121c6612fa1565b836040518363ffffffff1660e01b8152600401808373ffffffffffffffffffffffffffffffffffffffff1673ffffffffffffffffffffffffffffffffffffffff16815260200182815260200192505050602060405180830381600087803b15801561223057600080fd5b505af1158015612244573d6000803e3d6000fd5b505050506040513d602081101561225a57600080fd5b81019080805190602001909291905050506122c0576040517f08c379a000000000000000000000000000000000000000000000000000000000815260040180806020018281038252602a81526020018061374a602a913960400191505060405180910390fd5b6000601a60006122ce612fa1565b73ffffffffffffffffffffffffffffffffffffffff1673ffffffffffffffffffffffffffffffffffffffff16815260200190815260200160002081905550612314612fa1565b73ffffffffffffffffffffffffffffffffffffffff167f3357c8ce10f059670fd7cfc8aa95ea294bbc03367622f135052807bfc3c7968f8260405180806020018381526020018281038252600f8152602001807f414c4c5f54494d455f4d494e54454400000000000000000000000000000000008152506020019250505060405180910390a250565b6000601960006123ab612fa1565b73ffffffffffffffffffffffffffffffffffffffff1673ffffffffffffffffffffffffffffffffffffffff168152602001908152602001600020541161243c576040517f08c379a000000000000000000000000000000000000000000000000000000000815260040180806020018281038252602a815260200180613796602a913960400191505060405180910390fd5b60006019600061244a612fa1565b73ffffffffffffffffffffffffffffffffffffffff1673ffffffffffffffffffffffffffffffffffffffff168152602001908152602001600020549050600360009054906101000a900473ffffffffffffffffffffffffffffffffffffffff1673ffffffffffffffffffffffffffffffffffffffff1663a9059cbb6124cd612fa1565b836040518363ffffffff1660e01b8152600401808373ffffffffffffffffffffffffffffffffffffffff1673ffffffffffffffffffffffffffffffffffffffff16815260200182815260200192505050602060405180830381600087803b15801561253757600080fd5b505af115801561254b573d6000803e3d6000fd5b505050506040513d602081101561256157600080fd5b81019080805190602001909291905050506125c7576040517f08c379a000000000000000000000000000000000000000000000000000000000815260040180806020018281038252602a81526020018061374a602a913960400191505060405180910390fd5b6000601960006125d5612fa1565b73ffffffffffffffffffffffffffffffffffffffff1673ffffffffffffffffffffffffffffffffffffffff1681526020019081526020016000208190555061261b612fa1565b73ffffffffffffffffffffffffffffffffffffffff167f3357c8ce10f059670fd7cfc8aa95ea294bbc03367622f135052807bfc3c7968f8260405180806020018381526020018281038252600b8152602001807f4441494c595f5350454e540000000000000000000000000000000000000000008152506020019250505060405180910390a250565b601c548110156126ff576040517f08c379a000000000000000000000000000000000000000000000000000000000815260040180806020018281038252604a8152602001806138da604a913960600191505060405180910390fd5b601d5481111561275a576040517f08c379a000000000000000000000000000000000000000000000000000000000815260040180806020018281038252604781526020018061366d6047913960600191505060405180910390fd5b600082116127b3576040517f08c379a00000000000000000000000000000000000000000000000000000000081526004018080602001828103825260258152602001806139746025913960400191505060405180910390fd5b6127bc826116e6565b612811576040517f08c379a000000000000000000000000000000000000000000000000000000000815260040180806020018281038252602a81526020018061394a602a913960400191505060405180910390fd5b80600360009054906101000a900473ffffffffffffffffffffffffffffffffffffffff1673ffffffffffffffffffffffffffffffffffffffff166370a08231336040518263ffffffff1660e01b8152600401808273ffffffffffffffffffffffffffffffffffffffff1673ffffffffffffffffffffffffffffffffffffffff16815260200191505060206040518083038186803b1580156128b157600080fd5b505afa1580156128c5573d6000803e3d6000fd5b505050506040513d60208110156128db57600080fd5b81019080805190602001909291905050501015612943576040517f08c379a00000000000000000000000000000000000000000000000000000000081526004018080602001828103825260378152602001806135b66037913960400191505060405180910390fd5b600360009054906101000a900473ffffffffffffffffffffffffffffffffffffffff1673ffffffffffffffffffffffffffffffffffffffff16636aade28833836040518363ffffffff1660e01b8152600401808373ffffffffffffffffffffffffffffffffffffffff1673ffffffffffffffffffffffffffffffffffffffff16815260200182815260200192505050602060405180830381600087803b1580156129ec57600080fd5b505af1158015612a00573d6000803e3d6000fd5b505050506040513d6020811015612a1657600080fd5b8101908080519060200190929190505050612a99576040517f08c379a000000000000000000000000000000000000000000000000000000000815260040180806020018281038252601d8152602001807f4e465420527573683a204661696c656420746f207370656e642043575300000081525060200191505060405180910390fd5b6000601f600084815260200190815260200160002060003373ffffffffffffffffffffffffffffffffffffffff1673ffffffffffffffffffffffffffffffffffffffff1681526020019081526020016000209050601d54612b0783836000015461308c90919063ffffffff16565b1115612b5e576040517f08c379a00000000000000000000000000000000000000000000000000000000081526004018080602001828103825260348152602001806136e06034913960400191505060405180910390fd5b612b7582826000015461308c90919063ffffffff16565b81600001819055503373ffffffffffffffffffffffffffffffffffffffff167fe8591e9373e8c4801ffc5bb031277889e3e771aee8c55961028bfc65728c9ba98483600001548460010154866040518085815260200184815260200183815260200182815260200194505050505060405180910390a2505050565b600581600a8110612bfd57fe5b016000915090505481565b612c10612fa1565b73ffffffffffffffffffffffffffffffffffffffff166000809054906101000a900473ffffffffffffffffffffffffffffffffffffffff1673ffffffffffffffffffffffffffffffffffffffff1614612cd1576040517f08c379a00000000000000000000000000000000000000000000000000000000081526004018080602001828103825260208152602001807f4f776e61626c653a2063616c6c6572206973206e6f7420746865206f776e657281525060200191505060405180910390fd5b81600590600a612ce2929190613550565b5080600f90600a612cf4929190613550565b507ffc9cd85d5edf86120000909be3a6a68e449c6fa65624a653abf8802f3301df6382826040518083600a60200280828437600081840152601f19601f82011690508083019250505082600a60200280828437600081840152601f19601f8201169050808301925050509250505060405180910390a15050565b600360009054906101000a900473ffffffffffffffffffffffffffffffffffffffff1681565b612d9c612fa1565b73ffffffffffffffffffffffffffffffffffffffff166000809054906101000a900473ffffffffffffffffffffffffffffffffffffffff1673ffffffffffffffffffffffffffffffffffffffff1614612e5d576040517f08c379a00000000000000000000000000000000000000000000000000000000081526004018080602001828103825260208152602001807f4f776e61626c653a2063616c6c6572206973206e6f7420746865206f776e657281525060200191505060405180910390fd5b600073ffffffffffffffffffffffffffffffffffffffff168173ffffffffffffffffffffffffffffffffffffffff161415612ee3576040517f08c379a00000000000000000000000000000000000000000000000000000000081526004018080602001828103825260268152602001806135ed6026913960400191505060405180910390fd5b8073ffffffffffffffffffffffffffffffffffffffff166000809054906101000a900473ffffffffffffffffffffffffffffffffffffffff1673ffffffffffffffffffffffffffffffffffffffff167f8be0079c531659141344cd1fd0a4f28419497f9722a3daafe3b4186f6b6457e060405160405180910390a3806000806101000a81548173ffffffffffffffffffffffffffffffffffffffff021916908373ffffffffffffffffffffffffffffffffffffffff16021790555050565b600033905090565b6000806002600084815260200190815260200160002090506000612ff362015180612fe58460010154856002015461308c90919063ffffffff16565b61308c90919063ffffffff16565b9050600061302362015180600460008881526020019081526020016000206001015461308c90919063ffffffff16565b9050804211801561303357508181105b9350505050919050565b6000806000905060008090505b83811015613081576130728582600a811061306157fe5b01548361308c90919063ffffffff16565b9150808060010191505061304a565b508091505092915050565b60008082840190508381101561310a576040517f08c379a000000000000000000000000000000000000000000000000000000000815260040180806020018281038252601b8152602001807f536166654d6174683a206164646974696f6e206f766572666c6f77000000000081525060200191505060405180910390fd5b8091505092915050565b61314062015180600460008481526020019081526020016000206001015461308c90919063ffffffff16565b600460008381526020019081526020016000206001018190555050565b600081600001549050919050565b60008060026000848152602001908152602001600020905061318c836116e6565b15801561319d575060008160020154115b80156131ca57506004600084815260200190815260200160002060000160009054906101000a900460ff16155b915050919050565b60016004600083815260200190815260200160002060000160006101000a81548160ff02191690831515021790555050565b600061320e612fa1565b73ffffffffffffffffffffffffffffffffffffffff166000809054906101000a900473ffffffffffffffffffffffffffffffffffffffff1673ffffffffffffffffffffffffffffffffffffffff16146132cf576040517f08c379a00000000000000000000000000000000000000000000000000000000081526004018080602001828103825260208152602001807f4f776e61626c653a2063616c6c6572206973206e6f7420746865206f776e657281525060200191505060405180910390fd5b6201518084101561332b576040517f08c379a00000000000000000000000000000000000000000000000000000000081526004018080602001828103825260368152602001806137146036913960400191505060405180910390fd5b42831015613384576040517f08c379a000000000000000000000000000000000000000000000000000000000815260040180806020018281038252602e815260200180613613602e913960400191505060405180910390fd5b600061338e610f1b565b905060008111156133f9576133a2816116e6565b156133f8576040517f08c379a000000000000000000000000000000000000000000000000000000000815260040180806020018281038252602c8152602001806138ae602c913960400191505060405180910390fd5b5b613403600161353a565b600061340f600161315d565b905060405180608001604052808881526020018781526020018681526020018581525060026000838152602001908152602001600020600082015181600001556020820151816001015560408201518160020155606082015181600301559050507f5dc1f72d9d4fb1e826e6f5c291a6eb1942b9825fe2802bb9ec05563c01aad88681866134a6898961308c90919063ffffffff16565b876040518085815260200184815260200183815260200182815260200194505050505060405180910390a18092505050949350505050565b6040518060400160405280600015158152602001828152506004600084815260200190815260200160002060008201518160000160006101000a81548160ff021916908315150217905550602082015181600101559050505050565b6001816000016000828254019250508190555050565b82600a810192821561357f579160200282015b8281111561357e578235825591602001919060010190613563565b5b50905061358c9190613590565b5090565b6135b291905b808211156135ae576000816000905550600101613596565b5090565b9056fe4e465420527573683a204e6f7420656e6f756768204357532c20706c6561736520636865636b20796f7572204357532062616c616e63654f776e61626c653a206e6577206f776e657220697320746865207a65726f20616464726573734e465420527573683a2067616d652074696d652073686f756c6420737461727420696e20746865206675747572654e465420527573683a206e6f7420656e6f7567682043575320746f20676976652061732061207265776172644e667420527573683a20416d6f756e74206f662043575320746f207370656e642073686f756c64206265206c657373206f7220657175616c20746f206d6178206465706f7369744e465420527573683a204661696c656420746f20766572696679207175616c697479207369676e61747572654e465420527573683a2043616e206e6f74207370656e74206d6f7265207468616e206d6178207370656e64696e67206c696d69744e465420527573683a2073657373696f6e206475726174696f6e20636f756c64206265206d696e696d756d20666f72203120646179734e465420527573683a206661696c656420746f207472616e736665722043575320746f2077696e6e65724e465420527573683a20616c726561647920736574206f7220746f6f206561726c794e465420527573683a206e6f20636c61696d61626c652043575320666f72206c6561646572626f6172644e465420527573683a205374696c6c20696e206c6f636b696e6720706572696f642c20706c656173652074727920616761696e206166746572206c6f636b696e6720696e74657276616c207061737365734d617820616d6f756e742073686f756c642062652067726561746572207468616e206d696e20616d6f756e744e465420527573683a20657863656564656420706f737369626c6520616d6f756e74206f662077696e6e6572734d696e20616d6f756e742073686f756c642062652067726561746572207468616e20304e667420466163746f72792063616e2774206265207a65726f20616464726573734e465420527573683a2070726576696f75732073657373696f6e2073686f756c6420626520657870697265644e465420527573683a20416d6f756e74206f662043575320746f207370656e642073686f756c642062652067726561746572206f7220657175616c20746f206d696e206465706f7369744e465420527573683a20616c6c2074696d652077696e6e6572732073657420616c72656164794e465420527573683a2047616d652073657373696f6e20697320616c72656164792066696e69736865644e465420527573683a2053657373696f6e206973206e6f74207374617274656420796574214e465420527573683a2043616e2774207374617274207768656e2073657373696f6e20697320616374697665a2646970667358221220335c022132d016b2f5fb7ef28631a9d3a268e07a3cead4c4caf278e6b641819a64736f6c634300060700334d6178207370656e642073686f756c642062652067726561746572207468616e206d696e206c696d69744e667420466163746f72792063616e2774206265207a65726f2061646472657373",
  "immutableReferences": {},
  "source": "pragma solidity 0.6.7;\r\n\r\nimport \"./../openzeppelin/contracts/access/Ownable.sol\";\r\nimport \"./../openzeppelin/contracts/math/SafeMath.sol\";\r\nimport \"./../openzeppelin/contracts/utils/Counters.sol\";\r\nimport \"./../seascape_nft/NftTypes.sol\";\r\nimport \"./../seascape_nft/NftFactory.sol\";\r\nimport \"./Crowns.sol\";\r\nimport \"./Leaderboard.sol\";\r\nimport \"./GameSession.sol\";\r\n\r\n/// @title Nft Rush a game on seascape platform allowing to earn Nft by spending crowns\r\n/// @notice Game comes with Leaderboard located on it's on Solidity file.\r\n/// @author Medet Ahmetson\r\ncontract NftRush is Ownable, GameSession, Crowns, Leaderboard {\r\n    using SafeMath for uint256;\r\n    using Counters for Counters.Counter;\r\n    using NftTypes for NftTypes;\r\n\r\n    /// @notice nft factory is a contract that mints nfts\r\n    NftFactory nftFactory;    \r\n\r\n    /// @notice minimum CWS amount to spend in game.\r\n    /// @dev in WEI format.\r\n    uint256 public minSpend;\r\n    /// @notice maximum CWS amount to spend in game.\r\n    /// @dev in WEI format.\r\n    uint256 public maxSpend;\r\n    \r\n    struct Balance {\r\n\t    uint256 amount;\r\n\t    uint256 mintedTime;\r\n    }\r\n\r\n    mapping(address => uint256) public nonces;\r\n\r\n    /// @notice Tracking player balance within a game session.\r\n    /// @dev session id =>(wallet address => (Balance struct))\r\n    mapping(uint256 => mapping(address => Balance)) public balances;\r\n\r\n    event SessionStarted(uint256 indexed sessionId, uint256 interval, uint256 period, uint256 generation);\r\n    event Spent(address indexed owner, uint256 sessionId, uint256 balanceAmount, uint256 prevMintedTime, uint256 amount);\r\n    event Minted(address indexed owner, uint256 sessionId, uint256 nftId);\r\n    event NftFactorySet(address factory);\r\n    event MinSpendUpdated(uint256 amount);\r\n    event MaxSpendUpdated(uint256 amount);\r\n\r\n    constructor(address _crowns, address _factory, uint256 _minSpend, uint256 _maxSpend) public {\r\n        require(_crowns != address(0), \"Crowns can't be zero address\");\r\n        require(_factory != address(0), \"Nft Factory can't be zero address\");\r\n        require(_minSpend > 0, \"Min spend can't be 0\");\r\n        require(_maxSpend > _minSpend, \"Max spend should be greater than min limit\");\r\n        nftFactory = NftFactory(_factory);\r\n\r\n        /// @dev set crowns is defined in Crowns.sol\r\n        setCrowns(_crowns);\t\t\r\n\r\n        minSpend = _minSpend;\r\n        maxSpend = _maxSpend;\r\n    }\r\n    \r\n    //--------------------------------------------------\r\n    // Only owner\r\n    //--------------------------------------------------\r\n\r\n    /** \r\n     *  @notice Starts a staking session for a finite period of time.\r\n     *  And activated in certain period.\r\n     *\r\n     *  @param _interval duration between claims of Nft\r\n     *  @param _period session duration\r\n     *  @param _startTime session start time in unix timestamp\r\n     *  @param _generation Seascape Nft generation that is given as a reward\r\n     *\r\n     *  Emits an {SessionStarted} event.  \r\n     *\r\n     *  Requirements:\r\n     *\r\n     *  - if some other session was launched before, that session should be ended.\r\n     */\r\n    function startSession(uint256 _interval, uint256 _period, uint256 _startTime, uint256 _generation) external onlyOwner {\r\n        if (lastSessionId() > 0) {\r\n            require(!isActive(lastSessionId()), \"NFT Rush: Can't start when session is active\");\r\n        }\r\n\r\n        uint256 _sessionId = _startSession(_interval, _period, _startTime, _generation);\r\n        \r\n        announceLeaderboard(_sessionId, _startTime);\r\n\r\n        emit SessionStarted(_sessionId, _interval, _period, _generation);\r\n    }\r\n\r\n    \r\n    /** \r\n     *  @notice Sets NFT factory that will mint a token for stakers\r\n     *\r\n     *  @param _address a new Address of Nft Factory\r\n     */\r\n    function setNftFactory(address _address) external onlyOwner {\r\n        require(_address != address(0), \"Nft Factory can't be zero address\");\r\n\r\n\t    nftFactory = NftFactory(_address);\r\n\r\n        emit NftFactorySet(_address);\r\n    }\r\n\r\n    /**\r\n     *  @notice minimum amount of Crowns that players could spend\r\n     *\r\n     *  @param _amount a new minimal spending amount in WEI\r\n     */\r\n    function setMinSpendAmount(uint256 _amount) external onlyOwner {\r\n        require(_amount > 0, \"Min amount should be greater than 0\");\r\n\t    minSpend = _amount;\r\n\r\n        emit MinSpendUpdated(_amount);\r\n    }\r\n        \r\n    /**\r\n     *  @notice minimum amount of Crowns that players could spend\r\n     *\r\n     *  @param _amount a new minimal spending amount in WEI\r\n     */\r\n    function setMaxSpendAmount(uint256 _amount) external onlyOwner {\r\n\t    require(_amount > minSpend, \"Max amount should be greater than min amount\");\r\n        maxSpend = _amount;\r\n\r\n        MaxSpendUpdated(_amount);\r\n    }\r\n\r\n    //--------------------------------------------------\r\n    // Only game user\r\n    //--------------------------------------------------\r\n\r\n    /**\r\n     *  @notice Spend some crowns in the game, to get higher quality NFTs.\r\n     *  The more spending, higher the chance of getting high quality NFT.\r\n     *\r\n     *  Note, that player should approve Crowns to use by this game contract.\r\n     *\r\n     *  Emits a {Spent} event.\r\n     *\r\n     *  @param _sessionId a session id\r\n     *  @param _amount amount of CWS to spend\r\n     *\r\n     *  Requirements:\r\n     *\r\n     *  - `_amount` must be atleast equal to `minSpend`\r\n     *  - `_sessionId` must be greater than 0\r\n     *  - session of `_sessionId` must be active\r\n     *  - The spender should have `amount` of Crowns\r\n     *  - Spending of Crowns must be successfull. Fails, if not granted a permission\r\n     */\r\n    function spend(uint256 _sessionId, uint256 _amount) external {\r\n        require(_amount >= minSpend,\r\n            \"NFT Rush: Amount of CWS to spend should be greater or equal to min deposit\");\r\n        require(_amount <= maxSpend,\r\n            \"Nft Rush: Amount of CWS to spend should be less or equal to max deposit\");\r\n        require(_sessionId > 0,\r\n            \"NFT Rush: Session is not started yet!\");\r\n        require(isActive(_sessionId),\r\n            \"NFT Rush: Game session is already finished\");\r\n        require(crowns.balanceOf(msg.sender) >= _amount,\r\n            \"NFT Rush: Not enough CWS, please check your CWS balance\");\r\n        require(crowns.spendFrom(msg.sender, _amount),\r\n            \"NFT Rush: Failed to spend CWS\");\r\n\r\n        Balance storage _balance  = balances[_sessionId][msg.sender];\r\n\r\n        require(_balance.amount.add(_amount) <= maxSpend, \r\n            \"NFT Rush: Can not spent more than max spending limit\");\r\n\r\n        _balance.amount = _balance.amount.add(_amount);\r\n\t\r\n        emit Spent(msg.sender, _sessionId, _balance.amount, _balance.mintedTime, _amount);\r\n    }\r\n\r\n\r\n    /**\r\n     *  @notice mints Nft of {_quality}.\r\n     *  @dev The Quality of Nft is determined by centralized server. \r\n     *  As a proof centrlized server returns a signature\r\n     *  to validate the quality\r\n     *\r\n     *  Emits a {Minted} event.\r\n     *\r\n     *  @param _sessionId a game session\r\n     *  @param _v part of signature of message\r\n     *  @param _r part of signature of message\r\n     *  @param _s part of signature of message\r\n     *  @param _quality a quality of minted token\r\n     *\r\n     *  Requirements:\r\n     *\r\n     *  - `balances[_sessionId][msg.sender].amount` must ge greater than 0.\r\n     *  - Quality signer's address should match to this contract' owner's address\r\n     *  - Player should mint it first time, or if not, then locking interval should be passed\r\n     *  - Nft Factory should return Nft id of successfully minted token\r\n     */\r\n    function mint(uint256 _sessionId, uint8 _v, bytes32 _r, bytes32 _s, uint8 _quality) external {\r\n        Session storage _session = sessions[_sessionId];\r\n\t    Balance storage _balance = balances[_sessionId][msg.sender];\r\n\r\n\t    require(_balance.amount > 0,\r\n\t\t    \"NFT Rush: No deposit was found\");\r\n\t    require(_balance.mintedTime == 0 ||\r\n\t\t    (_balance.mintedTime.add(_session.interval) < block.timestamp),\r\n\t\t    \"NFT Rush: Still in locking period, please try again after locking interval passes\");\r\n\t\r\n\t    /// Validation of quality\r\n\t    /// message is generated as owner + amount + last time stamp + quality\r\n\t    bytes memory _prefix = \"\\x19Ethereum Signed Message:\\n32\";\r\n\t    bytes32 _messageNoPrefix =\r\n\t    keccak256(abi.encodePacked(msg.sender,\r\n\t\t\t\t       _balance.amount,\r\n\t\t\t\t       _balance.mintedTime,\r\n\t\t\t\t       _quality,\r\n                       nonces[msg.sender])\r\n\t\t      );\r\n\t    bytes32 _message = keccak256(abi.encodePacked(_prefix, _messageNoPrefix));\r\n\t    address _recover = ecrecover(_message, _v, _r, _s);\r\n\r\n\t    require(_recover == owner(),\r\n\t\t    \"NFT Rush: Failed to verify quality signature\");\r\n\t\r\n        uint256 _tokenId = nftFactory.mintQuality(msg.sender, _session.generation, _quality);\r\n\t    require(_tokenId > 0,\r\n\t\t    \"NFT Rush: failed to mint a token\");\r\n\t\r\n\t    _balance.mintedTime = block.timestamp;\r\n\t    _balance.amount = 0;\r\n        nonces[msg.sender]++;\r\n\r\n\t    emit Minted(msg.sender, _sessionId, _tokenId);\r\n    }\r\n}\r\n",
  "sourcePath": "/home/node/app/contracts/game_2/NftRush.sol",
  "compiler": {
    "name": "solc",
    "version": "0.6.7+commit.b8d736ae.Emscripten.clang"
  },
  "schemaVersion": "3.3.4",
  "updatedAt": "2021-03-22T04:57:13.799Z",
  "networkType": "ethereum",
  "devdoc": {
    "author": "Medet Ahmetson",
    "methods": {
      "announceAllTimeMintedWinners(uint256,address[10],uint8)": {
        "params": {
          "_sessionId": "a session of the game",
          "_winners": "list of wallet addresses",
          "_winnersAmount": "number of winners. Some day would not have 10 winners      *  Requirements:      *  - All time minters leaderboard should be announcable - `_winnersAmount` must be atmost equal to 10. - if there are winners, then contract owner should transfer enough CWS to contract to payout players"
        }
      },
      "announceDailySpentWinners(uint256,address[10],uint8)": {
        "params": {
          "_sessionId": "a session of the game",
          "_winners": "list of wallet addresses",
          "_winnersAmount": "number of winners. Some day would not have 10 winners      *  Requirements:      *  - Daily spenders leaderboard should be announcable - `_winnersAmount` must be atmost equal to 10. - if there are winners, then contract owner should transfer enough CWS to contract to payout players"
        }
      },
      "mint(uint256,uint8,bytes32,bytes32,uint8)": {
        "details": "The Quality of Nft is determined by centralized server.  As a proof centrlized server returns a signature to validate the quality      *  Emits a {Minted} event. ",
        "params": {
          "_quality": "a quality of minted token      *  Requirements:      *  - `balances[_sessionId][msg.sender].amount` must ge greater than 0. - Quality signer's address should match to this contract' owner's address - Player should mint it first time, or if not, then locking interval should be passed - Nft Factory should return Nft id of successfully minted token",
          "_r": "part of signature of message",
          "_s": "part of signature of message",
          "_sessionId": "a game session",
          "_v": "part of signature of message"
        }
      },
      "owner()": {
        "details": "Returns the address of the current owner."
      },
      "renounceOwnership()": {
        "details": "Leaves the contract without owner. It will not be possible to call `onlyOwner` functions anymore. Can only be called by the current owner.      * NOTE: Renouncing ownership will leave the contract without an owner, thereby removing any functionality that is only available to the owner."
      },
      "setMaxSpendAmount(uint256)": {
        "params": {
          "_amount": "a new minimal spending amount in WEI"
        }
      },
      "setMinSpendAmount(uint256)": {
        "params": {
          "_amount": "a new minimal spending amount in WEI"
        }
      },
      "setNftFactory(address)": {
        "params": {
          "_address": "a new Address of Nft Factory"
        }
      },
      "setPrizes(uint256[10],uint256[10])": {
        "params": {
          "_mintedAllTime": "list of prizes for all time top minters",
          "_spentDaily": "list of prizes for daily top spenders"
        }
      },
      "spend(uint256,uint256)": {
        "params": {
          "_amount": "amount of CWS to spend      *  Requirements:      *  - `_amount` must be atleast equal to `minSpend` - `_sessionId` must be greater than 0 - session of `_sessionId` must be active - The spender should have `amount` of Crowns - Spending of Crowns must be successfull. Fails, if not granted a permission",
          "_sessionId": "a session id"
        }
      },
      "startSession(uint256,uint256,uint256,uint256)": {
        "params": {
          "_generation": "Seascape Nft generation that is given as a reward      *  Emits an {SessionStarted} event.        *  Requirements:      *  - if some other session was launched before, that session should be ended.",
          "_interval": "duration between claims of Nft",
          "_period": "session duration",
          "_startTime": "session start time in unix timestamp"
        }
      },
      "transferOwnership(address)": {
        "details": "Transfers ownership of the contract to a new account (`newOwner`). Can only be called by the current owner."
      }
    },
    "title": "Nft Rush a game on seascape platform allowing to earn Nft by spending crowns"
  },
  "userdoc": {
    "methods": {
      "announceAllTimeMintedWinners(uint256,address[10],uint8)": {
        "notice": "Announce winners list for all time top minters leaderboard "
      },
      "announceDailySpentWinners(uint256,address[10],uint8)": {
        "notice": "Announce winners list for daily top spenders leaderboard "
      },
      "claimAllTimeMinted()": {
        "notice": "Player can claim leaderboard rewards.      *  Emits a {Rewarded} event.      *  Requirements: \r - `mintedAllTimeClaimables` for player should be greater than 0 - transfer of Crowns from contract balance to player must be successful."
      },
      "claimDailySpent()": {
        "notice": "Player can claim leaderboard rewards.      *  Emits a {Rewarded} event.      *  Requirements: \r - `spentDailyClaimables` for player should be greater than 0 - transfer of Crowns from contract balance to player must be successful."
      },
      "isActive(uint256)": {
        "notice": "Whether the given session is active or not"
      },
      "lastSessionId()": {
        "notice": "The last created session's id      * NOTE!!! It returns 0, if no session was started yet."
      },
      "mint(uint256,uint8,bytes32,bytes32,uint8)": {
        "notice": "mints Nft of {_quality}."
      },
      "setMaxSpendAmount(uint256)": {
        "notice": "minimum amount of Crowns that players could spend "
      },
      "setMinSpendAmount(uint256)": {
        "notice": "minimum amount of Crowns that players could spend "
      },
      "setNftFactory(address)": {
        "notice": "Sets NFT factory that will mint a token for stakers "
      },
      "setPrizes(uint256[10],uint256[10])": {
        "notice": "Sets all prizes at once. Prizes in CWS token that winners would get. "
      },
      "spend(uint256,uint256)": {
        "notice": "Spend some crowns in the game, to get higher quality NFTs. The more spending, higher the chance of getting high quality NFT.      *  Note, that player should approve Crowns to use by this game contract.      *  Emits a {Spent} event. "
      },
      "startSession(uint256,uint256,uint256,uint256)": {
        "notice": "Starts a staking session for a finite period of time. And activated in certain period. "
      }
    },
    "notice": "Game comes with Leaderboard located on it's on Solidity file."
  }
}